{
	"contracts/CCIPChallenge.sol": {
		"CCIPChallenge": {
			"abi": [
				{
					"inputs": [],
					"stateMutability": "nonpayable",
					"type": "constructor"
				},
				{
					"inputs": [
						{
							"internalType": "contract IERC20",
							"name": "token",
							"type": "address"
						},
						{
							"internalType": "uint256",
							"name": "currentBalance",
							"type": "uint256"
						},
						{
							"internalType": "uint256",
							"name": "requiredAmount",
							"type": "uint256"
						}
					],
					"name": "CCIPChallenge__InsufficientBalance",
					"type": "error"
				},
				{
					"inputs": [],
					"name": "CCIPChallenge__NothingToWithdraw",
					"type": "error"
				},
				{
					"inputs": [
						{
							"internalType": "address",
							"name": "owner",
							"type": "address"
						}
					],
					"name": "OwnableInvalidOwner",
					"type": "error"
				},
				{
					"inputs": [
						{
							"internalType": "address",
							"name": "account",
							"type": "address"
						}
					],
					"name": "OwnableUnauthorizedAccount",
					"type": "error"
				},
				{
					"anonymous": false,
					"inputs": [
						{
							"indexed": true,
							"internalType": "address",
							"name": "previousOwner",
							"type": "address"
						},
						{
							"indexed": true,
							"internalType": "address",
							"name": "newOwner",
							"type": "address"
						}
					],
					"name": "OwnershipTransferred",
					"type": "event"
				},
				{
					"anonymous": false,
					"inputs": [
						{
							"indexed": false,
							"internalType": "bytes32",
							"name": "messageId",
							"type": "bytes32"
						},
						{
							"indexed": true,
							"internalType": "uint64",
							"name": "destinationChainSelector",
							"type": "uint64"
						},
						{
							"indexed": true,
							"internalType": "address",
							"name": "receiver",
							"type": "address"
						},
						{
							"indexed": false,
							"internalType": "uint256",
							"name": "amount",
							"type": "uint256"
						},
						{
							"indexed": false,
							"internalType": "uint256",
							"name": "ccipFee",
							"type": "uint256"
						},
						{
							"indexed": false,
							"internalType": "address",
							"name": "token",
							"type": "address"
						}
					],
					"name": "TokenTransferred",
					"type": "event"
				},
				{
					"inputs": [],
					"name": "owner",
					"outputs": [
						{
							"internalType": "address",
							"name": "",
							"type": "address"
						}
					],
					"stateMutability": "view",
					"type": "function"
				},
				{
					"inputs": [],
					"name": "renounceOwnership",
					"outputs": [],
					"stateMutability": "nonpayable",
					"type": "function"
				},
				{
					"inputs": [
						{
							"internalType": "address",
							"name": "newOwner",
							"type": "address"
						}
					],
					"name": "transferOwnership",
					"outputs": [],
					"stateMutability": "nonpayable",
					"type": "function"
				},
				{
					"inputs": [
						{
							"internalType": "address",
							"name": "_receiver",
							"type": "address"
						},
						{
							"internalType": "uint256",
							"name": "_amount",
							"type": "uint256"
						},
						{
							"internalType": "address",
							"name": "_token",
							"type": "address"
						},
						{
							"internalType": "uint64",
							"name": "_destinationChainSelector",
							"type": "uint64"
						}
					],
					"name": "transferTokens",
					"outputs": [
						{
							"internalType": "bytes32",
							"name": "messageId",
							"type": "bytes32"
						}
					],
					"stateMutability": "nonpayable",
					"type": "function"
				},
				{
					"inputs": [
						{
							"internalType": "address",
							"name": "_beneficiary",
							"type": "address"
						},
						{
							"internalType": "address",
							"name": "_token",
							"type": "address"
						}
					],
					"name": "withdrawToken",
					"outputs": [],
					"stateMutability": "nonpayable",
					"type": "function"
				}
			],
			"devdoc": {
				"errors": {
					"OwnableInvalidOwner(address)": [
						{
							"details": "The owner is not a valid owner account. (eg. `address(0)`)"
						}
					],
					"OwnableUnauthorizedAccount(address)": [
						{
							"details": "The caller account is not authorized to perform an operation."
						}
					]
				},
				"kind": "dev",
				"methods": {
					"owner()": {
						"details": "Returns the address of the current owner."
					},
					"renounceOwnership()": {
						"details": "Leaves the contract without owner. It will not be possible to call `onlyOwner` functions. Can only be called by the current owner. NOTE: Renouncing ownership will leave the contract without an owner, thereby disabling any functionality that is only available to the owner."
					},
					"transferOwnership(address)": {
						"details": "Transfers ownership of the contract to a new account (`newOwner`). Can only be called by the current owner."
					}
				},
				"version": 1
			},
			"evm": {
				"assembly": "    /* \"contracts/CCIPChallenge.sol\":780:4002  contract CCIPChallenge is Ownable {... */\n  mstore(0x40, 0x80)\n    /* \"contracts/CCIPChallenge.sol\":1722:1758  constructor() Ownable(msg.sender) {} */\n  callvalue\n  dup1\n  iszero\n  tag_1\n  jumpi\n  revert(0x00, 0x00)\ntag_1:\n  pop\n    /* \"contracts/CCIPChallenge.sol\":1744:1754  msg.sender */\n  caller\n    /* \"@openzeppelin/contracts@5.2.0/access/Ownable.sol\":1297:1298  0 */\n  0x00\n    /* \"@openzeppelin/contracts@5.2.0/access/Ownable.sol\":1273:1299  initialOwner == address(0) */\n  0xffffffffffffffffffffffffffffffffffffffff\n  and\n    /* \"@openzeppelin/contracts@5.2.0/access/Ownable.sol\":1273:1285  initialOwner */\n  dup2\n    /* \"@openzeppelin/contracts@5.2.0/access/Ownable.sol\":1273:1299  initialOwner == address(0) */\n  0xffffffffffffffffffffffffffffffffffffffff\n  and\n  sub\n    /* \"@openzeppelin/contracts@5.2.0/access/Ownable.sol\":1269:1364  if (initialOwner == address(0)) {... */\n  tag_5\n  jumpi\n    /* \"@openzeppelin/contracts@5.2.0/access/Ownable.sol\":1350:1351  0 */\n  0x00\n    /* \"@openzeppelin/contracts@5.2.0/access/Ownable.sol\":1322:1353  OwnableInvalidOwner(address(0)) */\n  mload(0x40)\n  0x1e4fbdf700000000000000000000000000000000000000000000000000000000\n  dup2\n  mstore\n  0x04\n  add\n  tag_6\n  swap2\n  swap1\n  tag_7\n  jump\t// in\ntag_6:\n  mload(0x40)\n  dup1\n  swap2\n  sub\n  swap1\n  revert\n    /* \"@openzeppelin/contracts@5.2.0/access/Ownable.sol\":1269:1364  if (initialOwner == address(0)) {... */\ntag_5:\n    /* \"@openzeppelin/contracts@5.2.0/access/Ownable.sol\":1373:1405  _transferOwnership(initialOwner) */\n  tag_8\n    /* \"@openzeppelin/contracts@5.2.0/access/Ownable.sol\":1392:1404  initialOwner */\n  dup2\n    /* \"@openzeppelin/contracts@5.2.0/access/Ownable.sol\":1373:1391  _transferOwnership */\n  shl(0x20, tag_9)\n    /* \"@openzeppelin/contracts@5.2.0/access/Ownable.sol\":1373:1405  _transferOwnership(initialOwner) */\n  0x20\n  shr\n  jump\t// in\ntag_8:\n    /* \"@openzeppelin/contracts@5.2.0/access/Ownable.sol\":1225:1412  constructor(address initialOwner) {... */\n  pop\n    /* \"contracts/CCIPChallenge.sol\":780:4002  contract CCIPChallenge is Ownable {... */\n  jump(tag_11)\n    /* \"@openzeppelin/contracts@5.2.0/access/Ownable.sol\":2912:3099  function _transferOwnership(address newOwner) internal virtual {... */\ntag_9:\n    /* \"@openzeppelin/contracts@5.2.0/access/Ownable.sol\":2985:3001  address oldOwner */\n  0x00\n    /* \"@openzeppelin/contracts@5.2.0/access/Ownable.sol\":3004:3010  _owner */\n  0x00\n  0x00\n  swap1\n  sload\n  swap1\n  0x0100\n  exp\n  swap1\n  div\n  0xffffffffffffffffffffffffffffffffffffffff\n  and\n    /* \"@openzeppelin/contracts@5.2.0/access/Ownable.sol\":2985:3010  address oldOwner = _owner */\n  swap1\n  pop\n    /* \"@openzeppelin/contracts@5.2.0/access/Ownable.sol\":3029:3037  newOwner */\n  dup2\n    /* \"@openzeppelin/contracts@5.2.0/access/Ownable.sol\":3020:3026  _owner */\n  0x00\n  0x00\n    /* \"@openzeppelin/contracts@5.2.0/access/Ownable.sol\":3020:3037  _owner = newOwner */\n  0x0100\n  exp\n  dup2\n  sload\n  dup2\n  0xffffffffffffffffffffffffffffffffffffffff\n  mul\n  not\n  and\n  swap1\n  dup4\n  0xffffffffffffffffffffffffffffffffffffffff\n  and\n  mul\n  or\n  swap1\n  sstore\n  pop\n    /* \"@openzeppelin/contracts@5.2.0/access/Ownable.sol\":3083:3091  newOwner */\n  dup2\n    /* \"@openzeppelin/contracts@5.2.0/access/Ownable.sol\":3052:3092  OwnershipTransferred(oldOwner, newOwner) */\n  0xffffffffffffffffffffffffffffffffffffffff\n  and\n    /* \"@openzeppelin/contracts@5.2.0/access/Ownable.sol\":3073:3081  oldOwner */\n  dup2\n    /* \"@openzeppelin/contracts@5.2.0/access/Ownable.sol\":3052:3092  OwnershipTransferred(oldOwner, newOwner) */\n  0xffffffffffffffffffffffffffffffffffffffff\n  and\n  0x8be0079c531659141344cd1fd0a4f28419497f9722a3daafe3b4186f6b6457e0\n  mload(0x40)\n  mload(0x40)\n  dup1\n  swap2\n  sub\n  swap1\n  log3\n    /* \"@openzeppelin/contracts@5.2.0/access/Ownable.sol\":2975:3099  {... */\n  pop\n    /* \"@openzeppelin/contracts@5.2.0/access/Ownable.sol\":2912:3099  function _transferOwnership(address newOwner) internal virtual {... */\n  pop\n  jump\t// out\n    /* \"#utility.yul\":7:133   */\ntag_13:\n    /* \"#utility.yul\":44:51   */\n  0x00\n    /* \"#utility.yul\":84:126   */\n  0xffffffffffffffffffffffffffffffffffffffff\n    /* \"#utility.yul\":77:82   */\n  dup3\n    /* \"#utility.yul\":73:127   */\n  and\n    /* \"#utility.yul\":62:127   */\n  swap1\n  pop\n    /* \"#utility.yul\":7:133   */\n  swap2\n  swap1\n  pop\n  jump\t// out\n    /* \"#utility.yul\":139:235   */\ntag_14:\n    /* \"#utility.yul\":176:183   */\n  0x00\n    /* \"#utility.yul\":205:229   */\n  tag_19\n    /* \"#utility.yul\":223:228   */\n  dup3\n    /* \"#utility.yul\":205:229   */\n  tag_13\n  jump\t// in\ntag_19:\n    /* \"#utility.yul\":194:229   */\n  swap1\n  pop\n    /* \"#utility.yul\":139:235   */\n  swap2\n  swap1\n  pop\n  jump\t// out\n    /* \"#utility.yul\":241:359   */\ntag_15:\n    /* \"#utility.yul\":328:352   */\n  tag_21\n    /* \"#utility.yul\":346:351   */\n  dup2\n    /* \"#utility.yul\":328:352   */\n  tag_14\n  jump\t// in\ntag_21:\n    /* \"#utility.yul\":323:326   */\n  dup3\n    /* \"#utility.yul\":316:353   */\n  mstore\n    /* \"#utility.yul\":241:359   */\n  pop\n  pop\n  jump\t// out\n    /* \"#utility.yul\":365:587   */\ntag_7:\n    /* \"#utility.yul\":458:462   */\n  0x00\n    /* \"#utility.yul\":496:498   */\n  0x20\n    /* \"#utility.yul\":485:494   */\n  dup3\n    /* \"#utility.yul\":481:499   */\n  add\n    /* \"#utility.yul\":473:499   */\n  swap1\n  pop\n    /* \"#utility.yul\":509:580   */\n  tag_23\n    /* \"#utility.yul\":577:578   */\n  0x00\n    /* \"#utility.yul\":566:575   */\n  dup4\n    /* \"#utility.yul\":562:579   */\n  add\n    /* \"#utility.yul\":553:559   */\n  dup5\n    /* \"#utility.yul\":509:580   */\n  tag_15\n  jump\t// in\ntag_23:\n    /* \"#utility.yul\":365:587   */\n  swap3\n  swap2\n  pop\n  pop\n  jump\t// out\n    /* \"contracts/CCIPChallenge.sol\":780:4002  contract CCIPChallenge is Ownable {... */\ntag_11:\n  dataSize(sub_0)\n  dup1\n  dataOffset(sub_0)\n  0x00\n  codecopy\n  0x00\n  return\nstop\n\nsub_0: assembly {\n        /* \"contracts/CCIPChallenge.sol\":780:4002  contract CCIPChallenge is Ownable {... */\n      mstore(0x40, 0x80)\n      callvalue\n      dup1\n      iszero\n      tag_1\n      jumpi\n      revert(0x00, 0x00)\n    tag_1:\n      pop\n      jumpi(tag_2, lt(calldatasize, 0x04))\n      shr(0xe0, calldataload(0x00))\n      dup1\n      0x3aeac4e1\n      eq\n      tag_3\n      jumpi\n      dup1\n      0x715018a6\n      eq\n      tag_4\n      jumpi\n      dup1\n      0x8da5cb5b\n      eq\n      tag_5\n      jumpi\n      dup1\n      0x97d317f6\n      eq\n      tag_6\n      jumpi\n      dup1\n      0xf2fde38b\n      eq\n      tag_7\n      jumpi\n    tag_2:\n      revert(0x00, 0x00)\n        /* \"contracts/CCIPChallenge.sol\":3658:3999  function withdrawToken(... */\n    tag_3:\n      tag_8\n      0x04\n      dup1\n      calldatasize\n      sub\n      dup2\n      add\n      swap1\n      tag_9\n      swap2\n      swap1\n      tag_10\n      jump\t// in\n    tag_9:\n      tag_11\n      jump\t// in\n    tag_8:\n      stop\n        /* \"@openzeppelin/contracts@5.2.0/access/Ownable.sol\":2293:2394  function renounceOwnership() public virtual onlyOwner {... */\n    tag_4:\n      tag_12\n      tag_13\n      jump\t// in\n    tag_12:\n      stop\n        /* \"@openzeppelin/contracts@5.2.0/access/Ownable.sol\":1638:1723  function owner() public view virtual returns (address) {... */\n    tag_5:\n      tag_14\n      tag_15\n      jump\t// in\n    tag_14:\n      mload(0x40)\n      tag_16\n      swap2\n      swap1\n      tag_17\n      jump\t// in\n    tag_16:\n      mload(0x40)\n      dup1\n      swap2\n      sub\n      swap1\n      return\n        /* \"contracts/CCIPChallenge.sol\":1766:3650  function transferTokens(... */\n    tag_6:\n      tag_18\n      0x04\n      dup1\n      calldatasize\n      sub\n      dup2\n      add\n      swap1\n      tag_19\n      swap2\n      swap1\n      tag_20\n      jump\t// in\n    tag_19:\n      tag_21\n      jump\t// in\n    tag_18:\n      mload(0x40)\n      tag_22\n      swap2\n      swap1\n      tag_23\n      jump\t// in\n    tag_22:\n      mload(0x40)\n      dup1\n      swap2\n      sub\n      swap1\n      return\n        /* \"@openzeppelin/contracts@5.2.0/access/Ownable.sol\":2543:2758  function transferOwnership(address newOwner) public virtual onlyOwner {... */\n    tag_7:\n      tag_24\n      0x04\n      dup1\n      calldatasize\n      sub\n      dup2\n      add\n      swap1\n      tag_25\n      swap2\n      swap1\n      tag_26\n      jump\t// in\n    tag_25:\n      tag_27\n      jump\t// in\n    tag_24:\n      stop\n        /* \"contracts/CCIPChallenge.sol\":3658:3999  function withdrawToken(... */\n    tag_11:\n        /* \"@openzeppelin/contracts@5.2.0/access/Ownable.sol\":1531:1544  _checkOwner() */\n      tag_29\n        /* \"@openzeppelin/contracts@5.2.0/access/Ownable.sol\":1531:1542  _checkOwner */\n      tag_30\n        /* \"@openzeppelin/contracts@5.2.0/access/Ownable.sol\":1531:1544  _checkOwner() */\n      jump\t// in\n    tag_29:\n        /* \"contracts/CCIPChallenge.sol\":3772:3784  IERC20 TOKEN */\n      0x00\n        /* \"contracts/CCIPChallenge.sol\":3794:3800  _token */\n      dup2\n        /* \"contracts/CCIPChallenge.sol\":3772:3801  IERC20 TOKEN = IERC20(_token) */\n      swap1\n      pop\n        /* \"contracts/CCIPChallenge.sol\":3812:3826  uint256 amount */\n      0x00\n        /* \"contracts/CCIPChallenge.sol\":3836:3841  TOKEN */\n      dup2\n        /* \"contracts/CCIPChallenge.sol\":3829:3852  IERC20(TOKEN).balanceOf */\n      0xffffffffffffffffffffffffffffffffffffffff\n      and\n      0x70a08231\n        /* \"contracts/CCIPChallenge.sol\":3861:3865  this */\n      address\n        /* \"contracts/CCIPChallenge.sol\":3829:3867  IERC20(TOKEN).balanceOf(address(this)) */\n      mload(0x40)\n      dup3\n      0xffffffff\n      and\n      0xe0\n      shl\n      dup2\n      mstore\n      0x04\n      add\n      tag_32\n      swap2\n      swap1\n      tag_17\n      jump\t// in\n    tag_32:\n      0x20\n      mload(0x40)\n      dup1\n      dup4\n      sub\n      dup2\n      dup7\n      gas\n      staticcall\n      iszero\n      dup1\n      iszero\n      tag_34\n      jumpi\n      returndatacopy(0x00, 0x00, returndatasize)\n      revert(0x00, returndatasize)\n    tag_34:\n      pop\n      pop\n      pop\n      pop\n      mload(0x40)\n      returndatasize\n      not(0x1f)\n      0x1f\n      dup3\n      add\n      and\n      dup3\n      add\n      dup1\n      0x40\n      mstore\n      pop\n      dup2\n      add\n      swap1\n      tag_35\n      swap2\n      swap1\n      tag_36\n      jump\t// in\n    tag_35:\n        /* \"contracts/CCIPChallenge.sol\":3812:3867  uint256 amount = IERC20(TOKEN).balanceOf(address(this)) */\n      swap1\n      pop\n        /* \"contracts/CCIPChallenge.sol\":3892:3893  0 */\n      0x00\n        /* \"contracts/CCIPChallenge.sol\":3882:3888  amount */\n      dup2\n        /* \"contracts/CCIPChallenge.sol\":3882:3893  amount == 0 */\n      sub\n        /* \"contracts/CCIPChallenge.sol\":3878:3936  if (amount == 0) revert CCIPChallenge__NothingToWithdraw() */\n      tag_37\n      jumpi\n        /* \"contracts/CCIPChallenge.sol\":3902:3936  CCIPChallenge__NothingToWithdraw() */\n      mload(0x40)\n      0xc928195a00000000000000000000000000000000000000000000000000000000\n      dup2\n      mstore\n      0x04\n      add\n      mload(0x40)\n      dup1\n      swap2\n      sub\n      swap1\n      revert\n        /* \"contracts/CCIPChallenge.sol\":3878:3936  if (amount == 0) revert CCIPChallenge__NothingToWithdraw() */\n    tag_37:\n        /* \"contracts/CCIPChallenge.sol\":3954:3959  TOKEN */\n      dup2\n        /* \"contracts/CCIPChallenge.sol\":3947:3969  IERC20(TOKEN).transfer */\n      0xffffffffffffffffffffffffffffffffffffffff\n      and\n      0xa9059cbb\n        /* \"contracts/CCIPChallenge.sol\":3970:3982  _beneficiary */\n      dup6\n        /* \"contracts/CCIPChallenge.sol\":3984:3990  amount */\n      dup4\n        /* \"contracts/CCIPChallenge.sol\":3947:3991  IERC20(TOKEN).transfer(_beneficiary, amount) */\n      mload(0x40)\n      dup4\n      0xffffffff\n      and\n      0xe0\n      shl\n      dup2\n      mstore\n      0x04\n      add\n      tag_38\n      swap3\n      swap2\n      swap1\n      tag_39\n      jump\t// in\n    tag_38:\n      0x20\n      mload(0x40)\n      dup1\n      dup4\n      sub\n      dup2\n      0x00\n      dup8\n      gas\n      call\n      iszero\n      dup1\n      iszero\n      tag_41\n      jumpi\n      returndatacopy(0x00, 0x00, returndatasize)\n      revert(0x00, returndatasize)\n    tag_41:\n      pop\n      pop\n      pop\n      pop\n      mload(0x40)\n      returndatasize\n      not(0x1f)\n      0x1f\n      dup3\n      add\n      and\n      dup3\n      add\n      dup1\n      0x40\n      mstore\n      pop\n      dup2\n      add\n      swap1\n      tag_42\n      swap2\n      swap1\n      tag_43\n      jump\t// in\n    tag_42:\n      pop\n        /* \"contracts/CCIPChallenge.sol\":3761:3999  {... */\n      pop\n      pop\n        /* \"contracts/CCIPChallenge.sol\":3658:3999  function withdrawToken(... */\n      pop\n      pop\n      jump\t// out\n        /* \"@openzeppelin/contracts@5.2.0/access/Ownable.sol\":2293:2394  function renounceOwnership() public virtual onlyOwner {... */\n    tag_13:\n        /* \"@openzeppelin/contracts@5.2.0/access/Ownable.sol\":1531:1544  _checkOwner() */\n      tag_45\n        /* \"@openzeppelin/contracts@5.2.0/access/Ownable.sol\":1531:1542  _checkOwner */\n      tag_30\n        /* \"@openzeppelin/contracts@5.2.0/access/Ownable.sol\":1531:1544  _checkOwner() */\n      jump\t// in\n    tag_45:\n        /* \"@openzeppelin/contracts@5.2.0/access/Ownable.sol\":2357:2387  _transferOwnership(address(0)) */\n      tag_47\n        /* \"@openzeppelin/contracts@5.2.0/access/Ownable.sol\":2384:2385  0 */\n      0x00\n        /* \"@openzeppelin/contracts@5.2.0/access/Ownable.sol\":2357:2375  _transferOwnership */\n      tag_48\n        /* \"@openzeppelin/contracts@5.2.0/access/Ownable.sol\":2357:2387  _transferOwnership(address(0)) */\n      jump\t// in\n    tag_47:\n        /* \"@openzeppelin/contracts@5.2.0/access/Ownable.sol\":2293:2394  function renounceOwnership() public virtual onlyOwner {... */\n      jump\t// out\n        /* \"@openzeppelin/contracts@5.2.0/access/Ownable.sol\":1638:1723  function owner() public view virtual returns (address) {... */\n    tag_15:\n        /* \"@openzeppelin/contracts@5.2.0/access/Ownable.sol\":1684:1691  address */\n      0x00\n        /* \"@openzeppelin/contracts@5.2.0/access/Ownable.sol\":1710:1716  _owner */\n      0x00\n      0x00\n      swap1\n      sload\n      swap1\n      0x0100\n      exp\n      swap1\n      div\n      0xffffffffffffffffffffffffffffffffffffffff\n      and\n        /* \"@openzeppelin/contracts@5.2.0/access/Ownable.sol\":1703:1716  return _owner */\n      swap1\n      pop\n        /* \"@openzeppelin/contracts@5.2.0/access/Ownable.sol\":1638:1723  function owner() public view virtual returns (address) {... */\n      swap1\n      jump\t// out\n        /* \"contracts/CCIPChallenge.sol\":1766:3650  function transferTokens(... */\n    tag_21:\n        /* \"contracts/CCIPChallenge.sol\":1955:1972  bytes32 messageId */\n      0x00\n        /* \"contracts/CCIPChallenge.sol\":1990:2002  IERC20 TOKEN */\n      0x00\n        /* \"contracts/CCIPChallenge.sol\":2012:2018  _token */\n      dup4\n        /* \"contracts/CCIPChallenge.sol\":1990:2019  IERC20 TOKEN = IERC20(_token) */\n      swap1\n      pop\n        /* \"contracts/CCIPChallenge.sol\":2044:2049  TOKEN */\n      dup1\n        /* \"contracts/CCIPChallenge.sol\":2044:2059  TOKEN.balanceOf */\n      0xffffffffffffffffffffffffffffffffffffffff\n      and\n      0x70a08231\n        /* \"contracts/CCIPChallenge.sol\":2060:2070  msg.sender */\n      caller\n        /* \"contracts/CCIPChallenge.sol\":2044:2071  TOKEN.balanceOf(msg.sender) */\n      mload(0x40)\n      dup3\n      0xffffffff\n      and\n      0xe0\n      shl\n      dup2\n      mstore\n      0x04\n      add\n      tag_51\n      swap2\n      swap1\n      tag_17\n      jump\t// in\n    tag_51:\n      0x20\n      mload(0x40)\n      dup1\n      dup4\n      sub\n      dup2\n      dup7\n      gas\n      staticcall\n      iszero\n      dup1\n      iszero\n      tag_53\n      jumpi\n      returndatacopy(0x00, 0x00, returndatasize)\n      revert(0x00, returndatasize)\n    tag_53:\n      pop\n      pop\n      pop\n      pop\n      mload(0x40)\n      returndatasize\n      not(0x1f)\n      0x1f\n      dup3\n      add\n      and\n      dup3\n      add\n      dup1\n      0x40\n      mstore\n      pop\n      dup2\n      add\n      swap1\n      tag_54\n      swap2\n      swap1\n      tag_36\n      jump\t// in\n    tag_54:\n        /* \"contracts/CCIPChallenge.sol\":2034:2041  _amount */\n      dup6\n        /* \"contracts/CCIPChallenge.sol\":2034:2071  _amount > TOKEN.balanceOf(msg.sender) */\n      gt\n        /* \"contracts/CCIPChallenge.sol\":2030:2186  if (_amount > TOKEN.balanceOf(msg.sender)) {... */\n      iszero\n      tag_55\n      jumpi\n        /* \"contracts/CCIPChallenge.sol\":2130:2135  TOKEN */\n      dup1\n        /* \"contracts/CCIPChallenge.sol\":2137:2142  TOKEN */\n      dup2\n        /* \"contracts/CCIPChallenge.sol\":2137:2152  TOKEN.balanceOf */\n      0xffffffffffffffffffffffffffffffffffffffff\n      and\n      0x70a08231\n        /* \"contracts/CCIPChallenge.sol\":2153:2163  msg.sender */\n      caller\n        /* \"contracts/CCIPChallenge.sol\":2137:2164  TOKEN.balanceOf(msg.sender) */\n      mload(0x40)\n      dup3\n      0xffffffff\n      and\n      0xe0\n      shl\n      dup2\n      mstore\n      0x04\n      add\n      tag_56\n      swap2\n      swap1\n      tag_17\n      jump\t// in\n    tag_56:\n      0x20\n      mload(0x40)\n      dup1\n      dup4\n      sub\n      dup2\n      dup7\n      gas\n      staticcall\n      iszero\n      dup1\n      iszero\n      tag_58\n      jumpi\n      returndatacopy(0x00, 0x00, returndatasize)\n      revert(0x00, returndatasize)\n    tag_58:\n      pop\n      pop\n      pop\n      pop\n      mload(0x40)\n      returndatasize\n      not(0x1f)\n      0x1f\n      dup3\n      add\n      and\n      dup3\n      add\n      dup1\n      0x40\n      mstore\n      pop\n      dup2\n      add\n      swap1\n      tag_59\n      swap2\n      swap1\n      tag_36\n      jump\t// in\n    tag_59:\n        /* \"contracts/CCIPChallenge.sol\":2166:2173  _amount */\n      dup7\n        /* \"contracts/CCIPChallenge.sol\":2095:2174  CCIPChallenge__InsufficientBalance(TOKEN, TOKEN.balanceOf(msg.sender), _amount) */\n      mload(0x40)\n      0xb6afa83300000000000000000000000000000000000000000000000000000000\n      dup2\n      mstore\n      0x04\n      add\n      tag_60\n      swap4\n      swap3\n      swap2\n      swap1\n      tag_61\n      jump\t// in\n    tag_60:\n      mload(0x40)\n      dup1\n      swap2\n      sub\n      swap1\n      revert\n        /* \"contracts/CCIPChallenge.sol\":2030:2186  if (_amount > TOKEN.balanceOf(msg.sender)) {... */\n    tag_55:\n        /* \"contracts/CCIPChallenge.sol\":2196:2252  Client.EVMTokenAmount[]... */\n      0x00\n        /* \"contracts/CCIPChallenge.sol\":2283:2284  1 */\n      0x01\n        /* \"contracts/CCIPChallenge.sol\":2255:2285  new Client.EVMTokenAmount[](1) */\n      0xffffffffffffffff\n      dup2\n      gt\n      iszero\n      tag_62\n      jumpi\n      tag_63\n      tag_64\n      jump\t// in\n    tag_63:\n    tag_62:\n      mload(0x40)\n      swap1\n      dup1\n      dup3\n      mstore\n      dup1\n      0x20\n      mul\n      0x20\n      add\n      dup3\n      add\n      0x40\n      mstore\n      dup1\n      iszero\n      tag_65\n      jumpi\n      dup2\n      0x20\n      add\n    tag_66:\n      tag_67\n      tag_68\n      jump\t// in\n    tag_67:\n      dup2\n      mstore\n      0x20\n      add\n      swap1\n      0x01\n      swap1\n      sub\n      swap1\n      dup2\n      tag_66\n      jumpi\n      swap1\n      pop\n    tag_65:\n      pop\n        /* \"contracts/CCIPChallenge.sol\":2196:2285  Client.EVMTokenAmount[]... */\n      swap1\n      pop\n        /* \"contracts/CCIPChallenge.sol\":2296:2336  Client.EVMTokenAmount memory tokenAmount */\n      0x00\n        /* \"contracts/CCIPChallenge.sol\":2339:2439  Client.EVMTokenAmount({... */\n      mload(0x40)\n      dup1\n      0x40\n      add\n      0x40\n      mstore\n      dup1\n        /* \"contracts/CCIPChallenge.sol\":2391:2396  TOKEN */\n      dup5\n        /* \"contracts/CCIPChallenge.sol\":2339:2439  Client.EVMTokenAmount({... */\n      0xffffffffffffffffffffffffffffffffffffffff\n      and\n      dup2\n      mstore\n      0x20\n      add\n        /* \"contracts/CCIPChallenge.sol\":2420:2427  _amount */\n      dup9\n        /* \"contracts/CCIPChallenge.sol\":2339:2439  Client.EVMTokenAmount({... */\n      dup2\n      mstore\n      pop\n        /* \"contracts/CCIPChallenge.sol\":2296:2439  Client.EVMTokenAmount memory tokenAmount = Client.EVMTokenAmount({... */\n      swap1\n      pop\n        /* \"contracts/CCIPChallenge.sol\":2468:2479  tokenAmount */\n      dup1\n        /* \"contracts/CCIPChallenge.sol\":2450:2462  tokenAmounts */\n      dup3\n        /* \"contracts/CCIPChallenge.sol\":2463:2464  0 */\n      0x00\n        /* \"contracts/CCIPChallenge.sol\":2450:2465  tokenAmounts[0] */\n      dup2\n      mload\n      dup2\n      lt\n      tag_69\n      jumpi\n      tag_70\n      tag_71\n      jump\t// in\n    tag_70:\n    tag_69:\n      0x20\n      mul\n      0x20\n      add\n      add\n        /* \"contracts/CCIPChallenge.sol\":2450:2479  tokenAmounts[0] = tokenAmount */\n      dup2\n      swap1\n      mstore\n      pop\n        /* \"contracts/CCIPChallenge.sol\":2492:2528  Client.EVM2AnyMessage memory message */\n      0x00\n        /* \"contracts/CCIPChallenge.sol\":2531:2834  Client.EVM2AnyMessage({... */\n      mload(0x40)\n      dup1\n      0xa0\n      add\n      0x40\n      mstore\n      dup1\n        /* \"contracts/CCIPChallenge.sol\":2589:2598  _receiver */\n      dup11\n        /* \"contracts/CCIPChallenge.sol\":2578:2599  abi.encode(_receiver) */\n      add(0x20, mload(0x40))\n      tag_72\n      swap2\n      swap1\n      tag_17\n      jump\t// in\n    tag_72:\n      mload(0x40)\n      0x20\n      dup2\n      dup4\n      sub\n      sub\n      dup2\n      mstore\n      swap1\n      0x40\n      mstore\n        /* \"contracts/CCIPChallenge.sol\":2531:2834  Client.EVM2AnyMessage({... */\n      dup2\n      mstore\n      0x20\n      add\n      mload(0x40)\n      dup1\n      0x20\n      add\n      0x40\n      mstore\n      dup1\n      0x00\n      dup2\n      mstore\n      pop\n      dup2\n      mstore\n      0x20\n      add\n        /* \"contracts/CCIPChallenge.sol\":2651:2663  tokenAmounts */\n      dup5\n        /* \"contracts/CCIPChallenge.sol\":2531:2834  Client.EVM2AnyMessage({... */\n      dup2\n      mstore\n      0x20\n      add\n        /* \"contracts/CCIPChallenge.sol\":1351:1393  0x779877A7B0D9E8603169DdbD7836e478b4624789 */\n      0x779877a7b0d9e8603169ddbd7836e478b4624789\n        /* \"contracts/CCIPChallenge.sol\":2531:2834  Client.EVM2AnyMessage({... */\n      0xffffffffffffffffffffffffffffffffffffffff\n      and\n      dup2\n      mstore\n      0x20\n      add\n        /* \"contracts/CCIPChallenge.sol\":2689:2778  Client._argsToBytes(... */\n      tag_73\n        /* \"contracts/CCIPChallenge.sol\":2727:2763  Client.EVMExtraArgsV1({gasLimit: 0}) */\n      mload(0x40)\n      dup1\n      0x20\n      add\n      0x40\n      mstore\n      dup1\n        /* \"contracts/CCIPChallenge.sol\":2760:2761  0 */\n      0x00\n        /* \"contracts/CCIPChallenge.sol\":2727:2763  Client.EVMExtraArgsV1({gasLimit: 0}) */\n      dup2\n      mstore\n      pop\n        /* \"contracts/CCIPChallenge.sol\":2689:2708  Client._argsToBytes */\n      tag_74\n        /* \"contracts/CCIPChallenge.sol\":2689:2778  Client._argsToBytes(... */\n      jump\t// in\n    tag_73:\n        /* \"contracts/CCIPChallenge.sol\":2531:2834  Client.EVM2AnyMessage({... */\n      dup2\n      mstore\n      pop\n        /* \"contracts/CCIPChallenge.sol\":2492:2834  Client.EVM2AnyMessage memory message = Client.EVM2AnyMessage({... */\n      swap1\n      pop\n        /* \"contracts/CCIPChallenge.sol\":2847:2862  uint256 ccipFee */\n      0x00\n        /* \"contracts/CCIPChallenge.sol\":1169:1211  0x0BF3dE8c5D3e8A2B34D2BEeB17ABfCeBaf363A59 */\n      0x0bf3de8c5d3e8a2b34d2beeb17abfcebaf363a59\n        /* \"contracts/CCIPChallenge.sol\":2865:2883  CCIP_ROUTER.getFee */\n      0xffffffffffffffffffffffffffffffffffffffff\n      and\n      0x20487ded\n        /* \"contracts/CCIPChallenge.sol\":2898:2923  _destinationChainSelector */\n      dup9\n        /* \"contracts/CCIPChallenge.sol\":2938:2945  message */\n      dup5\n        /* \"contracts/CCIPChallenge.sol\":2865:2956  CCIP_ROUTER.getFee(... */\n      mload(0x40)\n      dup4\n      0xffffffff\n      and\n      0xe0\n      shl\n      dup2\n      mstore\n      0x04\n      add\n      tag_75\n      swap3\n      swap2\n      swap1\n      tag_76\n      jump\t// in\n    tag_75:\n      0x20\n      mload(0x40)\n      dup1\n      dup4\n      sub\n      dup2\n      dup7\n      gas\n      staticcall\n      iszero\n      dup1\n      iszero\n      tag_78\n      jumpi\n      returndatacopy(0x00, 0x00, returndatasize)\n      revert(0x00, returndatasize)\n    tag_78:\n      pop\n      pop\n      pop\n      pop\n      mload(0x40)\n      returndatasize\n      not(0x1f)\n      0x1f\n      dup3\n      add\n      and\n      dup3\n      add\n      dup1\n      0x40\n      mstore\n      pop\n      dup2\n      add\n      swap1\n      tag_79\n      swap2\n      swap1\n      tag_36\n      jump\t// in\n    tag_79:\n        /* \"contracts/CCIPChallenge.sol\":2847:2956  uint256 ccipFee = CCIP_ROUTER.getFee(... */\n      swap1\n      pop\n        /* \"contracts/CCIPChallenge.sol\":1351:1393  0x779877A7B0D9E8603169DdbD7836e478b4624789 */\n      0x779877a7b0d9e8603169ddbd7836e478b4624789\n        /* \"contracts/CCIPChallenge.sol\":2983:3003  LINK_TOKEN.balanceOf */\n      0xffffffffffffffffffffffffffffffffffffffff\n      and\n      0x70a08231\n        /* \"contracts/CCIPChallenge.sol\":3012:3016  this */\n      address\n        /* \"contracts/CCIPChallenge.sol\":2983:3018  LINK_TOKEN.balanceOf(address(this)) */\n      mload(0x40)\n      dup3\n      0xffffffff\n      and\n      0xe0\n      shl\n      dup2\n      mstore\n      0x04\n      add\n      tag_80\n      swap2\n      swap1\n      tag_17\n      jump\t// in\n    tag_80:\n      0x20\n      mload(0x40)\n      dup1\n      dup4\n      sub\n      dup2\n      dup7\n      gas\n      staticcall\n      iszero\n      dup1\n      iszero\n      tag_82\n      jumpi\n      returndatacopy(0x00, 0x00, returndatasize)\n      revert(0x00, returndatasize)\n    tag_82:\n      pop\n      pop\n      pop\n      pop\n      mload(0x40)\n      returndatasize\n      not(0x1f)\n      0x1f\n      dup3\n      add\n      and\n      dup3\n      add\n      dup1\n      0x40\n      mstore\n      pop\n      dup2\n      add\n      swap1\n      tag_83\n      swap2\n      swap1\n      tag_36\n      jump\t// in\n    tag_83:\n        /* \"contracts/CCIPChallenge.sol\":2973:2980  ccipFee */\n      dup2\n        /* \"contracts/CCIPChallenge.sol\":2973:3018  ccipFee > LINK_TOKEN.balanceOf(address(this)) */\n      gt\n        /* \"contracts/CCIPChallenge.sol\":2969:3146  if (ccipFee > LINK_TOKEN.balanceOf(address(this))) {... */\n      iszero\n      tag_84\n      jumpi\n        /* \"contracts/CCIPChallenge.sol\":1351:1393  0x779877A7B0D9E8603169DdbD7836e478b4624789 */\n      0x779877a7b0d9e8603169ddbd7836e478b4624789\n      dup1\n        /* \"contracts/CCIPChallenge.sol\":3089:3109  LINK_TOKEN.balanceOf */\n      0xffffffffffffffffffffffffffffffffffffffff\n      and\n      0x70a08231\n        /* \"contracts/CCIPChallenge.sol\":3118:3122  this */\n      address\n        /* \"contracts/CCIPChallenge.sol\":3089:3124  LINK_TOKEN.balanceOf(address(this)) */\n      mload(0x40)\n      dup3\n      0xffffffff\n      and\n      0xe0\n      shl\n      dup2\n      mstore\n      0x04\n      add\n      tag_85\n      swap2\n      swap1\n      tag_17\n      jump\t// in\n    tag_85:\n      0x20\n      mload(0x40)\n      dup1\n      dup4\n      sub\n      dup2\n      dup7\n      gas\n      staticcall\n      iszero\n      dup1\n      iszero\n      tag_87\n      jumpi\n      returndatacopy(0x00, 0x00, returndatasize)\n      revert(0x00, returndatasize)\n    tag_87:\n      pop\n      pop\n      pop\n      pop\n      mload(0x40)\n      returndatasize\n      not(0x1f)\n      0x1f\n      dup3\n      add\n      and\n      dup3\n      add\n      dup1\n      0x40\n      mstore\n      pop\n      dup2\n      add\n      swap1\n      tag_88\n      swap2\n      swap1\n      tag_36\n      jump\t// in\n    tag_88:\n        /* \"contracts/CCIPChallenge.sol\":3126:3133  ccipFee */\n      dup3\n        /* \"contracts/CCIPChallenge.sol\":3042:3134  CCIPChallenge__InsufficientBalance(LINK_TOKEN, LINK_TOKEN.balanceOf(address(this)), ccipFee) */\n      mload(0x40)\n      0xb6afa83300000000000000000000000000000000000000000000000000000000\n      dup2\n      mstore\n      0x04\n      add\n      tag_89\n      swap4\n      swap3\n      swap2\n      swap1\n      tag_61\n      jump\t// in\n    tag_89:\n      mload(0x40)\n      dup1\n      swap2\n      sub\n      swap1\n      revert\n        /* \"contracts/CCIPChallenge.sol\":2969:3146  if (ccipFee > LINK_TOKEN.balanceOf(address(this))) {... */\n    tag_84:\n        /* \"contracts/CCIPChallenge.sol\":1351:1393  0x779877A7B0D9E8603169DdbD7836e478b4624789 */\n      0x779877a7b0d9e8603169ddbd7836e478b4624789\n        /* \"contracts/CCIPChallenge.sol\":3158:3176  LINK_TOKEN.approve */\n      0xffffffffffffffffffffffffffffffffffffffff\n      and\n      0x095ea7b3\n        /* \"contracts/CCIPChallenge.sol\":1169:1211  0x0BF3dE8c5D3e8A2B34D2BEeB17ABfCeBaf363A59 */\n      0x0bf3de8c5d3e8a2b34d2beeb17abfcebaf363a59\n        /* \"contracts/CCIPChallenge.sol\":3199:3206  ccipFee */\n      dup4\n        /* \"contracts/CCIPChallenge.sol\":3158:3207  LINK_TOKEN.approve(address(CCIP_ROUTER), ccipFee) */\n      mload(0x40)\n      dup4\n      0xffffffff\n      and\n      0xe0\n      shl\n      dup2\n      mstore\n      0x04\n      add\n      tag_90\n      swap3\n      swap2\n      swap1\n      tag_39\n      jump\t// in\n    tag_90:\n      0x20\n      mload(0x40)\n      dup1\n      dup4\n      sub\n      dup2\n      0x00\n      dup8\n      gas\n      call\n      iszero\n      dup1\n      iszero\n      tag_92\n      jumpi\n      returndatacopy(0x00, 0x00, returndatasize)\n      revert(0x00, returndatasize)\n    tag_92:\n      pop\n      pop\n      pop\n      pop\n      mload(0x40)\n      returndatasize\n      not(0x1f)\n      0x1f\n      dup3\n      add\n      and\n      dup3\n      add\n      dup1\n      0x40\n      mstore\n      pop\n      dup2\n      add\n      swap1\n      tag_93\n      swap2\n      swap1\n      tag_43\n      jump\t// in\n    tag_93:\n      pop\n        /* \"contracts/CCIPChallenge.sol\":3220:3278  TOKEN.safeTransferFrom(msg.sender, address(this), _amount) */\n      tag_94\n        /* \"contracts/CCIPChallenge.sol\":3243:3253  msg.sender */\n      caller\n        /* \"contracts/CCIPChallenge.sol\":3263:3267  this */\n      address\n        /* \"contracts/CCIPChallenge.sol\":3270:3277  _amount */\n      dup12\n        /* \"contracts/CCIPChallenge.sol\":3220:3225  TOKEN */\n      dup9\n        /* \"contracts/CCIPChallenge.sol\":3220:3242  TOKEN.safeTransferFrom */\n      0xffffffffffffffffffffffffffffffffffffffff\n      and\n      tag_95\n      swap1\n        /* \"contracts/CCIPChallenge.sol\":3220:3278  TOKEN.safeTransferFrom(msg.sender, address(this), _amount) */\n      swap4\n      swap3\n      swap2\n      swap1\n      0xffffffff\n      and\n      jump\t// in\n    tag_94:\n        /* \"contracts/CCIPChallenge.sol\":3289:3294  TOKEN */\n      dup5\n        /* \"contracts/CCIPChallenge.sol\":3289:3302  TOKEN.approve */\n      0xffffffffffffffffffffffffffffffffffffffff\n      and\n      0x095ea7b3\n        /* \"contracts/CCIPChallenge.sol\":1169:1211  0x0BF3dE8c5D3e8A2B34D2BEeB17ABfCeBaf363A59 */\n      0x0bf3de8c5d3e8a2b34d2beeb17abfcebaf363a59\n        /* \"contracts/CCIPChallenge.sol\":3325:3332  _amount */\n      dup12\n        /* \"contracts/CCIPChallenge.sol\":3289:3333  TOKEN.approve(address(CCIP_ROUTER), _amount) */\n      mload(0x40)\n      dup4\n      0xffffffff\n      and\n      0xe0\n      shl\n      dup2\n      mstore\n      0x04\n      add\n      tag_96\n      swap3\n      swap2\n      swap1\n      tag_39\n      jump\t// in\n    tag_96:\n      0x20\n      mload(0x40)\n      dup1\n      dup4\n      sub\n      dup2\n      0x00\n      dup8\n      gas\n      call\n      iszero\n      dup1\n      iszero\n      tag_98\n      jumpi\n      returndatacopy(0x00, 0x00, returndatasize)\n      revert(0x00, returndatasize)\n    tag_98:\n      pop\n      pop\n      pop\n      pop\n      mload(0x40)\n      returndatasize\n      not(0x1f)\n      0x1f\n      dup3\n      add\n      and\n      dup3\n      add\n      dup1\n      0x40\n      mstore\n      pop\n      dup2\n      add\n      swap1\n      tag_99\n      swap2\n      swap1\n      tag_43\n      jump\t// in\n    tag_99:\n      pop\n        /* \"contracts/CCIPChallenge.sol\":1169:1211  0x0BF3dE8c5D3e8A2B34D2BEeB17ABfCeBaf363A59 */\n      0x0bf3de8c5d3e8a2b34d2beeb17abfcebaf363a59\n        /* \"contracts/CCIPChallenge.sol\":3388:3408  CCIP_ROUTER.ccipSend */\n      0xffffffffffffffffffffffffffffffffffffffff\n      and\n      0x96f4e9f9\n        /* \"contracts/CCIPChallenge.sol\":3409:3434  _destinationChainSelector */\n      dup9\n        /* \"contracts/CCIPChallenge.sol\":3436:3443  message */\n      dup5\n        /* \"contracts/CCIPChallenge.sol\":3388:3444  CCIP_ROUTER.ccipSend(_destinationChainSelector, message) */\n      mload(0x40)\n      dup4\n      0xffffffff\n      and\n      0xe0\n      shl\n      dup2\n      mstore\n      0x04\n      add\n      tag_100\n      swap3\n      swap2\n      swap1\n      tag_76\n      jump\t// in\n    tag_100:\n      0x20\n      mload(0x40)\n      dup1\n      dup4\n      sub\n      dup2\n      0x00\n      dup8\n      gas\n      call\n      iszero\n      dup1\n      iszero\n      tag_102\n      jumpi\n      returndatacopy(0x00, 0x00, returndatasize)\n      revert(0x00, returndatasize)\n    tag_102:\n      pop\n      pop\n      pop\n      pop\n      mload(0x40)\n      returndatasize\n      not(0x1f)\n      0x1f\n      dup3\n      add\n      and\n      dup3\n      add\n      dup1\n      0x40\n      mstore\n      pop\n      dup2\n      add\n      swap1\n      tag_103\n      swap2\n      swap1\n      tag_104\n      jump\t// in\n    tag_103:\n        /* \"contracts/CCIPChallenge.sol\":3376:3444  messageId = CCIP_ROUTER.ccipSend(_destinationChainSelector, message) */\n      swap6\n      pop\n        /* \"contracts/CCIPChallenge.sol\":3557:3566  _receiver */\n      dup10\n        /* \"contracts/CCIPChallenge.sol\":3462:3642  TokenTransferred(... */\n      0xffffffffffffffffffffffffffffffffffffffff\n      and\n        /* \"contracts/CCIPChallenge.sol\":3517:3542  _destinationChainSelector */\n      dup8\n        /* \"contracts/CCIPChallenge.sol\":3462:3642  TokenTransferred(... */\n      0xffffffffffffffff\n      and\n      0xbfc364a7d8b42cd188cf53c4c5fdf933337202abb0000693e081d32075ee0b8f\n        /* \"contracts/CCIPChallenge.sol\":3493:3502  messageId */\n      dup9\n        /* \"contracts/CCIPChallenge.sol\":3581:3588  _amount */\n      dup13\n        /* \"contracts/CCIPChallenge.sol\":3603:3610  ccipFee */\n      dup6\n        /* \"contracts/CCIPChallenge.sol\":3625:3631  _token */\n      dup14\n        /* \"contracts/CCIPChallenge.sol\":3462:3642  TokenTransferred(... */\n      mload(0x40)\n      tag_105\n      swap5\n      swap4\n      swap3\n      swap2\n      swap1\n      tag_106\n      jump\t// in\n    tag_105:\n      mload(0x40)\n      dup1\n      swap2\n      sub\n      swap1\n      log3\n        /* \"contracts/CCIPChallenge.sol\":1979:3650  {... */\n      pop\n      pop\n      pop\n      pop\n      pop\n        /* \"contracts/CCIPChallenge.sol\":1766:3650  function transferTokens(... */\n      swap5\n      swap4\n      pop\n      pop\n      pop\n      pop\n      jump\t// out\n        /* \"@openzeppelin/contracts@5.2.0/access/Ownable.sol\":2543:2758  function transferOwnership(address newOwner) public virtual onlyOwner {... */\n    tag_27:\n        /* \"@openzeppelin/contracts@5.2.0/access/Ownable.sol\":1531:1544  _checkOwner() */\n      tag_108\n        /* \"@openzeppelin/contracts@5.2.0/access/Ownable.sol\":1531:1542  _checkOwner */\n      tag_30\n        /* \"@openzeppelin/contracts@5.2.0/access/Ownable.sol\":1531:1544  _checkOwner() */\n      jump\t// in\n    tag_108:\n        /* \"@openzeppelin/contracts@5.2.0/access/Ownable.sol\":2647:2648  0 */\n      0x00\n        /* \"@openzeppelin/contracts@5.2.0/access/Ownable.sol\":2627:2649  newOwner == address(0) */\n      0xffffffffffffffffffffffffffffffffffffffff\n      and\n        /* \"@openzeppelin/contracts@5.2.0/access/Ownable.sol\":2627:2635  newOwner */\n      dup2\n        /* \"@openzeppelin/contracts@5.2.0/access/Ownable.sol\":2627:2649  newOwner == address(0) */\n      0xffffffffffffffffffffffffffffffffffffffff\n      and\n      sub\n        /* \"@openzeppelin/contracts@5.2.0/access/Ownable.sol\":2623:2714  if (newOwner == address(0)) {... */\n      tag_110\n      jumpi\n        /* \"@openzeppelin/contracts@5.2.0/access/Ownable.sol\":2700:2701  0 */\n      0x00\n        /* \"@openzeppelin/contracts@5.2.0/access/Ownable.sol\":2672:2703  OwnableInvalidOwner(address(0)) */\n      mload(0x40)\n      0x1e4fbdf700000000000000000000000000000000000000000000000000000000\n      dup2\n      mstore\n      0x04\n      add\n      tag_111\n      swap2\n      swap1\n      tag_17\n      jump\t// in\n    tag_111:\n      mload(0x40)\n      dup1\n      swap2\n      sub\n      swap1\n      revert\n        /* \"@openzeppelin/contracts@5.2.0/access/Ownable.sol\":2623:2714  if (newOwner == address(0)) {... */\n    tag_110:\n        /* \"@openzeppelin/contracts@5.2.0/access/Ownable.sol\":2723:2751  _transferOwnership(newOwner) */\n      tag_112\n        /* \"@openzeppelin/contracts@5.2.0/access/Ownable.sol\":2742:2750  newOwner */\n      dup2\n        /* \"@openzeppelin/contracts@5.2.0/access/Ownable.sol\":2723:2741  _transferOwnership */\n      tag_48\n        /* \"@openzeppelin/contracts@5.2.0/access/Ownable.sol\":2723:2751  _transferOwnership(newOwner) */\n      jump\t// in\n    tag_112:\n        /* \"@openzeppelin/contracts@5.2.0/access/Ownable.sol\":2543:2758  function transferOwnership(address newOwner) public virtual onlyOwner {... */\n      pop\n      jump\t// out\n        /* \"@openzeppelin/contracts@5.2.0/access/Ownable.sol\":1796:1958  function _checkOwner() internal view virtual {... */\n    tag_30:\n        /* \"@openzeppelin/contracts@5.2.0/access/Ownable.sol\":1866:1878  _msgSender() */\n      tag_114\n        /* \"@openzeppelin/contracts@5.2.0/access/Ownable.sol\":1866:1876  _msgSender */\n      tag_115\n        /* \"@openzeppelin/contracts@5.2.0/access/Ownable.sol\":1866:1878  _msgSender() */\n      jump\t// in\n    tag_114:\n        /* \"@openzeppelin/contracts@5.2.0/access/Ownable.sol\":1855:1878  owner() != _msgSender() */\n      0xffffffffffffffffffffffffffffffffffffffff\n      and\n        /* \"@openzeppelin/contracts@5.2.0/access/Ownable.sol\":1855:1862  owner() */\n      tag_116\n        /* \"@openzeppelin/contracts@5.2.0/access/Ownable.sol\":1855:1860  owner */\n      tag_15\n        /* \"@openzeppelin/contracts@5.2.0/access/Ownable.sol\":1855:1862  owner() */\n      jump\t// in\n    tag_116:\n        /* \"@openzeppelin/contracts@5.2.0/access/Ownable.sol\":1855:1878  owner() != _msgSender() */\n      0xffffffffffffffffffffffffffffffffffffffff\n      and\n      eq\n        /* \"@openzeppelin/contracts@5.2.0/access/Ownable.sol\":1851:1952  if (owner() != _msgSender()) {... */\n      tag_117\n      jumpi\n        /* \"@openzeppelin/contracts@5.2.0/access/Ownable.sol\":1928:1940  _msgSender() */\n      tag_118\n        /* \"@openzeppelin/contracts@5.2.0/access/Ownable.sol\":1928:1938  _msgSender */\n      tag_115\n        /* \"@openzeppelin/contracts@5.2.0/access/Ownable.sol\":1928:1940  _msgSender() */\n      jump\t// in\n    tag_118:\n        /* \"@openzeppelin/contracts@5.2.0/access/Ownable.sol\":1901:1941  OwnableUnauthorizedAccount(_msgSender()) */\n      mload(0x40)\n      0x118cdaa700000000000000000000000000000000000000000000000000000000\n      dup2\n      mstore\n      0x04\n      add\n      tag_119\n      swap2\n      swap1\n      tag_17\n      jump\t// in\n    tag_119:\n      mload(0x40)\n      dup1\n      swap2\n      sub\n      swap1\n      revert\n        /* \"@openzeppelin/contracts@5.2.0/access/Ownable.sol\":1851:1952  if (owner() != _msgSender()) {... */\n    tag_117:\n        /* \"@openzeppelin/contracts@5.2.0/access/Ownable.sol\":1796:1958  function _checkOwner() internal view virtual {... */\n      jump\t// out\n        /* \"@openzeppelin/contracts@5.2.0/access/Ownable.sol\":2912:3099  function _transferOwnership(address newOwner) internal virtual {... */\n    tag_48:\n        /* \"@openzeppelin/contracts@5.2.0/access/Ownable.sol\":2985:3001  address oldOwner */\n      0x00\n        /* \"@openzeppelin/contracts@5.2.0/access/Ownable.sol\":3004:3010  _owner */\n      0x00\n      0x00\n      swap1\n      sload\n      swap1\n      0x0100\n      exp\n      swap1\n      div\n      0xffffffffffffffffffffffffffffffffffffffff\n      and\n        /* \"@openzeppelin/contracts@5.2.0/access/Ownable.sol\":2985:3010  address oldOwner = _owner */\n      swap1\n      pop\n        /* \"@openzeppelin/contracts@5.2.0/access/Ownable.sol\":3029:3037  newOwner */\n      dup2\n        /* \"@openzeppelin/contracts@5.2.0/access/Ownable.sol\":3020:3026  _owner */\n      0x00\n      0x00\n        /* \"@openzeppelin/contracts@5.2.0/access/Ownable.sol\":3020:3037  _owner = newOwner */\n      0x0100\n      exp\n      dup2\n      sload\n      dup2\n      0xffffffffffffffffffffffffffffffffffffffff\n      mul\n      not\n      and\n      swap1\n      dup4\n      0xffffffffffffffffffffffffffffffffffffffff\n      and\n      mul\n      or\n      swap1\n      sstore\n      pop\n        /* \"@openzeppelin/contracts@5.2.0/access/Ownable.sol\":3083:3091  newOwner */\n      dup2\n        /* \"@openzeppelin/contracts@5.2.0/access/Ownable.sol\":3052:3092  OwnershipTransferred(oldOwner, newOwner) */\n      0xffffffffffffffffffffffffffffffffffffffff\n      and\n        /* \"@openzeppelin/contracts@5.2.0/access/Ownable.sol\":3073:3081  oldOwner */\n      dup2\n        /* \"@openzeppelin/contracts@5.2.0/access/Ownable.sol\":3052:3092  OwnershipTransferred(oldOwner, newOwner) */\n      0xffffffffffffffffffffffffffffffffffffffff\n      and\n      0x8be0079c531659141344cd1fd0a4f28419497f9722a3daafe3b4186f6b6457e0\n      mload(0x40)\n      mload(0x40)\n      dup1\n      swap2\n      sub\n      swap1\n      log3\n        /* \"@openzeppelin/contracts@5.2.0/access/Ownable.sol\":2975:3099  {... */\n      pop\n        /* \"@openzeppelin/contracts@5.2.0/access/Ownable.sol\":2912:3099  function _transferOwnership(address newOwner) internal virtual {... */\n      pop\n      jump\t// out\n        /* \"@chainlink/contracts@1.3.0/src/v0.8/ccip/libraries/Client.sol\":1286:1464  function _argsToBytes(... */\n    tag_74:\n        /* \"@chainlink/contracts@1.3.0/src/v0.8/ccip/libraries/Client.sol\":1372:1388  bytes memory bts */\n      0x60\n        /* \"@chainlink/contracts@1.3.0/src/v0.8/ccip/libraries/Client.sol\":1218:1228  0x97a657c9 */\n      0x97a657c9\n        /* \"@chainlink/contracts@1.3.0/src/v0.8/ccip/libraries/Client.sol\":1426:1447  EVM_EXTRA_ARGS_V1_TAG */\n      0xe0\n      shl\n        /* \"@chainlink/contracts@1.3.0/src/v0.8/ccip/libraries/Client.sol\":1449:1458  extraArgs */\n      dup3\n        /* \"@chainlink/contracts@1.3.0/src/v0.8/ccip/libraries/Client.sol\":1403:1459  abi.encodeWithSelector(EVM_EXTRA_ARGS_V1_TAG, extraArgs) */\n      add(0x24, mload(0x40))\n      tag_122\n      swap2\n      swap1\n      tag_123\n      jump\t// in\n    tag_122:\n      mload(0x40)\n      0x20\n      dup2\n      dup4\n      sub\n      sub\n      dup2\n      mstore\n      swap1\n      0x40\n      mstore\n      swap1\n      not(0xffffffffffffffffffffffffffffffffffffffffffffffffffffffff)\n      and\n      0x20\n      dup3\n      add\n      dup1\n      mload\n      0xffffffffffffffffffffffffffffffffffffffffffffffffffffffff\n      dup4\n      dup2\n      dup4\n      and\n      or\n      dup4\n      mstore\n      pop\n      pop\n      pop\n      pop\n        /* \"@chainlink/contracts@1.3.0/src/v0.8/ccip/libraries/Client.sol\":1396:1459  return abi.encodeWithSelector(EVM_EXTRA_ARGS_V1_TAG, extraArgs) */\n      swap1\n      pop\n        /* \"@chainlink/contracts@1.3.0/src/v0.8/ccip/libraries/Client.sol\":1286:1464  function _argsToBytes(... */\n      swap2\n      swap1\n      pop\n      jump\t// out\n        /* \"@chainlink/contracts@1.3.0/src/v0.8/vendor/openzeppelin-solidity/v4.8.3/contracts/token/ERC20/utils/SafeERC20.sol\":932:1129  function safeTransferFrom(IERC20 token, address from, address to, uint256 value) internal {... */\n    tag_95:\n        /* \"@chainlink/contracts@1.3.0/src/v0.8/vendor/openzeppelin-solidity/v4.8.3/contracts/token/ERC20/utils/SafeERC20.sol\":1028:1124  _callOptionalReturn(token, abi.encodeWithSelector(token.transferFrom.selector, from, to, value)) */\n      tag_125\n        /* \"@chainlink/contracts@1.3.0/src/v0.8/vendor/openzeppelin-solidity/v4.8.3/contracts/token/ERC20/utils/SafeERC20.sol\":1048:1053  token */\n      dup5\n        /* \"@chainlink/contracts@1.3.0/src/v0.8/vendor/openzeppelin-solidity/v4.8.3/contracts/token/ERC20/utils/SafeERC20.sol\":1078:1105  token.transferFrom.selector */\n      shl(0xe0, 0x23b872dd)\n        /* \"@chainlink/contracts@1.3.0/src/v0.8/vendor/openzeppelin-solidity/v4.8.3/contracts/token/ERC20/utils/SafeERC20.sol\":1107:1111  from */\n      dup6\n        /* \"@chainlink/contracts@1.3.0/src/v0.8/vendor/openzeppelin-solidity/v4.8.3/contracts/token/ERC20/utils/SafeERC20.sol\":1113:1115  to */\n      dup6\n        /* \"@chainlink/contracts@1.3.0/src/v0.8/vendor/openzeppelin-solidity/v4.8.3/contracts/token/ERC20/utils/SafeERC20.sol\":1117:1122  value */\n      dup6\n        /* \"@chainlink/contracts@1.3.0/src/v0.8/vendor/openzeppelin-solidity/v4.8.3/contracts/token/ERC20/utils/SafeERC20.sol\":1055:1123  abi.encodeWithSelector(token.transferFrom.selector, from, to, value) */\n      add(0x24, mload(0x40))\n      tag_126\n      swap4\n      swap3\n      swap2\n      swap1\n      tag_127\n      jump\t// in\n    tag_126:\n      mload(0x40)\n      0x20\n      dup2\n      dup4\n      sub\n      sub\n      dup2\n      mstore\n      swap1\n      0x40\n      mstore\n      swap1\n      not(0xffffffffffffffffffffffffffffffffffffffffffffffffffffffff)\n      and\n      0x20\n      dup3\n      add\n      dup1\n      mload\n      0xffffffffffffffffffffffffffffffffffffffffffffffffffffffff\n      dup4\n      dup2\n      dup4\n      and\n      or\n      dup4\n      mstore\n      pop\n      pop\n      pop\n      pop\n        /* \"@chainlink/contracts@1.3.0/src/v0.8/vendor/openzeppelin-solidity/v4.8.3/contracts/token/ERC20/utils/SafeERC20.sol\":1028:1047  _callOptionalReturn */\n      tag_128\n        /* \"@chainlink/contracts@1.3.0/src/v0.8/vendor/openzeppelin-solidity/v4.8.3/contracts/token/ERC20/utils/SafeERC20.sol\":1028:1124  _callOptionalReturn(token, abi.encodeWithSelector(token.transferFrom.selector, from, to, value)) */\n      jump\t// in\n    tag_125:\n        /* \"@chainlink/contracts@1.3.0/src/v0.8/vendor/openzeppelin-solidity/v4.8.3/contracts/token/ERC20/utils/SafeERC20.sol\":932:1129  function safeTransferFrom(IERC20 token, address from, address to, uint256 value) internal {... */\n      pop\n      pop\n      pop\n      pop\n      jump\t// out\n        /* \"@openzeppelin/contracts@5.2.0/utils/Context.sol\":656:752  function _msgSender() internal view virtual returns (address) {... */\n    tag_115:\n        /* \"@openzeppelin/contracts@5.2.0/utils/Context.sol\":709:716  address */\n      0x00\n        /* \"@openzeppelin/contracts@5.2.0/utils/Context.sol\":735:745  msg.sender */\n      caller\n        /* \"@openzeppelin/contracts@5.2.0/utils/Context.sol\":728:745  return msg.sender */\n      swap1\n      pop\n        /* \"@openzeppelin/contracts@5.2.0/utils/Context.sol\":656:752  function _msgSender() internal view virtual returns (address) {... */\n      swap1\n      jump\t// out\n        /* \"@chainlink/contracts@1.3.0/src/v0.8/vendor/openzeppelin-solidity/v4.8.3/contracts/token/ERC20/utils/SafeERC20.sol\":3401:4069  function _callOptionalReturn(IERC20 token, bytes memory data) private {... */\n    tag_128:\n        /* \"@chainlink/contracts@1.3.0/src/v0.8/vendor/openzeppelin-solidity/v4.8.3/contracts/token/ERC20/utils/SafeERC20.sol\":3804:3827  bytes memory returndata */\n      0x00\n        /* \"@chainlink/contracts@1.3.0/src/v0.8/vendor/openzeppelin-solidity/v4.8.3/contracts/token/ERC20/utils/SafeERC20.sol\":3830:3899  address(token).functionCall(data, \"SafeERC20: low-level call failed\") */\n      tag_131\n        /* \"@chainlink/contracts@1.3.0/src/v0.8/vendor/openzeppelin-solidity/v4.8.3/contracts/token/ERC20/utils/SafeERC20.sol\":3858:3862  data */\n      dup3\n        /* \"@chainlink/contracts@1.3.0/src/v0.8/vendor/openzeppelin-solidity/v4.8.3/contracts/token/ERC20/utils/SafeERC20.sol\":3830:3899  address(token).functionCall(data, \"SafeERC20: low-level call failed\") */\n      mload(0x40)\n      dup1\n      0x40\n      add\n      0x40\n      mstore\n      dup1\n      0x20\n      dup2\n      mstore\n      0x20\n      add\n      0x5361666545524332303a206c6f772d6c6576656c2063616c6c206661696c6564\n      dup2\n      mstore\n      pop\n        /* \"@chainlink/contracts@1.3.0/src/v0.8/vendor/openzeppelin-solidity/v4.8.3/contracts/token/ERC20/utils/SafeERC20.sol\":3838:3843  token */\n      dup6\n        /* \"@chainlink/contracts@1.3.0/src/v0.8/vendor/openzeppelin-solidity/v4.8.3/contracts/token/ERC20/utils/SafeERC20.sol\":3830:3857  address(token).functionCall */\n      0xffffffffffffffffffffffffffffffffffffffff\n      and\n      tag_132\n      swap1\n        /* \"@chainlink/contracts@1.3.0/src/v0.8/vendor/openzeppelin-solidity/v4.8.3/contracts/token/ERC20/utils/SafeERC20.sol\":3830:3899  address(token).functionCall(data, \"SafeERC20: low-level call failed\") */\n      swap3\n      swap2\n      swap1\n      0xffffffff\n      and\n      jump\t// in\n    tag_131:\n        /* \"@chainlink/contracts@1.3.0/src/v0.8/vendor/openzeppelin-solidity/v4.8.3/contracts/token/ERC20/utils/SafeERC20.sol\":3804:3899  bytes memory returndata = address(token).functionCall(data, \"SafeERC20: low-level call failed\") */\n      swap1\n      pop\n        /* \"@chainlink/contracts@1.3.0/src/v0.8/vendor/openzeppelin-solidity/v4.8.3/contracts/token/ERC20/utils/SafeERC20.sol\":3929:3930  0 */\n      0x00\n        /* \"@chainlink/contracts@1.3.0/src/v0.8/vendor/openzeppelin-solidity/v4.8.3/contracts/token/ERC20/utils/SafeERC20.sol\":3909:3919  returndata */\n      dup2\n        /* \"@chainlink/contracts@1.3.0/src/v0.8/vendor/openzeppelin-solidity/v4.8.3/contracts/token/ERC20/utils/SafeERC20.sol\":3909:3926  returndata.length */\n      mload\n        /* \"@chainlink/contracts@1.3.0/src/v0.8/vendor/openzeppelin-solidity/v4.8.3/contracts/token/ERC20/utils/SafeERC20.sol\":3909:3930  returndata.length > 0 */\n      gt\n        /* \"@chainlink/contracts@1.3.0/src/v0.8/vendor/openzeppelin-solidity/v4.8.3/contracts/token/ERC20/utils/SafeERC20.sol\":3905:4065  if (returndata.length > 0) {... */\n      iszero\n      tag_133\n      jumpi\n        /* \"@chainlink/contracts@1.3.0/src/v0.8/vendor/openzeppelin-solidity/v4.8.3/contracts/token/ERC20/utils/SafeERC20.sol\":3992:4002  returndata */\n      dup1\n        /* \"@chainlink/contracts@1.3.0/src/v0.8/vendor/openzeppelin-solidity/v4.8.3/contracts/token/ERC20/utils/SafeERC20.sol\":3981:4011  abi.decode(returndata, (bool)) */\n      dup1\n      0x20\n      add\n      swap1\n      mload\n      dup2\n      add\n      swap1\n      tag_134\n      swap2\n      swap1\n      tag_43\n      jump\t// in\n    tag_134:\n        /* \"@chainlink/contracts@1.3.0/src/v0.8/vendor/openzeppelin-solidity/v4.8.3/contracts/token/ERC20/utils/SafeERC20.sol\":3973:4058  require(abi.decode(returndata, (bool)), \"SafeERC20: ERC20 operation did not succeed\") */\n      tag_135\n      jumpi\n      mload(0x40)\n      0x08c379a000000000000000000000000000000000000000000000000000000000\n      dup2\n      mstore\n      0x04\n      add\n      tag_136\n      swap1\n      tag_137\n      jump\t// in\n    tag_136:\n      mload(0x40)\n      dup1\n      swap2\n      sub\n      swap1\n      revert\n    tag_135:\n        /* \"@chainlink/contracts@1.3.0/src/v0.8/vendor/openzeppelin-solidity/v4.8.3/contracts/token/ERC20/utils/SafeERC20.sol\":3905:4065  if (returndata.length > 0) {... */\n    tag_133:\n        /* \"@chainlink/contracts@1.3.0/src/v0.8/vendor/openzeppelin-solidity/v4.8.3/contracts/token/ERC20/utils/SafeERC20.sol\":3471:4069  {... */\n      pop\n        /* \"@chainlink/contracts@1.3.0/src/v0.8/vendor/openzeppelin-solidity/v4.8.3/contracts/token/ERC20/utils/SafeERC20.sol\":3401:4069  function _callOptionalReturn(IERC20 token, bytes memory data) private {... */\n      pop\n      pop\n      jump\t// out\n        /* \"@chainlink/contracts@1.3.0/src/v0.8/vendor/openzeppelin-solidity/v4.8.3/contracts/utils/Address.sol\":3695:3882  function functionCall(address target, bytes memory data, string memory errorMessage) internal returns (bytes memory) {... */\n    tag_132:\n        /* \"@chainlink/contracts@1.3.0/src/v0.8/vendor/openzeppelin-solidity/v4.8.3/contracts/utils/Address.sol\":3798:3810  bytes memory */\n      0x60\n        /* \"@chainlink/contracts@1.3.0/src/v0.8/vendor/openzeppelin-solidity/v4.8.3/contracts/utils/Address.sol\":3825:3877  functionCallWithValue(target, data, 0, errorMessage) */\n      tag_139\n        /* \"@chainlink/contracts@1.3.0/src/v0.8/vendor/openzeppelin-solidity/v4.8.3/contracts/utils/Address.sol\":3847:3853  target */\n      dup5\n        /* \"@chainlink/contracts@1.3.0/src/v0.8/vendor/openzeppelin-solidity/v4.8.3/contracts/utils/Address.sol\":3855:3859  data */\n      dup5\n        /* \"@chainlink/contracts@1.3.0/src/v0.8/vendor/openzeppelin-solidity/v4.8.3/contracts/utils/Address.sol\":3861:3862  0 */\n      0x00\n        /* \"@chainlink/contracts@1.3.0/src/v0.8/vendor/openzeppelin-solidity/v4.8.3/contracts/utils/Address.sol\":3864:3876  errorMessage */\n      dup6\n        /* \"@chainlink/contracts@1.3.0/src/v0.8/vendor/openzeppelin-solidity/v4.8.3/contracts/utils/Address.sol\":3825:3846  functionCallWithValue */\n      tag_140\n        /* \"@chainlink/contracts@1.3.0/src/v0.8/vendor/openzeppelin-solidity/v4.8.3/contracts/utils/Address.sol\":3825:3877  functionCallWithValue(target, data, 0, errorMessage) */\n      jump\t// in\n    tag_139:\n        /* \"@chainlink/contracts@1.3.0/src/v0.8/vendor/openzeppelin-solidity/v4.8.3/contracts/utils/Address.sol\":3818:3877  return functionCallWithValue(target, data, 0, errorMessage) */\n      swap1\n      pop\n        /* \"@chainlink/contracts@1.3.0/src/v0.8/vendor/openzeppelin-solidity/v4.8.3/contracts/utils/Address.sol\":3695:3882  function functionCall(address target, bytes memory data, string memory errorMessage) internal returns (bytes memory) {... */\n      swap4\n      swap3\n      pop\n      pop\n      pop\n      jump\t// out\n        /* \"@chainlink/contracts@1.3.0/src/v0.8/vendor/openzeppelin-solidity/v4.8.3/contracts/utils/Address.sol\":4672:5086  function functionCallWithValue(... */\n    tag_140:\n        /* \"@chainlink/contracts@1.3.0/src/v0.8/vendor/openzeppelin-solidity/v4.8.3/contracts/utils/Address.sol\":4819:4831  bytes memory */\n      0x60\n        /* \"@chainlink/contracts@1.3.0/src/v0.8/vendor/openzeppelin-solidity/v4.8.3/contracts/utils/Address.sol\":4872:4877  value */\n      dup3\n        /* \"@chainlink/contracts@1.3.0/src/v0.8/vendor/openzeppelin-solidity/v4.8.3/contracts/utils/Address.sol\":4847:4868  address(this).balance */\n      selfbalance\n        /* \"@chainlink/contracts@1.3.0/src/v0.8/vendor/openzeppelin-solidity/v4.8.3/contracts/utils/Address.sol\":4847:4877  address(this).balance >= value */\n      lt\n      iszero\n        /* \"@chainlink/contracts@1.3.0/src/v0.8/vendor/openzeppelin-solidity/v4.8.3/contracts/utils/Address.sol\":4839:4920  require(address(this).balance >= value, \"Address: insufficient balance for call\") */\n      tag_142\n      jumpi\n      mload(0x40)\n      0x08c379a000000000000000000000000000000000000000000000000000000000\n      dup2\n      mstore\n      0x04\n      add\n      tag_143\n      swap1\n      tag_144\n      jump\t// in\n    tag_143:\n      mload(0x40)\n      dup1\n      swap2\n      sub\n      swap1\n      revert\n    tag_142:\n        /* \"@chainlink/contracts@1.3.0/src/v0.8/vendor/openzeppelin-solidity/v4.8.3/contracts/utils/Address.sol\":4927:4939  bool success */\n      0x00\n        /* \"@chainlink/contracts@1.3.0/src/v0.8/vendor/openzeppelin-solidity/v4.8.3/contracts/utils/Address.sol\":4941:4964  bytes memory returndata */\n      0x00\n        /* \"@chainlink/contracts@1.3.0/src/v0.8/vendor/openzeppelin-solidity/v4.8.3/contracts/utils/Address.sol\":4968:4974  target */\n      dup7\n        /* \"@chainlink/contracts@1.3.0/src/v0.8/vendor/openzeppelin-solidity/v4.8.3/contracts/utils/Address.sol\":4968:4979  target.call */\n      0xffffffffffffffffffffffffffffffffffffffff\n      and\n        /* \"@chainlink/contracts@1.3.0/src/v0.8/vendor/openzeppelin-solidity/v4.8.3/contracts/utils/Address.sol\":4987:4992  value */\n      dup6\n        /* \"@chainlink/contracts@1.3.0/src/v0.8/vendor/openzeppelin-solidity/v4.8.3/contracts/utils/Address.sol\":4994:4998  data */\n      dup8\n        /* \"@chainlink/contracts@1.3.0/src/v0.8/vendor/openzeppelin-solidity/v4.8.3/contracts/utils/Address.sol\":4968:4999  target.call{value: value}(data) */\n      mload(0x40)\n      tag_145\n      swap2\n      swap1\n      tag_146\n      jump\t// in\n    tag_145:\n      0x00\n      mload(0x40)\n      dup1\n      dup4\n      sub\n      dup2\n      dup6\n      dup8\n      gas\n      call\n      swap3\n      pop\n      pop\n      pop\n      returndatasize\n      dup1\n      0x00\n      dup2\n      eq\n      tag_149\n      jumpi\n      mload(0x40)\n      swap2\n      pop\n      and(add(returndatasize, 0x3f), not(0x1f))\n      dup3\n      add\n      0x40\n      mstore\n      returndatasize\n      dup3\n      mstore\n      returndatasize\n      0x00\n      0x20\n      dup5\n      add\n      returndatacopy\n      jump(tag_148)\n    tag_149:\n      0x60\n      swap2\n      pop\n    tag_148:\n      pop\n        /* \"@chainlink/contracts@1.3.0/src/v0.8/vendor/openzeppelin-solidity/v4.8.3/contracts/utils/Address.sol\":4926:4999  (bool success, bytes memory returndata) = target.call{value: value}(data) */\n      swap2\n      pop\n      swap2\n      pop\n        /* \"@chainlink/contracts@1.3.0/src/v0.8/vendor/openzeppelin-solidity/v4.8.3/contracts/utils/Address.sol\":5012:5081  verifyCallResultFromTarget(target, success, returndata, errorMessage) */\n      tag_150\n        /* \"@chainlink/contracts@1.3.0/src/v0.8/vendor/openzeppelin-solidity/v4.8.3/contracts/utils/Address.sol\":5039:5045  target */\n      dup8\n        /* \"@chainlink/contracts@1.3.0/src/v0.8/vendor/openzeppelin-solidity/v4.8.3/contracts/utils/Address.sol\":5047:5054  success */\n      dup4\n        /* \"@chainlink/contracts@1.3.0/src/v0.8/vendor/openzeppelin-solidity/v4.8.3/contracts/utils/Address.sol\":5056:5066  returndata */\n      dup4\n        /* \"@chainlink/contracts@1.3.0/src/v0.8/vendor/openzeppelin-solidity/v4.8.3/contracts/utils/Address.sol\":5068:5080  errorMessage */\n      dup8\n        /* \"@chainlink/contracts@1.3.0/src/v0.8/vendor/openzeppelin-solidity/v4.8.3/contracts/utils/Address.sol\":5012:5038  verifyCallResultFromTarget */\n      tag_151\n        /* \"@chainlink/contracts@1.3.0/src/v0.8/vendor/openzeppelin-solidity/v4.8.3/contracts/utils/Address.sol\":5012:5081  verifyCallResultFromTarget(target, success, returndata, errorMessage) */\n      jump\t// in\n    tag_150:\n        /* \"@chainlink/contracts@1.3.0/src/v0.8/vendor/openzeppelin-solidity/v4.8.3/contracts/utils/Address.sol\":5005:5081  return verifyCallResultFromTarget(target, success, returndata, errorMessage) */\n      swap3\n      pop\n      pop\n      pop\n        /* \"@chainlink/contracts@1.3.0/src/v0.8/vendor/openzeppelin-solidity/v4.8.3/contracts/utils/Address.sol\":4672:5086  function functionCallWithValue(... */\n      swap5\n      swap4\n      pop\n      pop\n      pop\n      pop\n      jump\t// out\n        /* \"@chainlink/contracts@1.3.0/src/v0.8/vendor/openzeppelin-solidity/v4.8.3/contracts/utils/Address.sol\":7016:7564  function verifyCallResultFromTarget(... */\n    tag_151:\n        /* \"@chainlink/contracts@1.3.0/src/v0.8/vendor/openzeppelin-solidity/v4.8.3/contracts/utils/Address.sol\":7178:7190  bytes memory */\n      0x60\n        /* \"@chainlink/contracts@1.3.0/src/v0.8/vendor/openzeppelin-solidity/v4.8.3/contracts/utils/Address.sol\":7202:7209  success */\n      dup4\n        /* \"@chainlink/contracts@1.3.0/src/v0.8/vendor/openzeppelin-solidity/v4.8.3/contracts/utils/Address.sol\":7198:7560  if (success) {... */\n      iszero\n      tag_153\n      jumpi\n        /* \"@chainlink/contracts@1.3.0/src/v0.8/vendor/openzeppelin-solidity/v4.8.3/contracts/utils/Address.sol\":7244:7245  0 */\n      0x00\n        /* \"@chainlink/contracts@1.3.0/src/v0.8/vendor/openzeppelin-solidity/v4.8.3/contracts/utils/Address.sol\":7223:7233  returndata */\n      dup4\n        /* \"@chainlink/contracts@1.3.0/src/v0.8/vendor/openzeppelin-solidity/v4.8.3/contracts/utils/Address.sol\":7223:7240  returndata.length */\n      mload\n        /* \"@chainlink/contracts@1.3.0/src/v0.8/vendor/openzeppelin-solidity/v4.8.3/contracts/utils/Address.sol\":7223:7245  returndata.length == 0 */\n      sub\n        /* \"@chainlink/contracts@1.3.0/src/v0.8/vendor/openzeppelin-solidity/v4.8.3/contracts/utils/Address.sol\":7219:7475  if (returndata.length == 0) {... */\n      tag_154\n      jumpi\n        /* \"@chainlink/contracts@1.3.0/src/v0.8/vendor/openzeppelin-solidity/v4.8.3/contracts/utils/Address.sol\":7414:7432  isContract(target) */\n      tag_155\n        /* \"@chainlink/contracts@1.3.0/src/v0.8/vendor/openzeppelin-solidity/v4.8.3/contracts/utils/Address.sol\":7425:7431  target */\n      dup6\n        /* \"@chainlink/contracts@1.3.0/src/v0.8/vendor/openzeppelin-solidity/v4.8.3/contracts/utils/Address.sol\":7414:7424  isContract */\n      tag_156\n        /* \"@chainlink/contracts@1.3.0/src/v0.8/vendor/openzeppelin-solidity/v4.8.3/contracts/utils/Address.sol\":7414:7432  isContract(target) */\n      jump\t// in\n    tag_155:\n        /* \"@chainlink/contracts@1.3.0/src/v0.8/vendor/openzeppelin-solidity/v4.8.3/contracts/utils/Address.sol\":7406:7466  require(isContract(target), \"Address: call to non-contract\") */\n      tag_157\n      jumpi\n      mload(0x40)\n      0x08c379a000000000000000000000000000000000000000000000000000000000\n      dup2\n      mstore\n      0x04\n      add\n      tag_158\n      swap1\n      tag_159\n      jump\t// in\n    tag_158:\n      mload(0x40)\n      dup1\n      swap2\n      sub\n      swap1\n      revert\n    tag_157:\n        /* \"@chainlink/contracts@1.3.0/src/v0.8/vendor/openzeppelin-solidity/v4.8.3/contracts/utils/Address.sol\":7219:7475  if (returndata.length == 0) {... */\n    tag_154:\n        /* \"@chainlink/contracts@1.3.0/src/v0.8/vendor/openzeppelin-solidity/v4.8.3/contracts/utils/Address.sol\":7489:7499  returndata */\n      dup3\n        /* \"@chainlink/contracts@1.3.0/src/v0.8/vendor/openzeppelin-solidity/v4.8.3/contracts/utils/Address.sol\":7482:7499  return returndata */\n      swap1\n      pop\n      jump(tag_152)\n        /* \"@chainlink/contracts@1.3.0/src/v0.8/vendor/openzeppelin-solidity/v4.8.3/contracts/utils/Address.sol\":7198:7560  if (success) {... */\n    tag_153:\n        /* \"@chainlink/contracts@1.3.0/src/v0.8/vendor/openzeppelin-solidity/v4.8.3/contracts/utils/Address.sol\":7520:7553  _revert(returndata, errorMessage) */\n      tag_161\n        /* \"@chainlink/contracts@1.3.0/src/v0.8/vendor/openzeppelin-solidity/v4.8.3/contracts/utils/Address.sol\":7528:7538  returndata */\n      dup4\n        /* \"@chainlink/contracts@1.3.0/src/v0.8/vendor/openzeppelin-solidity/v4.8.3/contracts/utils/Address.sol\":7540:7552  errorMessage */\n      dup4\n        /* \"@chainlink/contracts@1.3.0/src/v0.8/vendor/openzeppelin-solidity/v4.8.3/contracts/utils/Address.sol\":7520:7527  _revert */\n      tag_162\n        /* \"@chainlink/contracts@1.3.0/src/v0.8/vendor/openzeppelin-solidity/v4.8.3/contracts/utils/Address.sol\":7520:7553  _revert(returndata, errorMessage) */\n      jump\t// in\n    tag_161:\n        /* \"@chainlink/contracts@1.3.0/src/v0.8/vendor/openzeppelin-solidity/v4.8.3/contracts/utils/Address.sol\":7016:7564  function verifyCallResultFromTarget(... */\n    tag_152:\n      swap5\n      swap4\n      pop\n      pop\n      pop\n      pop\n      jump\t// out\n        /* \"@chainlink/contracts@1.3.0/src/v0.8/vendor/openzeppelin-solidity/v4.8.3/contracts/utils/Address.sol\":1121:1423  function isContract(address account) internal view returns (bool) {... */\n    tag_156:\n        /* \"@chainlink/contracts@1.3.0/src/v0.8/vendor/openzeppelin-solidity/v4.8.3/contracts/utils/Address.sol\":1181:1185  bool */\n      0x00\n        /* \"@chainlink/contracts@1.3.0/src/v0.8/vendor/openzeppelin-solidity/v4.8.3/contracts/utils/Address.sol\":1417:1418  0 */\n      0x00\n        /* \"@chainlink/contracts@1.3.0/src/v0.8/vendor/openzeppelin-solidity/v4.8.3/contracts/utils/Address.sol\":1395:1402  account */\n      dup3\n        /* \"@chainlink/contracts@1.3.0/src/v0.8/vendor/openzeppelin-solidity/v4.8.3/contracts/utils/Address.sol\":1395:1414  account.code.length */\n      0xffffffffffffffffffffffffffffffffffffffff\n      and\n      extcodesize\n        /* \"@chainlink/contracts@1.3.0/src/v0.8/vendor/openzeppelin-solidity/v4.8.3/contracts/utils/Address.sol\":1395:1418  account.code.length > 0 */\n      gt\n        /* \"@chainlink/contracts@1.3.0/src/v0.8/vendor/openzeppelin-solidity/v4.8.3/contracts/utils/Address.sol\":1388:1418  return account.code.length > 0 */\n      swap1\n      pop\n        /* \"@chainlink/contracts@1.3.0/src/v0.8/vendor/openzeppelin-solidity/v4.8.3/contracts/utils/Address.sol\":1121:1423  function isContract(address account) internal view returns (bool) {... */\n      swap2\n      swap1\n      pop\n      jump\t// out\n        /* \"@chainlink/contracts@1.3.0/src/v0.8/vendor/openzeppelin-solidity/v4.8.3/contracts/utils/Address.sol\":8030:8506  function _revert(bytes memory returndata, string memory errorMessage) private pure {... */\n    tag_162:\n        /* \"@chainlink/contracts@1.3.0/src/v0.8/vendor/openzeppelin-solidity/v4.8.3/contracts/utils/Address.sol\":8201:8202  0 */\n      0x00\n        /* \"@chainlink/contracts@1.3.0/src/v0.8/vendor/openzeppelin-solidity/v4.8.3/contracts/utils/Address.sol\":8181:8191  returndata */\n      dup3\n        /* \"@chainlink/contracts@1.3.0/src/v0.8/vendor/openzeppelin-solidity/v4.8.3/contracts/utils/Address.sol\":8181:8198  returndata.length */\n      mload\n        /* \"@chainlink/contracts@1.3.0/src/v0.8/vendor/openzeppelin-solidity/v4.8.3/contracts/utils/Address.sol\":8181:8202  returndata.length > 0 */\n      gt\n        /* \"@chainlink/contracts@1.3.0/src/v0.8/vendor/openzeppelin-solidity/v4.8.3/contracts/utils/Address.sol\":8177:8502  if (returndata.length > 0) {... */\n      iszero\n      tag_165\n      jumpi\n        /* \"@chainlink/contracts@1.3.0/src/v0.8/vendor/openzeppelin-solidity/v4.8.3/contracts/utils/Address.sol\":8383:8393  returndata */\n      dup2\n        /* \"@chainlink/contracts@1.3.0/src/v0.8/vendor/openzeppelin-solidity/v4.8.3/contracts/utils/Address.sol\":8377:8394  mload(returndata) */\n      mload\n        /* \"@chainlink/contracts@1.3.0/src/v0.8/vendor/openzeppelin-solidity/v4.8.3/contracts/utils/Address.sol\":8431:8446  returndata_size */\n      dup1\n        /* \"@chainlink/contracts@1.3.0/src/v0.8/vendor/openzeppelin-solidity/v4.8.3/contracts/utils/Address.sol\":8418:8428  returndata */\n      dup4\n        /* \"@chainlink/contracts@1.3.0/src/v0.8/vendor/openzeppelin-solidity/v4.8.3/contracts/utils/Address.sol\":8414:8416  32 */\n      0x20\n        /* \"@chainlink/contracts@1.3.0/src/v0.8/vendor/openzeppelin-solidity/v4.8.3/contracts/utils/Address.sol\":8410:8429  add(32, returndata) */\n      add\n        /* \"@chainlink/contracts@1.3.0/src/v0.8/vendor/openzeppelin-solidity/v4.8.3/contracts/utils/Address.sol\":8403:8447  revert(add(32, returndata), returndata_size) */\n      revert\n        /* \"@chainlink/contracts@1.3.0/src/v0.8/vendor/openzeppelin-solidity/v4.8.3/contracts/utils/Address.sol\":8177:8502  if (returndata.length > 0) {... */\n    tag_165:\n        /* \"@chainlink/contracts@1.3.0/src/v0.8/vendor/openzeppelin-solidity/v4.8.3/contracts/utils/Address.sol\":8482:8494  errorMessage */\n      dup1\n        /* \"@chainlink/contracts@1.3.0/src/v0.8/vendor/openzeppelin-solidity/v4.8.3/contracts/utils/Address.sol\":8475:8495  revert(errorMessage) */\n      mload(0x40)\n      0x08c379a000000000000000000000000000000000000000000000000000000000\n      dup2\n      mstore\n      0x04\n      add\n      tag_167\n      swap2\n      swap1\n      tag_168\n      jump\t// in\n    tag_167:\n      mload(0x40)\n      dup1\n      swap2\n      sub\n      swap1\n      revert\n    tag_68:\n      mload(0x40)\n      dup1\n      0x40\n      add\n      0x40\n      mstore\n      dup1\n      and(0xffffffffffffffffffffffffffffffffffffffff, 0x00)\n      dup2\n      mstore\n      0x20\n      add\n      0x00\n      dup2\n      mstore\n      pop\n      swap1\n      jump\t// out\n        /* \"#utility.yul\":88:205   */\n    tag_170:\n        /* \"#utility.yul\":197:198   */\n      0x00\n        /* \"#utility.yul\":194:195   */\n      0x00\n        /* \"#utility.yul\":187:199   */\n      revert\n        /* \"#utility.yul\":334:460   */\n    tag_172:\n        /* \"#utility.yul\":371:378   */\n      0x00\n        /* \"#utility.yul\":411:453   */\n      0xffffffffffffffffffffffffffffffffffffffff\n        /* \"#utility.yul\":404:409   */\n      dup3\n        /* \"#utility.yul\":400:454   */\n      and\n        /* \"#utility.yul\":389:454   */\n      swap1\n      pop\n        /* \"#utility.yul\":334:460   */\n      swap2\n      swap1\n      pop\n      jump\t// out\n        /* \"#utility.yul\":466:562   */\n    tag_173:\n        /* \"#utility.yul\":503:510   */\n      0x00\n        /* \"#utility.yul\":532:556   */\n      tag_231\n        /* \"#utility.yul\":550:555   */\n      dup3\n        /* \"#utility.yul\":532:556   */\n      tag_172\n      jump\t// in\n    tag_231:\n        /* \"#utility.yul\":521:556   */\n      swap1\n      pop\n        /* \"#utility.yul\":466:562   */\n      swap2\n      swap1\n      pop\n      jump\t// out\n        /* \"#utility.yul\":568:690   */\n    tag_174:\n        /* \"#utility.yul\":641:665   */\n      tag_233\n        /* \"#utility.yul\":659:664   */\n      dup2\n        /* \"#utility.yul\":641:665   */\n      tag_173\n      jump\t// in\n    tag_233:\n        /* \"#utility.yul\":634:639   */\n      dup2\n        /* \"#utility.yul\":631:666   */\n      eq\n        /* \"#utility.yul\":621:684   */\n      tag_234\n      jumpi\n        /* \"#utility.yul\":680:681   */\n      0x00\n        /* \"#utility.yul\":677:678   */\n      0x00\n        /* \"#utility.yul\":670:682   */\n      revert\n        /* \"#utility.yul\":621:684   */\n    tag_234:\n        /* \"#utility.yul\":568:690   */\n      pop\n      jump\t// out\n        /* \"#utility.yul\":696:835   */\n    tag_175:\n        /* \"#utility.yul\":742:747   */\n      0x00\n        /* \"#utility.yul\":780:786   */\n      dup2\n        /* \"#utility.yul\":767:787   */\n      calldataload\n        /* \"#utility.yul\":758:787   */\n      swap1\n      pop\n        /* \"#utility.yul\":796:829   */\n      tag_236\n        /* \"#utility.yul\":823:828   */\n      dup2\n        /* \"#utility.yul\":796:829   */\n      tag_174\n      jump\t// in\n    tag_236:\n        /* \"#utility.yul\":696:835   */\n      swap3\n      swap2\n      pop\n      pop\n      jump\t// out\n        /* \"#utility.yul\":841:1315   */\n    tag_10:\n        /* \"#utility.yul\":909:915   */\n      0x00\n        /* \"#utility.yul\":917:923   */\n      0x00\n        /* \"#utility.yul\":966:968   */\n      0x40\n        /* \"#utility.yul\":954:963   */\n      dup4\n        /* \"#utility.yul\":945:952   */\n      dup6\n        /* \"#utility.yul\":941:964   */\n      sub\n        /* \"#utility.yul\":937:969   */\n      slt\n        /* \"#utility.yul\":934:1053   */\n      iszero\n      tag_238\n      jumpi\n        /* \"#utility.yul\":972:1051   */\n      tag_239\n      tag_170\n      jump\t// in\n    tag_239:\n        /* \"#utility.yul\":934:1053   */\n    tag_238:\n        /* \"#utility.yul\":1092:1093   */\n      0x00\n        /* \"#utility.yul\":1117:1170   */\n      tag_240\n        /* \"#utility.yul\":1162:1169   */\n      dup6\n        /* \"#utility.yul\":1153:1159   */\n      dup3\n        /* \"#utility.yul\":1142:1151   */\n      dup7\n        /* \"#utility.yul\":1138:1160   */\n      add\n        /* \"#utility.yul\":1117:1170   */\n      tag_175\n      jump\t// in\n    tag_240:\n        /* \"#utility.yul\":1107:1170   */\n      swap3\n      pop\n        /* \"#utility.yul\":1063:1180   */\n      pop\n        /* \"#utility.yul\":1219:1221   */\n      0x20\n        /* \"#utility.yul\":1245:1298   */\n      tag_241\n        /* \"#utility.yul\":1290:1297   */\n      dup6\n        /* \"#utility.yul\":1281:1287   */\n      dup3\n        /* \"#utility.yul\":1270:1279   */\n      dup7\n        /* \"#utility.yul\":1266:1288   */\n      add\n        /* \"#utility.yul\":1245:1298   */\n      tag_175\n      jump\t// in\n    tag_241:\n        /* \"#utility.yul\":1235:1298   */\n      swap2\n      pop\n        /* \"#utility.yul\":1190:1308   */\n      pop\n        /* \"#utility.yul\":841:1315   */\n      swap3\n      pop\n      swap3\n      swap1\n      pop\n      jump\t// out\n        /* \"#utility.yul\":1321:1439   */\n    tag_176:\n        /* \"#utility.yul\":1408:1432   */\n      tag_243\n        /* \"#utility.yul\":1426:1431   */\n      dup2\n        /* \"#utility.yul\":1408:1432   */\n      tag_173\n      jump\t// in\n    tag_243:\n        /* \"#utility.yul\":1403:1406   */\n      dup3\n        /* \"#utility.yul\":1396:1433   */\n      mstore\n        /* \"#utility.yul\":1321:1439   */\n      pop\n      pop\n      jump\t// out\n        /* \"#utility.yul\":1445:1667   */\n    tag_17:\n        /* \"#utility.yul\":1538:1542   */\n      0x00\n        /* \"#utility.yul\":1576:1578   */\n      0x20\n        /* \"#utility.yul\":1565:1574   */\n      dup3\n        /* \"#utility.yul\":1561:1579   */\n      add\n        /* \"#utility.yul\":1553:1579   */\n      swap1\n      pop\n        /* \"#utility.yul\":1589:1660   */\n      tag_245\n        /* \"#utility.yul\":1657:1658   */\n      0x00\n        /* \"#utility.yul\":1646:1655   */\n      dup4\n        /* \"#utility.yul\":1642:1659   */\n      add\n        /* \"#utility.yul\":1633:1639   */\n      dup5\n        /* \"#utility.yul\":1589:1660   */\n      tag_176\n      jump\t// in\n    tag_245:\n        /* \"#utility.yul\":1445:1667   */\n      swap3\n      swap2\n      pop\n      pop\n      jump\t// out\n        /* \"#utility.yul\":1673:1750   */\n    tag_177:\n        /* \"#utility.yul\":1710:1717   */\n      0x00\n        /* \"#utility.yul\":1739:1744   */\n      dup2\n        /* \"#utility.yul\":1728:1744   */\n      swap1\n      pop\n        /* \"#utility.yul\":1673:1750   */\n      swap2\n      swap1\n      pop\n      jump\t// out\n        /* \"#utility.yul\":1756:1878   */\n    tag_178:\n        /* \"#utility.yul\":1829:1853   */\n      tag_248\n        /* \"#utility.yul\":1847:1852   */\n      dup2\n        /* \"#utility.yul\":1829:1853   */\n      tag_177\n      jump\t// in\n    tag_248:\n        /* \"#utility.yul\":1822:1827   */\n      dup2\n        /* \"#utility.yul\":1819:1854   */\n      eq\n        /* \"#utility.yul\":1809:1872   */\n      tag_249\n      jumpi\n        /* \"#utility.yul\":1868:1869   */\n      0x00\n        /* \"#utility.yul\":1865:1866   */\n      0x00\n        /* \"#utility.yul\":1858:1870   */\n      revert\n        /* \"#utility.yul\":1809:1872   */\n    tag_249:\n        /* \"#utility.yul\":1756:1878   */\n      pop\n      jump\t// out\n        /* \"#utility.yul\":1884:2023   */\n    tag_179:\n        /* \"#utility.yul\":1930:1935   */\n      0x00\n        /* \"#utility.yul\":1968:1974   */\n      dup2\n        /* \"#utility.yul\":1955:1975   */\n      calldataload\n        /* \"#utility.yul\":1946:1975   */\n      swap1\n      pop\n        /* \"#utility.yul\":1984:2017   */\n      tag_251\n        /* \"#utility.yul\":2011:2016   */\n      dup2\n        /* \"#utility.yul\":1984:2017   */\n      tag_178\n      jump\t// in\n    tag_251:\n        /* \"#utility.yul\":1884:2023   */\n      swap3\n      swap2\n      pop\n      pop\n      jump\t// out\n        /* \"#utility.yul\":2029:2130   */\n    tag_180:\n        /* \"#utility.yul\":2065:2072   */\n      0x00\n        /* \"#utility.yul\":2105:2123   */\n      0xffffffffffffffff\n        /* \"#utility.yul\":2098:2103   */\n      dup3\n        /* \"#utility.yul\":2094:2124   */\n      and\n        /* \"#utility.yul\":2083:2124   */\n      swap1\n      pop\n        /* \"#utility.yul\":2029:2130   */\n      swap2\n      swap1\n      pop\n      jump\t// out\n        /* \"#utility.yul\":2136:2256   */\n    tag_181:\n        /* \"#utility.yul\":2208:2231   */\n      tag_254\n        /* \"#utility.yul\":2225:2230   */\n      dup2\n        /* \"#utility.yul\":2208:2231   */\n      tag_180\n      jump\t// in\n    tag_254:\n        /* \"#utility.yul\":2201:2206   */\n      dup2\n        /* \"#utility.yul\":2198:2232   */\n      eq\n        /* \"#utility.yul\":2188:2250   */\n      tag_255\n      jumpi\n        /* \"#utility.yul\":2246:2247   */\n      0x00\n        /* \"#utility.yul\":2243:2244   */\n      0x00\n        /* \"#utility.yul\":2236:2248   */\n      revert\n        /* \"#utility.yul\":2188:2250   */\n    tag_255:\n        /* \"#utility.yul\":2136:2256   */\n      pop\n      jump\t// out\n        /* \"#utility.yul\":2262:2399   */\n    tag_182:\n        /* \"#utility.yul\":2307:2312   */\n      0x00\n        /* \"#utility.yul\":2345:2351   */\n      dup2\n        /* \"#utility.yul\":2332:2352   */\n      calldataload\n        /* \"#utility.yul\":2323:2352   */\n      swap1\n      pop\n        /* \"#utility.yul\":2361:2393   */\n      tag_257\n        /* \"#utility.yul\":2387:2392   */\n      dup2\n        /* \"#utility.yul\":2361:2393   */\n      tag_181\n      jump\t// in\n    tag_257:\n        /* \"#utility.yul\":2262:2399   */\n      swap3\n      swap2\n      pop\n      pop\n      jump\t// out\n        /* \"#utility.yul\":2405:3168   */\n    tag_20:\n        /* \"#utility.yul\":2490:2496   */\n      0x00\n        /* \"#utility.yul\":2498:2504   */\n      0x00\n        /* \"#utility.yul\":2506:2512   */\n      0x00\n        /* \"#utility.yul\":2514:2520   */\n      0x00\n        /* \"#utility.yul\":2563:2566   */\n      0x80\n        /* \"#utility.yul\":2551:2560   */\n      dup6\n        /* \"#utility.yul\":2542:2549   */\n      dup8\n        /* \"#utility.yul\":2538:2561   */\n      sub\n        /* \"#utility.yul\":2534:2567   */\n      slt\n        /* \"#utility.yul\":2531:2651   */\n      iszero\n      tag_259\n      jumpi\n        /* \"#utility.yul\":2570:2649   */\n      tag_260\n      tag_170\n      jump\t// in\n    tag_260:\n        /* \"#utility.yul\":2531:2651   */\n    tag_259:\n        /* \"#utility.yul\":2690:2691   */\n      0x00\n        /* \"#utility.yul\":2715:2768   */\n      tag_261\n        /* \"#utility.yul\":2760:2767   */\n      dup8\n        /* \"#utility.yul\":2751:2757   */\n      dup3\n        /* \"#utility.yul\":2740:2749   */\n      dup9\n        /* \"#utility.yul\":2736:2758   */\n      add\n        /* \"#utility.yul\":2715:2768   */\n      tag_175\n      jump\t// in\n    tag_261:\n        /* \"#utility.yul\":2705:2768   */\n      swap5\n      pop\n        /* \"#utility.yul\":2661:2778   */\n      pop\n        /* \"#utility.yul\":2817:2819   */\n      0x20\n        /* \"#utility.yul\":2843:2896   */\n      tag_262\n        /* \"#utility.yul\":2888:2895   */\n      dup8\n        /* \"#utility.yul\":2879:2885   */\n      dup3\n        /* \"#utility.yul\":2868:2877   */\n      dup9\n        /* \"#utility.yul\":2864:2886   */\n      add\n        /* \"#utility.yul\":2843:2896   */\n      tag_179\n      jump\t// in\n    tag_262:\n        /* \"#utility.yul\":2833:2896   */\n      swap4\n      pop\n        /* \"#utility.yul\":2788:2906   */\n      pop\n        /* \"#utility.yul\":2945:2947   */\n      0x40\n        /* \"#utility.yul\":2971:3024   */\n      tag_263\n        /* \"#utility.yul\":3016:3023   */\n      dup8\n        /* \"#utility.yul\":3007:3013   */\n      dup3\n        /* \"#utility.yul\":2996:3005   */\n      dup9\n        /* \"#utility.yul\":2992:3014   */\n      add\n        /* \"#utility.yul\":2971:3024   */\n      tag_175\n      jump\t// in\n    tag_263:\n        /* \"#utility.yul\":2961:3024   */\n      swap3\n      pop\n        /* \"#utility.yul\":2916:3034   */\n      pop\n        /* \"#utility.yul\":3073:3075   */\n      0x60\n        /* \"#utility.yul\":3099:3151   */\n      tag_264\n        /* \"#utility.yul\":3143:3150   */\n      dup8\n        /* \"#utility.yul\":3134:3140   */\n      dup3\n        /* \"#utility.yul\":3123:3132   */\n      dup9\n        /* \"#utility.yul\":3119:3141   */\n      add\n        /* \"#utility.yul\":3099:3151   */\n      tag_182\n      jump\t// in\n    tag_264:\n        /* \"#utility.yul\":3089:3151   */\n      swap2\n      pop\n        /* \"#utility.yul\":3044:3161   */\n      pop\n        /* \"#utility.yul\":2405:3168   */\n      swap3\n      swap6\n      swap2\n      swap5\n      pop\n      swap3\n      pop\n      jump\t// out\n        /* \"#utility.yul\":3174:3251   */\n    tag_183:\n        /* \"#utility.yul\":3211:3218   */\n      0x00\n        /* \"#utility.yul\":3240:3245   */\n      dup2\n        /* \"#utility.yul\":3229:3245   */\n      swap1\n      pop\n        /* \"#utility.yul\":3174:3251   */\n      swap2\n      swap1\n      pop\n      jump\t// out\n        /* \"#utility.yul\":3257:3375   */\n    tag_184:\n        /* \"#utility.yul\":3344:3368   */\n      tag_267\n        /* \"#utility.yul\":3362:3367   */\n      dup2\n        /* \"#utility.yul\":3344:3368   */\n      tag_183\n      jump\t// in\n    tag_267:\n        /* \"#utility.yul\":3339:3342   */\n      dup3\n        /* \"#utility.yul\":3332:3369   */\n      mstore\n        /* \"#utility.yul\":3257:3375   */\n      pop\n      pop\n      jump\t// out\n        /* \"#utility.yul\":3381:3603   */\n    tag_23:\n        /* \"#utility.yul\":3474:3478   */\n      0x00\n        /* \"#utility.yul\":3512:3514   */\n      0x20\n        /* \"#utility.yul\":3501:3510   */\n      dup3\n        /* \"#utility.yul\":3497:3515   */\n      add\n        /* \"#utility.yul\":3489:3515   */\n      swap1\n      pop\n        /* \"#utility.yul\":3525:3596   */\n      tag_269\n        /* \"#utility.yul\":3593:3594   */\n      0x00\n        /* \"#utility.yul\":3582:3591   */\n      dup4\n        /* \"#utility.yul\":3578:3595   */\n      add\n        /* \"#utility.yul\":3569:3575   */\n      dup5\n        /* \"#utility.yul\":3525:3596   */\n      tag_184\n      jump\t// in\n    tag_269:\n        /* \"#utility.yul\":3381:3603   */\n      swap3\n      swap2\n      pop\n      pop\n      jump\t// out\n        /* \"#utility.yul\":3609:3938   */\n    tag_26:\n        /* \"#utility.yul\":3668:3674   */\n      0x00\n        /* \"#utility.yul\":3717:3719   */\n      0x20\n        /* \"#utility.yul\":3705:3714   */\n      dup3\n        /* \"#utility.yul\":3696:3703   */\n      dup5\n        /* \"#utility.yul\":3692:3715   */\n      sub\n        /* \"#utility.yul\":3688:3720   */\n      slt\n        /* \"#utility.yul\":3685:3804   */\n      iszero\n      tag_271\n      jumpi\n        /* \"#utility.yul\":3723:3802   */\n      tag_272\n      tag_170\n      jump\t// in\n    tag_272:\n        /* \"#utility.yul\":3685:3804   */\n    tag_271:\n        /* \"#utility.yul\":3843:3844   */\n      0x00\n        /* \"#utility.yul\":3868:3921   */\n      tag_273\n        /* \"#utility.yul\":3913:3920   */\n      dup5\n        /* \"#utility.yul\":3904:3910   */\n      dup3\n        /* \"#utility.yul\":3893:3902   */\n      dup6\n        /* \"#utility.yul\":3889:3911   */\n      add\n        /* \"#utility.yul\":3868:3921   */\n      tag_175\n      jump\t// in\n    tag_273:\n        /* \"#utility.yul\":3858:3921   */\n      swap2\n      pop\n        /* \"#utility.yul\":3814:3931   */\n      pop\n        /* \"#utility.yul\":3609:3938   */\n      swap3\n      swap2\n      pop\n      pop\n      jump\t// out\n        /* \"#utility.yul\":3944:4087   */\n    tag_185:\n        /* \"#utility.yul\":4001:4006   */\n      0x00\n        /* \"#utility.yul\":4032:4038   */\n      dup2\n        /* \"#utility.yul\":4026:4039   */\n      mload\n        /* \"#utility.yul\":4017:4039   */\n      swap1\n      pop\n        /* \"#utility.yul\":4048:4081   */\n      tag_275\n        /* \"#utility.yul\":4075:4080   */\n      dup2\n        /* \"#utility.yul\":4048:4081   */\n      tag_178\n      jump\t// in\n    tag_275:\n        /* \"#utility.yul\":3944:4087   */\n      swap3\n      swap2\n      pop\n      pop\n      jump\t// out\n        /* \"#utility.yul\":4093:4444   */\n    tag_36:\n        /* \"#utility.yul\":4163:4169   */\n      0x00\n        /* \"#utility.yul\":4212:4214   */\n      0x20\n        /* \"#utility.yul\":4200:4209   */\n      dup3\n        /* \"#utility.yul\":4191:4198   */\n      dup5\n        /* \"#utility.yul\":4187:4210   */\n      sub\n        /* \"#utility.yul\":4183:4215   */\n      slt\n        /* \"#utility.yul\":4180:4299   */\n      iszero\n      tag_277\n      jumpi\n        /* \"#utility.yul\":4218:4297   */\n      tag_278\n      tag_170\n      jump\t// in\n    tag_278:\n        /* \"#utility.yul\":4180:4299   */\n    tag_277:\n        /* \"#utility.yul\":4338:4339   */\n      0x00\n        /* \"#utility.yul\":4363:4427   */\n      tag_279\n        /* \"#utility.yul\":4419:4426   */\n      dup5\n        /* \"#utility.yul\":4410:4416   */\n      dup3\n        /* \"#utility.yul\":4399:4408   */\n      dup6\n        /* \"#utility.yul\":4395:4417   */\n      add\n        /* \"#utility.yul\":4363:4427   */\n      tag_185\n      jump\t// in\n    tag_279:\n        /* \"#utility.yul\":4353:4427   */\n      swap2\n      pop\n        /* \"#utility.yul\":4309:4437   */\n      pop\n        /* \"#utility.yul\":4093:4444   */\n      swap3\n      swap2\n      pop\n      pop\n      jump\t// out\n        /* \"#utility.yul\":4450:4568   */\n    tag_186:\n        /* \"#utility.yul\":4537:4561   */\n      tag_281\n        /* \"#utility.yul\":4555:4560   */\n      dup2\n        /* \"#utility.yul\":4537:4561   */\n      tag_177\n      jump\t// in\n    tag_281:\n        /* \"#utility.yul\":4532:4535   */\n      dup3\n        /* \"#utility.yul\":4525:4562   */\n      mstore\n        /* \"#utility.yul\":4450:4568   */\n      pop\n      pop\n      jump\t// out\n        /* \"#utility.yul\":4574:4906   */\n    tag_39:\n        /* \"#utility.yul\":4695:4699   */\n      0x00\n        /* \"#utility.yul\":4733:4735   */\n      0x40\n        /* \"#utility.yul\":4722:4731   */\n      dup3\n        /* \"#utility.yul\":4718:4736   */\n      add\n        /* \"#utility.yul\":4710:4736   */\n      swap1\n      pop\n        /* \"#utility.yul\":4746:4817   */\n      tag_283\n        /* \"#utility.yul\":4814:4815   */\n      0x00\n        /* \"#utility.yul\":4803:4812   */\n      dup4\n        /* \"#utility.yul\":4799:4816   */\n      add\n        /* \"#utility.yul\":4790:4796   */\n      dup6\n        /* \"#utility.yul\":4746:4817   */\n      tag_176\n      jump\t// in\n    tag_283:\n        /* \"#utility.yul\":4827:4899   */\n      tag_284\n        /* \"#utility.yul\":4895:4897   */\n      0x20\n        /* \"#utility.yul\":4884:4893   */\n      dup4\n        /* \"#utility.yul\":4880:4898   */\n      add\n        /* \"#utility.yul\":4871:4877   */\n      dup5\n        /* \"#utility.yul\":4827:4899   */\n      tag_186\n      jump\t// in\n    tag_284:\n        /* \"#utility.yul\":4574:4906   */\n      swap4\n      swap3\n      pop\n      pop\n      pop\n      jump\t// out\n        /* \"#utility.yul\":4912:5002   */\n    tag_187:\n        /* \"#utility.yul\":4946:4953   */\n      0x00\n        /* \"#utility.yul\":4989:4994   */\n      dup2\n        /* \"#utility.yul\":4982:4995   */\n      iszero\n        /* \"#utility.yul\":4975:4996   */\n      iszero\n        /* \"#utility.yul\":4964:4996   */\n      swap1\n      pop\n        /* \"#utility.yul\":4912:5002   */\n      swap2\n      swap1\n      pop\n      jump\t// out\n        /* \"#utility.yul\":5008:5124   */\n    tag_188:\n        /* \"#utility.yul\":5078:5099   */\n      tag_287\n        /* \"#utility.yul\":5093:5098   */\n      dup2\n        /* \"#utility.yul\":5078:5099   */\n      tag_187\n      jump\t// in\n    tag_287:\n        /* \"#utility.yul\":5071:5076   */\n      dup2\n        /* \"#utility.yul\":5068:5100   */\n      eq\n        /* \"#utility.yul\":5058:5118   */\n      tag_288\n      jumpi\n        /* \"#utility.yul\":5114:5115   */\n      0x00\n        /* \"#utility.yul\":5111:5112   */\n      0x00\n        /* \"#utility.yul\":5104:5116   */\n      revert\n        /* \"#utility.yul\":5058:5118   */\n    tag_288:\n        /* \"#utility.yul\":5008:5124   */\n      pop\n      jump\t// out\n        /* \"#utility.yul\":5130:5267   */\n    tag_189:\n        /* \"#utility.yul\":5184:5189   */\n      0x00\n        /* \"#utility.yul\":5215:5221   */\n      dup2\n        /* \"#utility.yul\":5209:5222   */\n      mload\n        /* \"#utility.yul\":5200:5222   */\n      swap1\n      pop\n        /* \"#utility.yul\":5231:5261   */\n      tag_290\n        /* \"#utility.yul\":5255:5260   */\n      dup2\n        /* \"#utility.yul\":5231:5261   */\n      tag_188\n      jump\t// in\n    tag_290:\n        /* \"#utility.yul\":5130:5267   */\n      swap3\n      swap2\n      pop\n      pop\n      jump\t// out\n        /* \"#utility.yul\":5273:5618   */\n    tag_43:\n        /* \"#utility.yul\":5340:5346   */\n      0x00\n        /* \"#utility.yul\":5389:5391   */\n      0x20\n        /* \"#utility.yul\":5377:5386   */\n      dup3\n        /* \"#utility.yul\":5368:5375   */\n      dup5\n        /* \"#utility.yul\":5364:5387   */\n      sub\n        /* \"#utility.yul\":5360:5392   */\n      slt\n        /* \"#utility.yul\":5357:5476   */\n      iszero\n      tag_292\n      jumpi\n        /* \"#utility.yul\":5395:5474   */\n      tag_293\n      tag_170\n      jump\t// in\n    tag_293:\n        /* \"#utility.yul\":5357:5476   */\n    tag_292:\n        /* \"#utility.yul\":5515:5516   */\n      0x00\n        /* \"#utility.yul\":5540:5601   */\n      tag_294\n        /* \"#utility.yul\":5593:5600   */\n      dup5\n        /* \"#utility.yul\":5584:5590   */\n      dup3\n        /* \"#utility.yul\":5573:5582   */\n      dup6\n        /* \"#utility.yul\":5569:5591   */\n      add\n        /* \"#utility.yul\":5540:5601   */\n      tag_189\n      jump\t// in\n    tag_294:\n        /* \"#utility.yul\":5530:5601   */\n      swap2\n      pop\n        /* \"#utility.yul\":5486:5611   */\n      pop\n        /* \"#utility.yul\":5273:5618   */\n      swap3\n      swap2\n      pop\n      pop\n      jump\t// out\n        /* \"#utility.yul\":5624:5684   */\n    tag_190:\n        /* \"#utility.yul\":5652:5655   */\n      0x00\n        /* \"#utility.yul\":5673:5678   */\n      dup2\n        /* \"#utility.yul\":5666:5678   */\n      swap1\n      pop\n        /* \"#utility.yul\":5624:5684   */\n      swap2\n      swap1\n      pop\n      jump\t// out\n        /* \"#utility.yul\":5690:5832   */\n    tag_191:\n        /* \"#utility.yul\":5740:5749   */\n      0x00\n        /* \"#utility.yul\":5773:5826   */\n      tag_297\n        /* \"#utility.yul\":5791:5825   */\n      tag_298\n        /* \"#utility.yul\":5800:5824   */\n      tag_299\n        /* \"#utility.yul\":5818:5823   */\n      dup5\n        /* \"#utility.yul\":5800:5824   */\n      tag_172\n      jump\t// in\n    tag_299:\n        /* \"#utility.yul\":5791:5825   */\n      tag_190\n      jump\t// in\n    tag_298:\n        /* \"#utility.yul\":5773:5826   */\n      tag_172\n      jump\t// in\n    tag_297:\n        /* \"#utility.yul\":5760:5826   */\n      swap1\n      pop\n        /* \"#utility.yul\":5690:5832   */\n      swap2\n      swap1\n      pop\n      jump\t// out\n        /* \"#utility.yul\":5838:5964   */\n    tag_192:\n        /* \"#utility.yul\":5888:5897   */\n      0x00\n        /* \"#utility.yul\":5921:5958   */\n      tag_301\n        /* \"#utility.yul\":5952:5957   */\n      dup3\n        /* \"#utility.yul\":5921:5958   */\n      tag_191\n      jump\t// in\n    tag_301:\n        /* \"#utility.yul\":5908:5958   */\n      swap1\n      pop\n        /* \"#utility.yul\":5838:5964   */\n      swap2\n      swap1\n      pop\n      jump\t// out\n        /* \"#utility.yul\":5970:6110   */\n    tag_193:\n        /* \"#utility.yul\":6034:6043   */\n      0x00\n        /* \"#utility.yul\":6067:6104   */\n      tag_303\n        /* \"#utility.yul\":6098:6103   */\n      dup3\n        /* \"#utility.yul\":6067:6104   */\n      tag_192\n      jump\t// in\n    tag_303:\n        /* \"#utility.yul\":6054:6104   */\n      swap1\n      pop\n        /* \"#utility.yul\":5970:6110   */\n      swap2\n      swap1\n      pop\n      jump\t// out\n        /* \"#utility.yul\":6116:6275   */\n    tag_194:\n        /* \"#utility.yul\":6217:6268   */\n      tag_305\n        /* \"#utility.yul\":6262:6267   */\n      dup2\n        /* \"#utility.yul\":6217:6268   */\n      tag_193\n      jump\t// in\n    tag_305:\n        /* \"#utility.yul\":6212:6215   */\n      dup3\n        /* \"#utility.yul\":6205:6269   */\n      mstore\n        /* \"#utility.yul\":6116:6275   */\n      pop\n      pop\n      jump\t// out\n        /* \"#utility.yul\":6281:6751   */\n    tag_61:\n        /* \"#utility.yul\":6444:6448   */\n      0x00\n        /* \"#utility.yul\":6482:6484   */\n      0x60\n        /* \"#utility.yul\":6471:6480   */\n      dup3\n        /* \"#utility.yul\":6467:6485   */\n      add\n        /* \"#utility.yul\":6459:6485   */\n      swap1\n      pop\n        /* \"#utility.yul\":6495:6580   */\n      tag_307\n        /* \"#utility.yul\":6577:6578   */\n      0x00\n        /* \"#utility.yul\":6566:6575   */\n      dup4\n        /* \"#utility.yul\":6562:6579   */\n      add\n        /* \"#utility.yul\":6553:6559   */\n      dup7\n        /* \"#utility.yul\":6495:6580   */\n      tag_194\n      jump\t// in\n    tag_307:\n        /* \"#utility.yul\":6590:6662   */\n      tag_308\n        /* \"#utility.yul\":6658:6660   */\n      0x20\n        /* \"#utility.yul\":6647:6656   */\n      dup4\n        /* \"#utility.yul\":6643:6661   */\n      add\n        /* \"#utility.yul\":6634:6640   */\n      dup6\n        /* \"#utility.yul\":6590:6662   */\n      tag_186\n      jump\t// in\n    tag_308:\n        /* \"#utility.yul\":6672:6744   */\n      tag_309\n        /* \"#utility.yul\":6740:6742   */\n      0x40\n        /* \"#utility.yul\":6729:6738   */\n      dup4\n        /* \"#utility.yul\":6725:6743   */\n      add\n        /* \"#utility.yul\":6716:6722   */\n      dup5\n        /* \"#utility.yul\":6672:6744   */\n      tag_186\n      jump\t// in\n    tag_309:\n        /* \"#utility.yul\":6281:6751   */\n      swap5\n      swap4\n      pop\n      pop\n      pop\n      pop\n      jump\t// out\n        /* \"#utility.yul\":6757:6937   */\n    tag_64:\n        /* \"#utility.yul\":6805:6882   */\n      0x4e487b7100000000000000000000000000000000000000000000000000000000\n        /* \"#utility.yul\":6802:6803   */\n      0x00\n        /* \"#utility.yul\":6795:6883   */\n      mstore\n        /* \"#utility.yul\":6902:6906   */\n      0x41\n        /* \"#utility.yul\":6899:6900   */\n      0x04\n        /* \"#utility.yul\":6892:6907   */\n      mstore\n        /* \"#utility.yul\":6926:6930   */\n      0x24\n        /* \"#utility.yul\":6923:6924   */\n      0x00\n        /* \"#utility.yul\":6916:6931   */\n      revert\n        /* \"#utility.yul\":6943:7123   */\n    tag_71:\n        /* \"#utility.yul\":6991:7068   */\n      0x4e487b7100000000000000000000000000000000000000000000000000000000\n        /* \"#utility.yul\":6988:6989   */\n      0x00\n        /* \"#utility.yul\":6981:7069   */\n      mstore\n        /* \"#utility.yul\":7088:7092   */\n      0x32\n        /* \"#utility.yul\":7085:7086   */\n      0x04\n        /* \"#utility.yul\":7078:7093   */\n      mstore\n        /* \"#utility.yul\":7112:7116   */\n      0x24\n        /* \"#utility.yul\":7109:7110   */\n      0x00\n        /* \"#utility.yul\":7102:7117   */\n      revert\n        /* \"#utility.yul\":7129:7244   */\n    tag_195:\n        /* \"#utility.yul\":7214:7237   */\n      tag_313\n        /* \"#utility.yul\":7231:7236   */\n      dup2\n        /* \"#utility.yul\":7214:7237   */\n      tag_180\n      jump\t// in\n    tag_313:\n        /* \"#utility.yul\":7209:7212   */\n      dup3\n        /* \"#utility.yul\":7202:7238   */\n      mstore\n        /* \"#utility.yul\":7129:7244   */\n      pop\n      pop\n      jump\t// out\n        /* \"#utility.yul\":7250:7348   */\n    tag_196:\n        /* \"#utility.yul\":7301:7307   */\n      0x00\n        /* \"#utility.yul\":7335:7340   */\n      dup2\n        /* \"#utility.yul\":7329:7341   */\n      mload\n        /* \"#utility.yul\":7319:7341   */\n      swap1\n      pop\n        /* \"#utility.yul\":7250:7348   */\n      swap2\n      swap1\n      pop\n      jump\t// out\n        /* \"#utility.yul\":7354:7512   */\n    tag_197:\n        /* \"#utility.yul\":7427:7438   */\n      0x00\n        /* \"#utility.yul\":7461:7467   */\n      dup3\n        /* \"#utility.yul\":7456:7459   */\n      dup3\n        /* \"#utility.yul\":7449:7468   */\n      mstore\n        /* \"#utility.yul\":7501:7505   */\n      0x20\n        /* \"#utility.yul\":7496:7499   */\n      dup3\n        /* \"#utility.yul\":7492:7506   */\n      add\n        /* \"#utility.yul\":7477:7506   */\n      swap1\n      pop\n        /* \"#utility.yul\":7354:7512   */\n      swap3\n      swap2\n      pop\n      pop\n      jump\t// out\n        /* \"#utility.yul\":7518:7657   */\n    tag_198:\n        /* \"#utility.yul\":7607:7613   */\n      dup3\n        /* \"#utility.yul\":7602:7605   */\n      dup2\n        /* \"#utility.yul\":7597:7600   */\n      dup4\n        /* \"#utility.yul\":7591:7614   */\n      mcopy\n        /* \"#utility.yul\":7648:7649   */\n      0x00\n        /* \"#utility.yul\":7639:7645   */\n      dup4\n        /* \"#utility.yul\":7634:7637   */\n      dup4\n        /* \"#utility.yul\":7630:7646   */\n      add\n        /* \"#utility.yul\":7623:7650   */\n      mstore\n        /* \"#utility.yul\":7518:7657   */\n      pop\n      pop\n      pop\n      jump\t// out\n        /* \"#utility.yul\":7663:7765   */\n    tag_199:\n        /* \"#utility.yul\":7704:7710   */\n      0x00\n        /* \"#utility.yul\":7755:7757   */\n      0x1f\n        /* \"#utility.yul\":7751:7758   */\n      not\n        /* \"#utility.yul\":7746:7748   */\n      0x1f\n        /* \"#utility.yul\":7739:7744   */\n      dup4\n        /* \"#utility.yul\":7735:7749   */\n      add\n        /* \"#utility.yul\":7731:7759   */\n      and\n        /* \"#utility.yul\":7721:7759   */\n      swap1\n      pop\n        /* \"#utility.yul\":7663:7765   */\n      swap2\n      swap1\n      pop\n      jump\t// out\n        /* \"#utility.yul\":7771:8124   */\n    tag_200:\n        /* \"#utility.yul\":7847:7850   */\n      0x00\n        /* \"#utility.yul\":7875:7913   */\n      tag_319\n        /* \"#utility.yul\":7907:7912   */\n      dup3\n        /* \"#utility.yul\":7875:7913   */\n      tag_196\n      jump\t// in\n    tag_319:\n        /* \"#utility.yul\":7929:7989   */\n      tag_320\n        /* \"#utility.yul\":7982:7988   */\n      dup2\n        /* \"#utility.yul\":7977:7980   */\n      dup6\n        /* \"#utility.yul\":7929:7989   */\n      tag_197\n      jump\t// in\n    tag_320:\n        /* \"#utility.yul\":7922:7989   */\n      swap4\n      pop\n        /* \"#utility.yul\":7998:8063   */\n      tag_321\n        /* \"#utility.yul\":8056:8062   */\n      dup2\n        /* \"#utility.yul\":8051:8054   */\n      dup6\n        /* \"#utility.yul\":8044:8048   */\n      0x20\n        /* \"#utility.yul\":8037:8042   */\n      dup7\n        /* \"#utility.yul\":8033:8049   */\n      add\n        /* \"#utility.yul\":7998:8063   */\n      tag_198\n      jump\t// in\n    tag_321:\n        /* \"#utility.yul\":8088:8117   */\n      tag_322\n        /* \"#utility.yul\":8110:8116   */\n      dup2\n        /* \"#utility.yul\":8088:8117   */\n      tag_199\n      jump\t// in\n    tag_322:\n        /* \"#utility.yul\":8083:8086   */\n      dup5\n        /* \"#utility.yul\":8079:8118   */\n      add\n        /* \"#utility.yul\":8072:8118   */\n      swap2\n      pop\n        /* \"#utility.yul\":7851:8124   */\n      pop\n        /* \"#utility.yul\":7771:8124   */\n      swap3\n      swap2\n      pop\n      pop\n      jump\t// out\n        /* \"#utility.yul\":8130:8274   */\n    tag_201:\n        /* \"#utility.yul\":8227:8233   */\n      0x00\n        /* \"#utility.yul\":8261:8266   */\n      dup2\n        /* \"#utility.yul\":8255:8267   */\n      mload\n        /* \"#utility.yul\":8245:8267   */\n      swap1\n      pop\n        /* \"#utility.yul\":8130:8274   */\n      swap2\n      swap1\n      pop\n      jump\t// out\n        /* \"#utility.yul\":8280:8484   */\n    tag_202:\n        /* \"#utility.yul\":8399:8410   */\n      0x00\n        /* \"#utility.yul\":8433:8439   */\n      dup3\n        /* \"#utility.yul\":8428:8431   */\n      dup3\n        /* \"#utility.yul\":8421:8440   */\n      mstore\n        /* \"#utility.yul\":8473:8477   */\n      0x20\n        /* \"#utility.yul\":8468:8471   */\n      dup3\n        /* \"#utility.yul\":8464:8478   */\n      add\n        /* \"#utility.yul\":8449:8478   */\n      swap1\n      pop\n        /* \"#utility.yul\":8280:8484   */\n      swap3\n      swap2\n      pop\n      pop\n      jump\t// out\n        /* \"#utility.yul\":8490:8652   */\n    tag_203:\n        /* \"#utility.yul\":8587:8591   */\n      0x00\n        /* \"#utility.yul\":8610:8613   */\n      dup2\n        /* \"#utility.yul\":8602:8613   */\n      swap1\n      pop\n        /* \"#utility.yul\":8640:8644   */\n      0x20\n        /* \"#utility.yul\":8635:8638   */\n      dup3\n        /* \"#utility.yul\":8631:8645   */\n      add\n        /* \"#utility.yul\":8623:8645   */\n      swap1\n      pop\n        /* \"#utility.yul\":8490:8652   */\n      swap2\n      swap1\n      pop\n      jump\t// out\n        /* \"#utility.yul\":8658:8766   */\n    tag_204:\n        /* \"#utility.yul\":8735:8759   */\n      tag_327\n        /* \"#utility.yul\":8753:8758   */\n      dup2\n        /* \"#utility.yul\":8735:8759   */\n      tag_173\n      jump\t// in\n    tag_327:\n        /* \"#utility.yul\":8730:8733   */\n      dup3\n        /* \"#utility.yul\":8723:8760   */\n      mstore\n        /* \"#utility.yul\":8658:8766   */\n      pop\n      pop\n      jump\t// out\n        /* \"#utility.yul\":8772:8880   */\n    tag_205:\n        /* \"#utility.yul\":8849:8873   */\n      tag_329\n        /* \"#utility.yul\":8867:8872   */\n      dup2\n        /* \"#utility.yul\":8849:8873   */\n      tag_177\n      jump\t// in\n    tag_329:\n        /* \"#utility.yul\":8844:8847   */\n      dup3\n        /* \"#utility.yul\":8837:8874   */\n      mstore\n        /* \"#utility.yul\":8772:8880   */\n      pop\n      pop\n      jump\t// out\n        /* \"#utility.yul\":8954:9464   */\n    tag_206:\n        /* \"#utility.yul\":9101:9105   */\n      0x40\n        /* \"#utility.yul\":9096:9099   */\n      dup3\n        /* \"#utility.yul\":9092:9106   */\n      add\n        /* \"#utility.yul\":9189:9193   */\n      0x00\n        /* \"#utility.yul\":9182:9187   */\n      dup3\n        /* \"#utility.yul\":9178:9194   */\n      add\n        /* \"#utility.yul\":9172:9195   */\n      mload\n        /* \"#utility.yul\":9208:9271   */\n      tag_331\n        /* \"#utility.yul\":9265:9269   */\n      0x00\n        /* \"#utility.yul\":9260:9263   */\n      dup6\n        /* \"#utility.yul\":9256:9270   */\n      add\n        /* \"#utility.yul\":9242:9254   */\n      dup3\n        /* \"#utility.yul\":9208:9271   */\n      tag_204\n      jump\t// in\n    tag_331:\n        /* \"#utility.yul\":9116:9281   */\n      pop\n        /* \"#utility.yul\":9365:9369   */\n      0x20\n        /* \"#utility.yul\":9358:9363   */\n      dup3\n        /* \"#utility.yul\":9354:9370   */\n      add\n        /* \"#utility.yul\":9348:9371   */\n      mload\n        /* \"#utility.yul\":9384:9447   */\n      tag_332\n        /* \"#utility.yul\":9441:9445   */\n      0x20\n        /* \"#utility.yul\":9436:9439   */\n      dup6\n        /* \"#utility.yul\":9432:9446   */\n      add\n        /* \"#utility.yul\":9418:9430   */\n      dup3\n        /* \"#utility.yul\":9384:9447   */\n      tag_205\n      jump\t// in\n    tag_332:\n        /* \"#utility.yul\":9291:9457   */\n      pop\n        /* \"#utility.yul\":9070:9464   */\n      pop\n        /* \"#utility.yul\":8954:9464   */\n      pop\n      pop\n      jump\t// out\n        /* \"#utility.yul\":9470:9769   */\n    tag_207:\n        /* \"#utility.yul\":9599:9609   */\n      0x00\n        /* \"#utility.yul\":9620:9726   */\n      tag_334\n        /* \"#utility.yul\":9722:9725   */\n      dup4\n        /* \"#utility.yul\":9714:9720   */\n      dup4\n        /* \"#utility.yul\":9620:9726   */\n      tag_206\n      jump\t// in\n    tag_334:\n        /* \"#utility.yul\":9758:9762   */\n      0x40\n        /* \"#utility.yul\":9753:9756   */\n      dup4\n        /* \"#utility.yul\":9749:9763   */\n      add\n        /* \"#utility.yul\":9735:9763   */\n      swap1\n      pop\n        /* \"#utility.yul\":9470:9769   */\n      swap3\n      swap2\n      pop\n      pop\n      jump\t// out\n        /* \"#utility.yul\":9775:9918   */\n    tag_208:\n        /* \"#utility.yul\":9875:9879   */\n      0x00\n        /* \"#utility.yul\":9907:9911   */\n      0x20\n        /* \"#utility.yul\":9902:9905   */\n      dup3\n        /* \"#utility.yul\":9898:9912   */\n      add\n        /* \"#utility.yul\":9890:9912   */\n      swap1\n      pop\n        /* \"#utility.yul\":9775:9918   */\n      swap2\n      swap1\n      pop\n      jump\t// out\n        /* \"#utility.yul\":9996:10948   */\n    tag_209:\n        /* \"#utility.yul\":10165:10168   */\n      0x00\n        /* \"#utility.yul\":10194:10278   */\n      tag_337\n        /* \"#utility.yul\":10272:10277   */\n      dup3\n        /* \"#utility.yul\":10194:10278   */\n      tag_201\n      jump\t// in\n    tag_337:\n        /* \"#utility.yul\":10294:10400   */\n      tag_338\n        /* \"#utility.yul\":10393:10399   */\n      dup2\n        /* \"#utility.yul\":10388:10391   */\n      dup6\n        /* \"#utility.yul\":10294:10400   */\n      tag_202\n      jump\t// in\n    tag_338:\n        /* \"#utility.yul\":10287:10400   */\n      swap4\n      pop\n        /* \"#utility.yul\":10424:10510   */\n      tag_339\n        /* \"#utility.yul\":10504:10509   */\n      dup4\n        /* \"#utility.yul\":10424:10510   */\n      tag_203\n      jump\t// in\n    tag_339:\n        /* \"#utility.yul\":10533:10540   */\n      dup1\n        /* \"#utility.yul\":10564:10565   */\n      0x00\n        /* \"#utility.yul\":10549:10923   */\n    tag_340:\n        /* \"#utility.yul\":10574:10580   */\n      dup4\n        /* \"#utility.yul\":10571:10572   */\n      dup2\n        /* \"#utility.yul\":10568:10581   */\n      lt\n        /* \"#utility.yul\":10549:10923   */\n      iszero\n      tag_342\n      jumpi\n        /* \"#utility.yul\":10650:10656   */\n      dup2\n        /* \"#utility.yul\":10644:10657   */\n      mload\n        /* \"#utility.yul\":10677:10800   */\n      tag_343\n        /* \"#utility.yul\":10796:10799   */\n      dup9\n        /* \"#utility.yul\":10781:10794   */\n      dup3\n        /* \"#utility.yul\":10677:10800   */\n      tag_207\n      jump\t// in\n    tag_343:\n        /* \"#utility.yul\":10670:10800   */\n      swap8\n      pop\n        /* \"#utility.yul\":10823:10913   */\n      tag_344\n        /* \"#utility.yul\":10906:10912   */\n      dup4\n        /* \"#utility.yul\":10823:10913   */\n      tag_208\n      jump\t// in\n    tag_344:\n        /* \"#utility.yul\":10813:10913   */\n      swap3\n      pop\n        /* \"#utility.yul\":10609:10923   */\n      pop\n        /* \"#utility.yul\":10596:10597   */\n      0x01\n        /* \"#utility.yul\":10593:10594   */\n      dup2\n        /* \"#utility.yul\":10589:10598   */\n      add\n        /* \"#utility.yul\":10584:10598   */\n      swap1\n      pop\n        /* \"#utility.yul\":10549:10923   */\n      jump(tag_340)\n    tag_342:\n        /* \"#utility.yul\":10553:10567   */\n      pop\n        /* \"#utility.yul\":10939:10942   */\n      dup6\n        /* \"#utility.yul\":10932:10942   */\n      swap4\n      pop\n        /* \"#utility.yul\":10170:10948   */\n      pop\n      pop\n      pop\n        /* \"#utility.yul\":9996:10948   */\n      swap3\n      swap2\n      pop\n      pop\n      jump\t// out\n        /* \"#utility.yul\":11022:12478   */\n    tag_210:\n        /* \"#utility.yul\":11151:11154   */\n      0x00\n        /* \"#utility.yul\":11187:11191   */\n      0xa0\n        /* \"#utility.yul\":11182:11185   */\n      dup4\n        /* \"#utility.yul\":11178:11192   */\n      add\n        /* \"#utility.yul\":11278:11282   */\n      0x00\n        /* \"#utility.yul\":11271:11276   */\n      dup4\n        /* \"#utility.yul\":11267:11283   */\n      add\n        /* \"#utility.yul\":11261:11284   */\n      mload\n        /* \"#utility.yul\":11331:11334   */\n      dup5\n        /* \"#utility.yul\":11325:11329   */\n      dup3\n        /* \"#utility.yul\":11321:11335   */\n      sub\n        /* \"#utility.yul\":11314:11318   */\n      0x00\n        /* \"#utility.yul\":11309:11312   */\n      dup7\n        /* \"#utility.yul\":11305:11319   */\n      add\n        /* \"#utility.yul\":11298:11336   */\n      mstore\n        /* \"#utility.yul\":11357:11428   */\n      tag_346\n        /* \"#utility.yul\":11423:11427   */\n      dup3\n        /* \"#utility.yul\":11409:11421   */\n      dup3\n        /* \"#utility.yul\":11357:11428   */\n      tag_200\n      jump\t// in\n    tag_346:\n        /* \"#utility.yul\":11349:11428   */\n      swap2\n      pop\n        /* \"#utility.yul\":11202:11439   */\n      pop\n        /* \"#utility.yul\":11521:11525   */\n      0x20\n        /* \"#utility.yul\":11514:11519   */\n      dup4\n        /* \"#utility.yul\":11510:11526   */\n      add\n        /* \"#utility.yul\":11504:11527   */\n      mload\n        /* \"#utility.yul\":11574:11577   */\n      dup5\n        /* \"#utility.yul\":11568:11572   */\n      dup3\n        /* \"#utility.yul\":11564:11578   */\n      sub\n        /* \"#utility.yul\":11557:11561   */\n      0x20\n        /* \"#utility.yul\":11552:11555   */\n      dup7\n        /* \"#utility.yul\":11548:11562   */\n      add\n        /* \"#utility.yul\":11541:11579   */\n      mstore\n        /* \"#utility.yul\":11600:11671   */\n      tag_347\n        /* \"#utility.yul\":11666:11670   */\n      dup3\n        /* \"#utility.yul\":11652:11664   */\n      dup3\n        /* \"#utility.yul\":11600:11671   */\n      tag_200\n      jump\t// in\n    tag_347:\n        /* \"#utility.yul\":11592:11671   */\n      swap2\n      pop\n        /* \"#utility.yul\":11449:11682   */\n      pop\n        /* \"#utility.yul\":11772:11776   */\n      0x40\n        /* \"#utility.yul\":11765:11770   */\n      dup4\n        /* \"#utility.yul\":11761:11777   */\n      add\n        /* \"#utility.yul\":11755:11778   */\n      mload\n        /* \"#utility.yul\":11825:11828   */\n      dup5\n        /* \"#utility.yul\":11819:11823   */\n      dup3\n        /* \"#utility.yul\":11815:11829   */\n      sub\n        /* \"#utility.yul\":11808:11812   */\n      0x40\n        /* \"#utility.yul\":11803:11806   */\n      dup7\n        /* \"#utility.yul\":11799:11813   */\n      add\n        /* \"#utility.yul\":11792:11830   */\n      mstore\n        /* \"#utility.yul\":11851:12014   */\n      tag_348\n        /* \"#utility.yul\":12009:12013   */\n      dup3\n        /* \"#utility.yul\":11995:12007   */\n      dup3\n        /* \"#utility.yul\":11851:12014   */\n      tag_209\n      jump\t// in\n    tag_348:\n        /* \"#utility.yul\":11843:12014   */\n      swap2\n      pop\n        /* \"#utility.yul\":11692:12025   */\n      pop\n        /* \"#utility.yul\":12111:12115   */\n      0x60\n        /* \"#utility.yul\":12104:12109   */\n      dup4\n        /* \"#utility.yul\":12100:12116   */\n      add\n        /* \"#utility.yul\":12094:12117   */\n      mload\n        /* \"#utility.yul\":12130:12193   */\n      tag_349\n        /* \"#utility.yul\":12187:12191   */\n      0x60\n        /* \"#utility.yul\":12182:12185   */\n      dup7\n        /* \"#utility.yul\":12178:12192   */\n      add\n        /* \"#utility.yul\":12164:12176   */\n      dup3\n        /* \"#utility.yul\":12130:12193   */\n      tag_204\n      jump\t// in\n    tag_349:\n        /* \"#utility.yul\":12035:12203   */\n      pop\n        /* \"#utility.yul\":12290:12294   */\n      0x80\n        /* \"#utility.yul\":12283:12288   */\n      dup4\n        /* \"#utility.yul\":12279:12295   */\n      add\n        /* \"#utility.yul\":12273:12296   */\n      mload\n        /* \"#utility.yul\":12343:12346   */\n      dup5\n        /* \"#utility.yul\":12337:12341   */\n      dup3\n        /* \"#utility.yul\":12333:12347   */\n      sub\n        /* \"#utility.yul\":12326:12330   */\n      0x80\n        /* \"#utility.yul\":12321:12324   */\n      dup7\n        /* \"#utility.yul\":12317:12331   */\n      add\n        /* \"#utility.yul\":12310:12348   */\n      mstore\n        /* \"#utility.yul\":12369:12440   */\n      tag_350\n        /* \"#utility.yul\":12435:12439   */\n      dup3\n        /* \"#utility.yul\":12421:12433   */\n      dup3\n        /* \"#utility.yul\":12369:12440   */\n      tag_200\n      jump\t// in\n    tag_350:\n        /* \"#utility.yul\":12361:12440   */\n      swap2\n      pop\n        /* \"#utility.yul\":12213:12451   */\n      pop\n        /* \"#utility.yul\":12468:12472   */\n      dup1\n        /* \"#utility.yul\":12461:12472   */\n      swap2\n      pop\n        /* \"#utility.yul\":11156:12478   */\n      pop\n        /* \"#utility.yul\":11022:12478   */\n      swap3\n      swap2\n      pop\n      pop\n      jump\t// out\n        /* \"#utility.yul\":12484:12983   */\n    tag_76:\n        /* \"#utility.yul\":12663:12667   */\n      0x00\n        /* \"#utility.yul\":12701:12703   */\n      0x40\n        /* \"#utility.yul\":12690:12699   */\n      dup3\n        /* \"#utility.yul\":12686:12704   */\n      add\n        /* \"#utility.yul\":12678:12704   */\n      swap1\n      pop\n        /* \"#utility.yul\":12714:12783   */\n      tag_352\n        /* \"#utility.yul\":12780:12781   */\n      0x00\n        /* \"#utility.yul\":12769:12778   */\n      dup4\n        /* \"#utility.yul\":12765:12782   */\n      add\n        /* \"#utility.yul\":12756:12762   */\n      dup6\n        /* \"#utility.yul\":12714:12783   */\n      tag_195\n      jump\t// in\n    tag_352:\n        /* \"#utility.yul\":12830:12839   */\n      dup2\n        /* \"#utility.yul\":12824:12828   */\n      dup2\n        /* \"#utility.yul\":12820:12840   */\n      sub\n        /* \"#utility.yul\":12815:12817   */\n      0x20\n        /* \"#utility.yul\":12804:12813   */\n      dup4\n        /* \"#utility.yul\":12800:12818   */\n      add\n        /* \"#utility.yul\":12793:12841   */\n      mstore\n        /* \"#utility.yul\":12858:12976   */\n      tag_353\n        /* \"#utility.yul\":12971:12975   */\n      dup2\n        /* \"#utility.yul\":12962:12968   */\n      dup5\n        /* \"#utility.yul\":12858:12976   */\n      tag_210\n      jump\t// in\n    tag_353:\n        /* \"#utility.yul\":12850:12976   */\n      swap1\n      pop\n        /* \"#utility.yul\":12484:12983   */\n      swap4\n      swap3\n      pop\n      pop\n      pop\n      jump\t// out\n        /* \"#utility.yul\":12989:13111   */\n    tag_211:\n        /* \"#utility.yul\":13062:13086   */\n      tag_355\n        /* \"#utility.yul\":13080:13085   */\n      dup2\n        /* \"#utility.yul\":13062:13086   */\n      tag_183\n      jump\t// in\n    tag_355:\n        /* \"#utility.yul\":13055:13060   */\n      dup2\n        /* \"#utility.yul\":13052:13087   */\n      eq\n        /* \"#utility.yul\":13042:13105   */\n      tag_356\n      jumpi\n        /* \"#utility.yul\":13101:13102   */\n      0x00\n        /* \"#utility.yul\":13098:13099   */\n      0x00\n        /* \"#utility.yul\":13091:13103   */\n      revert\n        /* \"#utility.yul\":13042:13105   */\n    tag_356:\n        /* \"#utility.yul\":12989:13111   */\n      pop\n      jump\t// out\n        /* \"#utility.yul\":13117:13260   */\n    tag_212:\n        /* \"#utility.yul\":13174:13179   */\n      0x00\n        /* \"#utility.yul\":13205:13211   */\n      dup2\n        /* \"#utility.yul\":13199:13212   */\n      mload\n        /* \"#utility.yul\":13190:13212   */\n      swap1\n      pop\n        /* \"#utility.yul\":13221:13254   */\n      tag_358\n        /* \"#utility.yul\":13248:13253   */\n      dup2\n        /* \"#utility.yul\":13221:13254   */\n      tag_211\n      jump\t// in\n    tag_358:\n        /* \"#utility.yul\":13117:13260   */\n      swap3\n      swap2\n      pop\n      pop\n      jump\t// out\n        /* \"#utility.yul\":13266:13617   */\n    tag_104:\n        /* \"#utility.yul\":13336:13342   */\n      0x00\n        /* \"#utility.yul\":13385:13387   */\n      0x20\n        /* \"#utility.yul\":13373:13382   */\n      dup3\n        /* \"#utility.yul\":13364:13371   */\n      dup5\n        /* \"#utility.yul\":13360:13383   */\n      sub\n        /* \"#utility.yul\":13356:13388   */\n      slt\n        /* \"#utility.yul\":13353:13472   */\n      iszero\n      tag_360\n      jumpi\n        /* \"#utility.yul\":13391:13470   */\n      tag_361\n      tag_170\n      jump\t// in\n    tag_361:\n        /* \"#utility.yul\":13353:13472   */\n    tag_360:\n        /* \"#utility.yul\":13511:13512   */\n      0x00\n        /* \"#utility.yul\":13536:13600   */\n      tag_362\n        /* \"#utility.yul\":13592:13599   */\n      dup5\n        /* \"#utility.yul\":13583:13589   */\n      dup3\n        /* \"#utility.yul\":13572:13581   */\n      dup6\n        /* \"#utility.yul\":13568:13590   */\n      add\n        /* \"#utility.yul\":13536:13600   */\n      tag_212\n      jump\t// in\n    tag_362:\n        /* \"#utility.yul\":13526:13600   */\n      swap2\n      pop\n        /* \"#utility.yul\":13482:13610   */\n      pop\n        /* \"#utility.yul\":13266:13617   */\n      swap3\n      swap2\n      pop\n      pop\n      jump\t// out\n        /* \"#utility.yul\":13623:14176   */\n    tag_106:\n        /* \"#utility.yul\":13800:13804   */\n      0x00\n        /* \"#utility.yul\":13838:13841   */\n      0x80\n        /* \"#utility.yul\":13827:13836   */\n      dup3\n        /* \"#utility.yul\":13823:13842   */\n      add\n        /* \"#utility.yul\":13815:13842   */\n      swap1\n      pop\n        /* \"#utility.yul\":13852:13923   */\n      tag_364\n        /* \"#utility.yul\":13920:13921   */\n      0x00\n        /* \"#utility.yul\":13909:13918   */\n      dup4\n        /* \"#utility.yul\":13905:13922   */\n      add\n        /* \"#utility.yul\":13896:13902   */\n      dup8\n        /* \"#utility.yul\":13852:13923   */\n      tag_184\n      jump\t// in\n    tag_364:\n        /* \"#utility.yul\":13933:14005   */\n      tag_365\n        /* \"#utility.yul\":14001:14003   */\n      0x20\n        /* \"#utility.yul\":13990:13999   */\n      dup4\n        /* \"#utility.yul\":13986:14004   */\n      add\n        /* \"#utility.yul\":13977:13983   */\n      dup7\n        /* \"#utility.yul\":13933:14005   */\n      tag_186\n      jump\t// in\n    tag_365:\n        /* \"#utility.yul\":14015:14087   */\n      tag_366\n        /* \"#utility.yul\":14083:14085   */\n      0x40\n        /* \"#utility.yul\":14072:14081   */\n      dup4\n        /* \"#utility.yul\":14068:14086   */\n      add\n        /* \"#utility.yul\":14059:14065   */\n      dup6\n        /* \"#utility.yul\":14015:14087   */\n      tag_186\n      jump\t// in\n    tag_366:\n        /* \"#utility.yul\":14097:14169   */\n      tag_367\n        /* \"#utility.yul\":14165:14167   */\n      0x60\n        /* \"#utility.yul\":14154:14163   */\n      dup4\n        /* \"#utility.yul\":14150:14168   */\n      add\n        /* \"#utility.yul\":14141:14147   */\n      dup5\n        /* \"#utility.yul\":14097:14169   */\n      tag_176\n      jump\t// in\n    tag_367:\n        /* \"#utility.yul\":13623:14176   */\n      swap6\n      swap5\n      pop\n      pop\n      pop\n      pop\n      pop\n      jump\t// out\n        /* \"#utility.yul\":14250:14597   */\n    tag_213:\n        /* \"#utility.yul\":14407:14411   */\n      0x20\n        /* \"#utility.yul\":14402:14405   */\n      dup3\n        /* \"#utility.yul\":14398:14412   */\n      add\n        /* \"#utility.yul\":14498:14502   */\n      0x00\n        /* \"#utility.yul\":14491:14496   */\n      dup3\n        /* \"#utility.yul\":14487:14503   */\n      add\n        /* \"#utility.yul\":14481:14504   */\n      mload\n        /* \"#utility.yul\":14517:14580   */\n      tag_369\n        /* \"#utility.yul\":14574:14578   */\n      0x00\n        /* \"#utility.yul\":14569:14572   */\n      dup6\n        /* \"#utility.yul\":14565:14579   */\n      add\n        /* \"#utility.yul\":14551:14563   */\n      dup3\n        /* \"#utility.yul\":14517:14580   */\n      tag_205\n      jump\t// in\n    tag_369:\n        /* \"#utility.yul\":14422:14590   */\n      pop\n        /* \"#utility.yul\":14376:14597   */\n      pop\n        /* \"#utility.yul\":14250:14597   */\n      pop\n      pop\n      jump\t// out\n        /* \"#utility.yul\":14603:14945   */\n    tag_123:\n        /* \"#utility.yul\":14756:14760   */\n      0x00\n        /* \"#utility.yul\":14794:14796   */\n      0x20\n        /* \"#utility.yul\":14783:14792   */\n      dup3\n        /* \"#utility.yul\":14779:14797   */\n      add\n        /* \"#utility.yul\":14771:14797   */\n      swap1\n      pop\n        /* \"#utility.yul\":14807:14938   */\n      tag_371\n        /* \"#utility.yul\":14935:14936   */\n      0x00\n        /* \"#utility.yul\":14924:14933   */\n      dup4\n        /* \"#utility.yul\":14920:14937   */\n      add\n        /* \"#utility.yul\":14911:14917   */\n      dup5\n        /* \"#utility.yul\":14807:14938   */\n      tag_213\n      jump\t// in\n    tag_371:\n        /* \"#utility.yul\":14603:14945   */\n      swap3\n      swap2\n      pop\n      pop\n      jump\t// out\n        /* \"#utility.yul\":14951:15393   */\n    tag_127:\n        /* \"#utility.yul\":15100:15104   */\n      0x00\n        /* \"#utility.yul\":15138:15140   */\n      0x60\n        /* \"#utility.yul\":15127:15136   */\n      dup3\n        /* \"#utility.yul\":15123:15141   */\n      add\n        /* \"#utility.yul\":15115:15141   */\n      swap1\n      pop\n        /* \"#utility.yul\":15151:15222   */\n      tag_373\n        /* \"#utility.yul\":15219:15220   */\n      0x00\n        /* \"#utility.yul\":15208:15217   */\n      dup4\n        /* \"#utility.yul\":15204:15221   */\n      add\n        /* \"#utility.yul\":15195:15201   */\n      dup7\n        /* \"#utility.yul\":15151:15222   */\n      tag_176\n      jump\t// in\n    tag_373:\n        /* \"#utility.yul\":15232:15304   */\n      tag_374\n        /* \"#utility.yul\":15300:15302   */\n      0x20\n        /* \"#utility.yul\":15289:15298   */\n      dup4\n        /* \"#utility.yul\":15285:15303   */\n      add\n        /* \"#utility.yul\":15276:15282   */\n      dup6\n        /* \"#utility.yul\":15232:15304   */\n      tag_176\n      jump\t// in\n    tag_374:\n        /* \"#utility.yul\":15314:15386   */\n      tag_375\n        /* \"#utility.yul\":15382:15384   */\n      0x40\n        /* \"#utility.yul\":15371:15380   */\n      dup4\n        /* \"#utility.yul\":15367:15385   */\n      add\n        /* \"#utility.yul\":15358:15364   */\n      dup5\n        /* \"#utility.yul\":15314:15386   */\n      tag_186\n      jump\t// in\n    tag_375:\n        /* \"#utility.yul\":14951:15393   */\n      swap5\n      swap4\n      pop\n      pop\n      pop\n      pop\n      jump\t// out\n        /* \"#utility.yul\":15399:15568   */\n    tag_214:\n        /* \"#utility.yul\":15483:15494   */\n      0x00\n        /* \"#utility.yul\":15517:15523   */\n      dup3\n        /* \"#utility.yul\":15512:15515   */\n      dup3\n        /* \"#utility.yul\":15505:15524   */\n      mstore\n        /* \"#utility.yul\":15557:15561   */\n      0x20\n        /* \"#utility.yul\":15552:15555   */\n      dup3\n        /* \"#utility.yul\":15548:15562   */\n      add\n        /* \"#utility.yul\":15533:15562   */\n      swap1\n      pop\n        /* \"#utility.yul\":15399:15568   */\n      swap3\n      swap2\n      pop\n      pop\n      jump\t// out\n        /* \"#utility.yul\":15574:15803   */\n    tag_215:\n        /* \"#utility.yul\":15714:15748   */\n      0x5361666545524332303a204552433230206f7065726174696f6e20646964206e\n        /* \"#utility.yul\":15710:15711   */\n      0x00\n        /* \"#utility.yul\":15702:15708   */\n      dup3\n        /* \"#utility.yul\":15698:15712   */\n      add\n        /* \"#utility.yul\":15691:15749   */\n      mstore\n        /* \"#utility.yul\":15783:15795   */\n      0x6f74207375636365656400000000000000000000000000000000000000000000\n        /* \"#utility.yul\":15778:15780   */\n      0x20\n        /* \"#utility.yul\":15770:15776   */\n      dup3\n        /* \"#utility.yul\":15766:15781   */\n      add\n        /* \"#utility.yul\":15759:15796   */\n      mstore\n        /* \"#utility.yul\":15574:15803   */\n      pop\n      jump\t// out\n        /* \"#utility.yul\":15809:16175   */\n    tag_216:\n        /* \"#utility.yul\":15951:15954   */\n      0x00\n        /* \"#utility.yul\":15972:16039   */\n      tag_379\n        /* \"#utility.yul\":16036:16038   */\n      0x2a\n        /* \"#utility.yul\":16031:16034   */\n      dup4\n        /* \"#utility.yul\":15972:16039   */\n      tag_214\n      jump\t// in\n    tag_379:\n        /* \"#utility.yul\":15965:16039   */\n      swap2\n      pop\n        /* \"#utility.yul\":16048:16141   */\n      tag_380\n        /* \"#utility.yul\":16137:16140   */\n      dup3\n        /* \"#utility.yul\":16048:16141   */\n      tag_215\n      jump\t// in\n    tag_380:\n        /* \"#utility.yul\":16166:16168   */\n      0x40\n        /* \"#utility.yul\":16161:16164   */\n      dup3\n        /* \"#utility.yul\":16157:16169   */\n      add\n        /* \"#utility.yul\":16150:16169   */\n      swap1\n      pop\n        /* \"#utility.yul\":15809:16175   */\n      swap2\n      swap1\n      pop\n      jump\t// out\n        /* \"#utility.yul\":16181:16600   */\n    tag_137:\n        /* \"#utility.yul\":16347:16351   */\n      0x00\n        /* \"#utility.yul\":16385:16387   */\n      0x20\n        /* \"#utility.yul\":16374:16383   */\n      dup3\n        /* \"#utility.yul\":16370:16388   */\n      add\n        /* \"#utility.yul\":16362:16388   */\n      swap1\n      pop\n        /* \"#utility.yul\":16434:16443   */\n      dup2\n        /* \"#utility.yul\":16428:16432   */\n      dup2\n        /* \"#utility.yul\":16424:16444   */\n      sub\n        /* \"#utility.yul\":16420:16421   */\n      0x00\n        /* \"#utility.yul\":16409:16418   */\n      dup4\n        /* \"#utility.yul\":16405:16422   */\n      add\n        /* \"#utility.yul\":16398:16445   */\n      mstore\n        /* \"#utility.yul\":16462:16593   */\n      tag_382\n        /* \"#utility.yul\":16588:16592   */\n      dup2\n        /* \"#utility.yul\":16462:16593   */\n      tag_216\n      jump\t// in\n    tag_382:\n        /* \"#utility.yul\":16454:16593   */\n      swap1\n      pop\n        /* \"#utility.yul\":16181:16600   */\n      swap2\n      swap1\n      pop\n      jump\t// out\n        /* \"#utility.yul\":16606:16831   */\n    tag_217:\n        /* \"#utility.yul\":16746:16780   */\n      0x416464726573733a20696e73756666696369656e742062616c616e636520666f\n        /* \"#utility.yul\":16742:16743   */\n      0x00\n        /* \"#utility.yul\":16734:16740   */\n      dup3\n        /* \"#utility.yul\":16730:16744   */\n      add\n        /* \"#utility.yul\":16723:16781   */\n      mstore\n        /* \"#utility.yul\":16815:16823   */\n      0x722063616c6c0000000000000000000000000000000000000000000000000000\n        /* \"#utility.yul\":16810:16812   */\n      0x20\n        /* \"#utility.yul\":16802:16808   */\n      dup3\n        /* \"#utility.yul\":16798:16813   */\n      add\n        /* \"#utility.yul\":16791:16824   */\n      mstore\n        /* \"#utility.yul\":16606:16831   */\n      pop\n      jump\t// out\n        /* \"#utility.yul\":16837:17203   */\n    tag_218:\n        /* \"#utility.yul\":16979:16982   */\n      0x00\n        /* \"#utility.yul\":17000:17067   */\n      tag_385\n        /* \"#utility.yul\":17064:17066   */\n      0x26\n        /* \"#utility.yul\":17059:17062   */\n      dup4\n        /* \"#utility.yul\":17000:17067   */\n      tag_214\n      jump\t// in\n    tag_385:\n        /* \"#utility.yul\":16993:17067   */\n      swap2\n      pop\n        /* \"#utility.yul\":17076:17169   */\n      tag_386\n        /* \"#utility.yul\":17165:17168   */\n      dup3\n        /* \"#utility.yul\":17076:17169   */\n      tag_217\n      jump\t// in\n    tag_386:\n        /* \"#utility.yul\":17194:17196   */\n      0x40\n        /* \"#utility.yul\":17189:17192   */\n      dup3\n        /* \"#utility.yul\":17185:17197   */\n      add\n        /* \"#utility.yul\":17178:17197   */\n      swap1\n      pop\n        /* \"#utility.yul\":16837:17203   */\n      swap2\n      swap1\n      pop\n      jump\t// out\n        /* \"#utility.yul\":17209:17628   */\n    tag_144:\n        /* \"#utility.yul\":17375:17379   */\n      0x00\n        /* \"#utility.yul\":17413:17415   */\n      0x20\n        /* \"#utility.yul\":17402:17411   */\n      dup3\n        /* \"#utility.yul\":17398:17416   */\n      add\n        /* \"#utility.yul\":17390:17416   */\n      swap1\n      pop\n        /* \"#utility.yul\":17462:17471   */\n      dup2\n        /* \"#utility.yul\":17456:17460   */\n      dup2\n        /* \"#utility.yul\":17452:17472   */\n      sub\n        /* \"#utility.yul\":17448:17449   */\n      0x00\n        /* \"#utility.yul\":17437:17446   */\n      dup4\n        /* \"#utility.yul\":17433:17450   */\n      add\n        /* \"#utility.yul\":17426:17473   */\n      mstore\n        /* \"#utility.yul\":17490:17621   */\n      tag_388\n        /* \"#utility.yul\":17616:17620   */\n      dup2\n        /* \"#utility.yul\":17490:17621   */\n      tag_218\n      jump\t// in\n    tag_388:\n        /* \"#utility.yul\":17482:17621   */\n      swap1\n      pop\n        /* \"#utility.yul\":17209:17628   */\n      swap2\n      swap1\n      pop\n      jump\t// out\n        /* \"#utility.yul\":17634:17781   */\n    tag_219:\n        /* \"#utility.yul\":17735:17746   */\n      0x00\n        /* \"#utility.yul\":17772:17775   */\n      dup2\n        /* \"#utility.yul\":17757:17775   */\n      swap1\n      pop\n        /* \"#utility.yul\":17634:17781   */\n      swap3\n      swap2\n      pop\n      pop\n      jump\t// out\n        /* \"#utility.yul\":17787:18173   */\n    tag_220:\n        /* \"#utility.yul\":17891:17894   */\n      0x00\n        /* \"#utility.yul\":17919:17957   */\n      tag_391\n        /* \"#utility.yul\":17951:17956   */\n      dup3\n        /* \"#utility.yul\":17919:17957   */\n      tag_196\n      jump\t// in\n    tag_391:\n        /* \"#utility.yul\":17973:18061   */\n      tag_392\n        /* \"#utility.yul\":18054:18060   */\n      dup2\n        /* \"#utility.yul\":18049:18052   */\n      dup6\n        /* \"#utility.yul\":17973:18061   */\n      tag_219\n      jump\t// in\n    tag_392:\n        /* \"#utility.yul\":17966:18061   */\n      swap4\n      pop\n        /* \"#utility.yul\":18070:18135   */\n      tag_393\n        /* \"#utility.yul\":18128:18134   */\n      dup2\n        /* \"#utility.yul\":18123:18126   */\n      dup6\n        /* \"#utility.yul\":18116:18120   */\n      0x20\n        /* \"#utility.yul\":18109:18114   */\n      dup7\n        /* \"#utility.yul\":18105:18121   */\n      add\n        /* \"#utility.yul\":18070:18135   */\n      tag_198\n      jump\t// in\n    tag_393:\n        /* \"#utility.yul\":18160:18166   */\n      dup1\n        /* \"#utility.yul\":18155:18158   */\n      dup5\n        /* \"#utility.yul\":18151:18167   */\n      add\n        /* \"#utility.yul\":18144:18167   */\n      swap2\n      pop\n        /* \"#utility.yul\":17895:18173   */\n      pop\n        /* \"#utility.yul\":17787:18173   */\n      swap3\n      swap2\n      pop\n      pop\n      jump\t// out\n        /* \"#utility.yul\":18179:18450   */\n    tag_146:\n        /* \"#utility.yul\":18309:18312   */\n      0x00\n        /* \"#utility.yul\":18331:18424   */\n      tag_395\n        /* \"#utility.yul\":18420:18423   */\n      dup3\n        /* \"#utility.yul\":18411:18417   */\n      dup5\n        /* \"#utility.yul\":18331:18424   */\n      tag_220\n      jump\t// in\n    tag_395:\n        /* \"#utility.yul\":18324:18424   */\n      swap2\n      pop\n        /* \"#utility.yul\":18441:18444   */\n      dup2\n        /* \"#utility.yul\":18434:18444   */\n      swap1\n      pop\n        /* \"#utility.yul\":18179:18450   */\n      swap3\n      swap2\n      pop\n      pop\n      jump\t// out\n        /* \"#utility.yul\":18456:18635   */\n    tag_221:\n        /* \"#utility.yul\":18596:18627   */\n      0x416464726573733a2063616c6c20746f206e6f6e2d636f6e7472616374000000\n        /* \"#utility.yul\":18592:18593   */\n      0x00\n        /* \"#utility.yul\":18584:18590   */\n      dup3\n        /* \"#utility.yul\":18580:18594   */\n      add\n        /* \"#utility.yul\":18573:18628   */\n      mstore\n        /* \"#utility.yul\":18456:18635   */\n      pop\n      jump\t// out\n        /* \"#utility.yul\":18641:19007   */\n    tag_222:\n        /* \"#utility.yul\":18783:18786   */\n      0x00\n        /* \"#utility.yul\":18804:18871   */\n      tag_398\n        /* \"#utility.yul\":18868:18870   */\n      0x1d\n        /* \"#utility.yul\":18863:18866   */\n      dup4\n        /* \"#utility.yul\":18804:18871   */\n      tag_214\n      jump\t// in\n    tag_398:\n        /* \"#utility.yul\":18797:18871   */\n      swap2\n      pop\n        /* \"#utility.yul\":18880:18973   */\n      tag_399\n        /* \"#utility.yul\":18969:18972   */\n      dup3\n        /* \"#utility.yul\":18880:18973   */\n      tag_221\n      jump\t// in\n    tag_399:\n        /* \"#utility.yul\":18998:19000   */\n      0x20\n        /* \"#utility.yul\":18993:18996   */\n      dup3\n        /* \"#utility.yul\":18989:19001   */\n      add\n        /* \"#utility.yul\":18982:19001   */\n      swap1\n      pop\n        /* \"#utility.yul\":18641:19007   */\n      swap2\n      swap1\n      pop\n      jump\t// out\n        /* \"#utility.yul\":19013:19432   */\n    tag_159:\n        /* \"#utility.yul\":19179:19183   */\n      0x00\n        /* \"#utility.yul\":19217:19219   */\n      0x20\n        /* \"#utility.yul\":19206:19215   */\n      dup3\n        /* \"#utility.yul\":19202:19220   */\n      add\n        /* \"#utility.yul\":19194:19220   */\n      swap1\n      pop\n        /* \"#utility.yul\":19266:19275   */\n      dup2\n        /* \"#utility.yul\":19260:19264   */\n      dup2\n        /* \"#utility.yul\":19256:19276   */\n      sub\n        /* \"#utility.yul\":19252:19253   */\n      0x00\n        /* \"#utility.yul\":19241:19250   */\n      dup4\n        /* \"#utility.yul\":19237:19254   */\n      add\n        /* \"#utility.yul\":19230:19277   */\n      mstore\n        /* \"#utility.yul\":19294:19425   */\n      tag_401\n        /* \"#utility.yul\":19420:19424   */\n      dup2\n        /* \"#utility.yul\":19294:19425   */\n      tag_222\n      jump\t// in\n    tag_401:\n        /* \"#utility.yul\":19286:19425   */\n      swap1\n      pop\n        /* \"#utility.yul\":19013:19432   */\n      swap2\n      swap1\n      pop\n      jump\t// out\n        /* \"#utility.yul\":19438:19537   */\n    tag_223:\n        /* \"#utility.yul\":19490:19496   */\n      0x00\n        /* \"#utility.yul\":19524:19529   */\n      dup2\n        /* \"#utility.yul\":19518:19530   */\n      mload\n        /* \"#utility.yul\":19508:19530   */\n      swap1\n      pop\n        /* \"#utility.yul\":19438:19537   */\n      swap2\n      swap1\n      pop\n      jump\t// out\n        /* \"#utility.yul\":19543:19920   */\n    tag_224:\n        /* \"#utility.yul\":19631:19634   */\n      0x00\n        /* \"#utility.yul\":19659:19698   */\n      tag_404\n        /* \"#utility.yul\":19692:19697   */\n      dup3\n        /* \"#utility.yul\":19659:19698   */\n      tag_223\n      jump\t// in\n    tag_404:\n        /* \"#utility.yul\":19714:19785   */\n      tag_405\n        /* \"#utility.yul\":19778:19784   */\n      dup2\n        /* \"#utility.yul\":19773:19776   */\n      dup6\n        /* \"#utility.yul\":19714:19785   */\n      tag_214\n      jump\t// in\n    tag_405:\n        /* \"#utility.yul\":19707:19785   */\n      swap4\n      pop\n        /* \"#utility.yul\":19794:19859   */\n      tag_406\n        /* \"#utility.yul\":19852:19858   */\n      dup2\n        /* \"#utility.yul\":19847:19850   */\n      dup6\n        /* \"#utility.yul\":19840:19844   */\n      0x20\n        /* \"#utility.yul\":19833:19838   */\n      dup7\n        /* \"#utility.yul\":19829:19845   */\n      add\n        /* \"#utility.yul\":19794:19859   */\n      tag_198\n      jump\t// in\n    tag_406:\n        /* \"#utility.yul\":19884:19913   */\n      tag_407\n        /* \"#utility.yul\":19906:19912   */\n      dup2\n        /* \"#utility.yul\":19884:19913   */\n      tag_199\n      jump\t// in\n    tag_407:\n        /* \"#utility.yul\":19879:19882   */\n      dup5\n        /* \"#utility.yul\":19875:19914   */\n      add\n        /* \"#utility.yul\":19868:19914   */\n      swap2\n      pop\n        /* \"#utility.yul\":19635:19920   */\n      pop\n        /* \"#utility.yul\":19543:19920   */\n      swap3\n      swap2\n      pop\n      pop\n      jump\t// out\n        /* \"#utility.yul\":19926:20239   */\n    tag_168:\n        /* \"#utility.yul\":20039:20043   */\n      0x00\n        /* \"#utility.yul\":20077:20079   */\n      0x20\n        /* \"#utility.yul\":20066:20075   */\n      dup3\n        /* \"#utility.yul\":20062:20080   */\n      add\n        /* \"#utility.yul\":20054:20080   */\n      swap1\n      pop\n        /* \"#utility.yul\":20126:20135   */\n      dup2\n        /* \"#utility.yul\":20120:20124   */\n      dup2\n        /* \"#utility.yul\":20116:20136   */\n      sub\n        /* \"#utility.yul\":20112:20113   */\n      0x00\n        /* \"#utility.yul\":20101:20110   */\n      dup4\n        /* \"#utility.yul\":20097:20114   */\n      add\n        /* \"#utility.yul\":20090:20137   */\n      mstore\n        /* \"#utility.yul\":20154:20232   */\n      tag_409\n        /* \"#utility.yul\":20227:20231   */\n      dup2\n        /* \"#utility.yul\":20218:20224   */\n      dup5\n        /* \"#utility.yul\":20154:20232   */\n      tag_224\n      jump\t// in\n    tag_409:\n        /* \"#utility.yul\":20146:20232   */\n      swap1\n      pop\n        /* \"#utility.yul\":19926:20239   */\n      swap3\n      swap2\n      pop\n      pop\n      jump\t// out\n\n    auxdata: 0xa2646970667358221220c5350ed5af17144003514c2a3b44b08ae74f33a77d4818ce8b3d8af72f04b82a64736f6c634300081e0033\n}\n",
				"bytecode": {
					"linkReferences": {},
					"object": "608060405234801561000f575f5ffd5b50335f73ffffffffffffffffffffffffffffffffffffffff168173ffffffffffffffffffffffffffffffffffffffff1603610081575f6040517f1e4fbdf70000000000000000000000000000000000000000000000000000000081526004016100789190610196565b60405180910390fd5b6100908161009660201b60201c565b506101af565b5f5f5f9054906101000a900473ffffffffffffffffffffffffffffffffffffffff169050815f5f6101000a81548173ffffffffffffffffffffffffffffffffffffffff021916908373ffffffffffffffffffffffffffffffffffffffff1602179055508173ffffffffffffffffffffffffffffffffffffffff168173ffffffffffffffffffffffffffffffffffffffff167f8be0079c531659141344cd1fd0a4f28419497f9722a3daafe3b4186f6b6457e060405160405180910390a35050565b5f73ffffffffffffffffffffffffffffffffffffffff82169050919050565b5f61018082610157565b9050919050565b61019081610176565b82525050565b5f6020820190506101a95f830184610187565b92915050565b611815806101bc5f395ff3fe608060405234801561000f575f5ffd5b5060043610610055575f3560e01c80633aeac4e114610059578063715018a6146100755780638da5cb5b1461007f57806397d317f61461009d578063f2fde38b146100cd575b5f5ffd5b610073600480360381019061006e9190610f1c565b6100e9565b005b61007d61022b565b005b61008761023e565b6040516100949190610f69565b60405180910390f35b6100b760048036038101906100b29190610ff2565b610265565b6040516100c4919061106e565b60405180910390f35b6100e760048036038101906100e29190611087565b61092b565b005b6100f16109af565b5f8190505f8173ffffffffffffffffffffffffffffffffffffffff166370a08231306040518263ffffffff1660e01b815260040161012f9190610f69565b602060405180830381865afa15801561014a573d5f5f3e3d5ffd5b505050506040513d601f19601f8201168201806040525081019061016e91906110c6565b90505f81036101a9576040517fc928195a00000000000000000000000000000000000000000000000000000000815260040160405180910390fd5b8173ffffffffffffffffffffffffffffffffffffffff1663a9059cbb85836040518363ffffffff1660e01b81526004016101e4929190611100565b6020604051808303815f875af1158015610200573d5f5f3e3d5ffd5b505050506040513d601f19601f82011682018060405250810190610224919061115c565b5050505050565b6102336109af565b61023c5f610a36565b565b5f5f5f9054906101000a900473ffffffffffffffffffffffffffffffffffffffff16905090565b5f5f8390508073ffffffffffffffffffffffffffffffffffffffff166370a08231336040518263ffffffff1660e01b81526004016102a39190610f69565b602060405180830381865afa1580156102be573d5f5f3e3d5ffd5b505050506040513d601f19601f820116820180604052508101906102e291906110c6565b8511156103a157808173ffffffffffffffffffffffffffffffffffffffff166370a08231336040518263ffffffff1660e01b81526004016103239190610f69565b602060405180830381865afa15801561033e573d5f5f3e3d5ffd5b505050506040513d601f19601f8201168201806040525081019061036291906110c6565b866040517fb6afa833000000000000000000000000000000000000000000000000000000008152600401610398939291906111e2565b60405180910390fd5b5f600167ffffffffffffffff8111156103bd576103bc611217565b5b6040519080825280602002602001820160405280156103f657816020015b6103e3610e90565b8152602001906001900390816103db5790505b5090505f60405180604001604052808473ffffffffffffffffffffffffffffffffffffffff16815260200188815250905080825f8151811061043b5761043a611244565b5b60200260200101819052505f6040518060a001604052808a6040516020016104639190610f69565b604051602081830303815290604052815260200160405180602001604052805f815250815260200184815260200173779877a7b0d9e8603169ddbd7836e478b462478973ffffffffffffffffffffffffffffffffffffffff1681526020016104d860405180602001604052805f815250610af7565b81525090505f730bf3de8c5d3e8a2b34d2beeb17abfcebaf363a5973ffffffffffffffffffffffffffffffffffffffff166320487ded88846040518363ffffffff1660e01b815260040161052d92919061146b565b602060405180830381865afa158015610548573d5f5f3e3d5ffd5b505050506040513d601f19601f8201168201806040525081019061056c91906110c6565b905073779877a7b0d9e8603169ddbd7836e478b462478973ffffffffffffffffffffffffffffffffffffffff166370a08231306040518263ffffffff1660e01b81526004016105bb9190610f69565b602060405180830381865afa1580156105d6573d5f5f3e3d5ffd5b505050506040513d601f19601f820116820180604052508101906105fa91906110c6565b8111156106cd5773779877a7b0d9e8603169ddbd7836e478b46247898073ffffffffffffffffffffffffffffffffffffffff166370a08231306040518263ffffffff1660e01b815260040161064f9190610f69565b602060405180830381865afa15801561066a573d5f5f3e3d5ffd5b505050506040513d601f19601f8201168201806040525081019061068e91906110c6565b826040517fb6afa8330000000000000000000000000000000000000000000000000000000081526004016106c4939291906111e2565b60405180910390fd5b73779877a7b0d9e8603169ddbd7836e478b462478973ffffffffffffffffffffffffffffffffffffffff1663095ea7b3730bf3de8c5d3e8a2b34d2beeb17abfcebaf363a59836040518363ffffffff1660e01b8152600401610730929190611100565b6020604051808303815f875af115801561074c573d5f5f3e3d5ffd5b505050506040513d601f19601f82011682018060405250810190610770919061115c565b5061079e33308b8873ffffffffffffffffffffffffffffffffffffffff16610b76909392919063ffffffff16565b8473ffffffffffffffffffffffffffffffffffffffff1663095ea7b3730bf3de8c5d3e8a2b34d2beeb17abfcebaf363a598b6040518363ffffffff1660e01b81526004016107ed929190611100565b6020604051808303815f875af1158015610809573d5f5f3e3d5ffd5b505050506040513d601f19601f8201168201806040525081019061082d919061115c565b50730bf3de8c5d3e8a2b34d2beeb17abfcebaf363a5973ffffffffffffffffffffffffffffffffffffffff166396f4e9f988846040518363ffffffff1660e01b815260040161087d92919061146b565b6020604051808303815f875af1158015610899573d5f5f3e3d5ffd5b505050506040513d601f19601f820116820180604052508101906108bd91906114c3565b95508973ffffffffffffffffffffffffffffffffffffffff168767ffffffffffffffff167fbfc364a7d8b42cd188cf53c4c5fdf933337202abb0000693e081d32075ee0b8f888c858d60405161091694939291906114ee565b60405180910390a35050505050949350505050565b6109336109af565b5f73ffffffffffffffffffffffffffffffffffffffff168173ffffffffffffffffffffffffffffffffffffffff16036109a3575f6040517f1e4fbdf700000000000000000000000000000000000000000000000000000000815260040161099a9190610f69565b60405180910390fd5b6109ac81610a36565b50565b6109b7610bff565b73ffffffffffffffffffffffffffffffffffffffff166109d561023e565b73ffffffffffffffffffffffffffffffffffffffff1614610a34576109f8610bff565b6040517f118cdaa7000000000000000000000000000000000000000000000000000000008152600401610a2b9190610f69565b60405180910390fd5b565b5f5f5f9054906101000a900473ffffffffffffffffffffffffffffffffffffffff169050815f5f6101000a81548173ffffffffffffffffffffffffffffffffffffffff021916908373ffffffffffffffffffffffffffffffffffffffff1602179055508173ffffffffffffffffffffffffffffffffffffffff168173ffffffffffffffffffffffffffffffffffffffff167f8be0079c531659141344cd1fd0a4f28419497f9722a3daafe3b4186f6b6457e060405160405180910390a35050565b60606397a657c960e01b82604051602401610b12919061154b565b604051602081830303815290604052907bffffffffffffffffffffffffffffffffffffffffffffffffffffffff19166020820180517bffffffffffffffffffffffffffffffffffffffffffffffffffffffff83818316178352505050509050919050565b610bf9846323b872dd60e01b858585604051602401610b9793929190611564565b604051602081830303815290604052907bffffffffffffffffffffffffffffffffffffffffffffffffffffffff19166020820180517bffffffffffffffffffffffffffffffffffffffffffffffffffffffff8381831617835250505050610c06565b50505050565b5f33905090565b5f610c67826040518060400160405280602081526020017f5361666545524332303a206c6f772d6c6576656c2063616c6c206661696c65648152508573ffffffffffffffffffffffffffffffffffffffff16610ccb9092919063ffffffff16565b90505f81511115610cc65780806020019051810190610c86919061115c565b610cc5576040517f08c379a0000000000000000000000000000000000000000000000000000000008152600401610cbc90611619565b60405180910390fd5b5b505050565b6060610cd984845f85610ce2565b90509392505050565b606082471015610d27576040517f08c379a0000000000000000000000000000000000000000000000000000000008152600401610d1e906116a7565b60405180910390fd5b5f5f8673ffffffffffffffffffffffffffffffffffffffff168587604051610d4f91906116ff565b5f6040518083038185875af1925050503d805f8114610d89576040519150601f19603f3d011682016040523d82523d5f602084013e610d8e565b606091505b5091509150610d9f87838387610dab565b92505050949350505050565b60608315610e0c575f835103610e0457610dc485610e1f565b610e03576040517f08c379a0000000000000000000000000000000000000000000000000000000008152600401610dfa9061175f565b60405180910390fd5b5b829050610e17565b610e168383610e41565b5b949350505050565b5f5f8273ffffffffffffffffffffffffffffffffffffffff163b119050919050565b5f82511115610e535781518083602001fd5b806040517f08c379a0000000000000000000000000000000000000000000000000000000008152600401610e8791906117bf565b60405180910390fd5b60405180604001604052805f73ffffffffffffffffffffffffffffffffffffffff1681526020015f81525090565b5f5ffd5b5f73ffffffffffffffffffffffffffffffffffffffff82169050919050565b5f610eeb82610ec2565b9050919050565b610efb81610ee1565b8114610f05575f5ffd5b50565b5f81359050610f1681610ef2565b92915050565b5f5f60408385031215610f3257610f31610ebe565b5b5f610f3f85828601610f08565b9250506020610f5085828601610f08565b9150509250929050565b610f6381610ee1565b82525050565b5f602082019050610f7c5f830184610f5a565b92915050565b5f819050919050565b610f9481610f82565b8114610f9e575f5ffd5b50565b5f81359050610faf81610f8b565b92915050565b5f67ffffffffffffffff82169050919050565b610fd181610fb5565b8114610fdb575f5ffd5b50565b5f81359050610fec81610fc8565b92915050565b5f5f5f5f6080858703121561100a57611009610ebe565b5b5f61101787828801610f08565b945050602061102887828801610fa1565b935050604061103987828801610f08565b925050606061104a87828801610fde565b91505092959194509250565b5f819050919050565b61106881611056565b82525050565b5f6020820190506110815f83018461105f565b92915050565b5f6020828403121561109c5761109b610ebe565b5b5f6110a984828501610f08565b91505092915050565b5f815190506110c081610f8b565b92915050565b5f602082840312156110db576110da610ebe565b5b5f6110e8848285016110b2565b91505092915050565b6110fa81610f82565b82525050565b5f6040820190506111135f830185610f5a565b61112060208301846110f1565b9392505050565b5f8115159050919050565b61113b81611127565b8114611145575f5ffd5b50565b5f8151905061115681611132565b92915050565b5f6020828403121561117157611170610ebe565b5b5f61117e84828501611148565b91505092915050565b5f819050919050565b5f6111aa6111a56111a084610ec2565b611187565b610ec2565b9050919050565b5f6111bb82611190565b9050919050565b5f6111cc826111b1565b9050919050565b6111dc816111c2565b82525050565b5f6060820190506111f55f8301866111d3565b61120260208301856110f1565b61120f60408301846110f1565b949350505050565b7f4e487b71000000000000000000000000000000000000000000000000000000005f52604160045260245ffd5b7f4e487b71000000000000000000000000000000000000000000000000000000005f52603260045260245ffd5b61127a81610fb5565b82525050565b5f81519050919050565b5f82825260208201905092915050565b8281835e5f83830152505050565b5f601f19601f8301169050919050565b5f6112c282611280565b6112cc818561128a565b93506112dc81856020860161129a565b6112e5816112a8565b840191505092915050565b5f81519050919050565b5f82825260208201905092915050565b5f819050602082019050919050565b61132281610ee1565b82525050565b61133181610f82565b82525050565b604082015f82015161134b5f850182611319565b50602082015161135e6020850182611328565b50505050565b5f61136f8383611337565b60408301905092915050565b5f602082019050919050565b5f611391826112f0565b61139b81856112fa565b93506113a68361130a565b805f5b838110156113d65781516113bd8882611364565b97506113c88361137b565b9250506001810190506113a9565b5085935050505092915050565b5f60a083015f8301518482035f8601526113fd82826112b8565b9150506020830151848203602086015261141782826112b8565b915050604083015184820360408601526114318282611387565b91505060608301516114466060860182611319565b506080830151848203608086015261145e82826112b8565b9150508091505092915050565b5f60408201905061147e5f830185611271565b818103602083015261149081846113e3565b90509392505050565b6114a281611056565b81146114ac575f5ffd5b50565b5f815190506114bd81611499565b92915050565b5f602082840312156114d8576114d7610ebe565b5b5f6114e5848285016114af565b91505092915050565b5f6080820190506115015f83018761105f565b61150e60208301866110f1565b61151b60408301856110f1565b6115286060830184610f5a565b95945050505050565b602082015f8201516115455f850182611328565b50505050565b5f60208201905061155e5f830184611531565b92915050565b5f6060820190506115775f830186610f5a565b6115846020830185610f5a565b61159160408301846110f1565b949350505050565b5f82825260208201905092915050565b7f5361666545524332303a204552433230206f7065726174696f6e20646964206e5f8201527f6f74207375636365656400000000000000000000000000000000000000000000602082015250565b5f611603602a83611599565b915061160e826115a9565b604082019050919050565b5f6020820190508181035f830152611630816115f7565b9050919050565b7f416464726573733a20696e73756666696369656e742062616c616e636520666f5f8201527f722063616c6c0000000000000000000000000000000000000000000000000000602082015250565b5f611691602683611599565b915061169c82611637565b604082019050919050565b5f6020820190508181035f8301526116be81611685565b9050919050565b5f81905092915050565b5f6116d982611280565b6116e381856116c5565b93506116f381856020860161129a565b80840191505092915050565b5f61170a82846116cf565b915081905092915050565b7f416464726573733a2063616c6c20746f206e6f6e2d636f6e74726163740000005f82015250565b5f611749601d83611599565b915061175482611715565b602082019050919050565b5f6020820190508181035f8301526117768161173d565b9050919050565b5f81519050919050565b5f6117918261177d565b61179b8185611599565b93506117ab81856020860161129a565b6117b4816112a8565b840191505092915050565b5f6020820190508181035f8301526117d78184611787565b90509291505056fea2646970667358221220c5350ed5af17144003514c2a3b44b08ae74f33a77d4818ce8b3d8af72f04b82a64736f6c634300081e0033",
					"opcodes": "PUSH1 0x80 PUSH1 0x40 MSTORE CALLVALUE DUP1 ISZERO PUSH2 0xF JUMPI PUSH0 PUSH0 REVERT JUMPDEST POP CALLER PUSH0 PUSH20 0xFFFFFFFFFFFFFFFFFFFFFFFFFFFFFFFFFFFFFFFF AND DUP2 PUSH20 0xFFFFFFFFFFFFFFFFFFFFFFFFFFFFFFFFFFFFFFFF AND SUB PUSH2 0x81 JUMPI PUSH0 PUSH1 0x40 MLOAD PUSH32 0x1E4FBDF700000000000000000000000000000000000000000000000000000000 DUP2 MSTORE PUSH1 0x4 ADD PUSH2 0x78 SWAP2 SWAP1 PUSH2 0x196 JUMP JUMPDEST PUSH1 0x40 MLOAD DUP1 SWAP2 SUB SWAP1 REVERT JUMPDEST PUSH2 0x90 DUP2 PUSH2 0x96 PUSH1 0x20 SHL PUSH1 0x20 SHR JUMP JUMPDEST POP PUSH2 0x1AF JUMP JUMPDEST PUSH0 PUSH0 PUSH0 SWAP1 SLOAD SWAP1 PUSH2 0x100 EXP SWAP1 DIV PUSH20 0xFFFFFFFFFFFFFFFFFFFFFFFFFFFFFFFFFFFFFFFF AND SWAP1 POP DUP2 PUSH0 PUSH0 PUSH2 0x100 EXP DUP2 SLOAD DUP2 PUSH20 0xFFFFFFFFFFFFFFFFFFFFFFFFFFFFFFFFFFFFFFFF MUL NOT AND SWAP1 DUP4 PUSH20 0xFFFFFFFFFFFFFFFFFFFFFFFFFFFFFFFFFFFFFFFF AND MUL OR SWAP1 SSTORE POP DUP2 PUSH20 0xFFFFFFFFFFFFFFFFFFFFFFFFFFFFFFFFFFFFFFFF AND DUP2 PUSH20 0xFFFFFFFFFFFFFFFFFFFFFFFFFFFFFFFFFFFFFFFF AND PUSH32 0x8BE0079C531659141344CD1FD0A4F28419497F9722A3DAAFE3B4186F6B6457E0 PUSH1 0x40 MLOAD PUSH1 0x40 MLOAD DUP1 SWAP2 SUB SWAP1 LOG3 POP POP JUMP JUMPDEST PUSH0 PUSH20 0xFFFFFFFFFFFFFFFFFFFFFFFFFFFFFFFFFFFFFFFF DUP3 AND SWAP1 POP SWAP2 SWAP1 POP JUMP JUMPDEST PUSH0 PUSH2 0x180 DUP3 PUSH2 0x157 JUMP JUMPDEST SWAP1 POP SWAP2 SWAP1 POP JUMP JUMPDEST PUSH2 0x190 DUP2 PUSH2 0x176 JUMP JUMPDEST DUP3 MSTORE POP POP JUMP JUMPDEST PUSH0 PUSH1 0x20 DUP3 ADD SWAP1 POP PUSH2 0x1A9 PUSH0 DUP4 ADD DUP5 PUSH2 0x187 JUMP JUMPDEST SWAP3 SWAP2 POP POP JUMP JUMPDEST PUSH2 0x1815 DUP1 PUSH2 0x1BC PUSH0 CODECOPY PUSH0 RETURN INVALID PUSH1 0x80 PUSH1 0x40 MSTORE CALLVALUE DUP1 ISZERO PUSH2 0xF JUMPI PUSH0 PUSH0 REVERT JUMPDEST POP PUSH1 0x4 CALLDATASIZE LT PUSH2 0x55 JUMPI PUSH0 CALLDATALOAD PUSH1 0xE0 SHR DUP1 PUSH4 0x3AEAC4E1 EQ PUSH2 0x59 JUMPI DUP1 PUSH4 0x715018A6 EQ PUSH2 0x75 JUMPI DUP1 PUSH4 0x8DA5CB5B EQ PUSH2 0x7F JUMPI DUP1 PUSH4 0x97D317F6 EQ PUSH2 0x9D JUMPI DUP1 PUSH4 0xF2FDE38B EQ PUSH2 0xCD JUMPI JUMPDEST PUSH0 PUSH0 REVERT JUMPDEST PUSH2 0x73 PUSH1 0x4 DUP1 CALLDATASIZE SUB DUP2 ADD SWAP1 PUSH2 0x6E SWAP2 SWAP1 PUSH2 0xF1C JUMP JUMPDEST PUSH2 0xE9 JUMP JUMPDEST STOP JUMPDEST PUSH2 0x7D PUSH2 0x22B JUMP JUMPDEST STOP JUMPDEST PUSH2 0x87 PUSH2 0x23E JUMP JUMPDEST PUSH1 0x40 MLOAD PUSH2 0x94 SWAP2 SWAP1 PUSH2 0xF69 JUMP JUMPDEST PUSH1 0x40 MLOAD DUP1 SWAP2 SUB SWAP1 RETURN JUMPDEST PUSH2 0xB7 PUSH1 0x4 DUP1 CALLDATASIZE SUB DUP2 ADD SWAP1 PUSH2 0xB2 SWAP2 SWAP1 PUSH2 0xFF2 JUMP JUMPDEST PUSH2 0x265 JUMP JUMPDEST PUSH1 0x40 MLOAD PUSH2 0xC4 SWAP2 SWAP1 PUSH2 0x106E JUMP JUMPDEST PUSH1 0x40 MLOAD DUP1 SWAP2 SUB SWAP1 RETURN JUMPDEST PUSH2 0xE7 PUSH1 0x4 DUP1 CALLDATASIZE SUB DUP2 ADD SWAP1 PUSH2 0xE2 SWAP2 SWAP1 PUSH2 0x1087 JUMP JUMPDEST PUSH2 0x92B JUMP JUMPDEST STOP JUMPDEST PUSH2 0xF1 PUSH2 0x9AF JUMP JUMPDEST PUSH0 DUP2 SWAP1 POP PUSH0 DUP2 PUSH20 0xFFFFFFFFFFFFFFFFFFFFFFFFFFFFFFFFFFFFFFFF AND PUSH4 0x70A08231 ADDRESS PUSH1 0x40 MLOAD DUP3 PUSH4 0xFFFFFFFF AND PUSH1 0xE0 SHL DUP2 MSTORE PUSH1 0x4 ADD PUSH2 0x12F SWAP2 SWAP1 PUSH2 0xF69 JUMP JUMPDEST PUSH1 0x20 PUSH1 0x40 MLOAD DUP1 DUP4 SUB DUP2 DUP7 GAS STATICCALL ISZERO DUP1 ISZERO PUSH2 0x14A JUMPI RETURNDATASIZE PUSH0 PUSH0 RETURNDATACOPY RETURNDATASIZE PUSH0 REVERT JUMPDEST POP POP POP POP PUSH1 0x40 MLOAD RETURNDATASIZE PUSH1 0x1F NOT PUSH1 0x1F DUP3 ADD AND DUP3 ADD DUP1 PUSH1 0x40 MSTORE POP DUP2 ADD SWAP1 PUSH2 0x16E SWAP2 SWAP1 PUSH2 0x10C6 JUMP JUMPDEST SWAP1 POP PUSH0 DUP2 SUB PUSH2 0x1A9 JUMPI PUSH1 0x40 MLOAD PUSH32 0xC928195A00000000000000000000000000000000000000000000000000000000 DUP2 MSTORE PUSH1 0x4 ADD PUSH1 0x40 MLOAD DUP1 SWAP2 SUB SWAP1 REVERT JUMPDEST DUP2 PUSH20 0xFFFFFFFFFFFFFFFFFFFFFFFFFFFFFFFFFFFFFFFF AND PUSH4 0xA9059CBB DUP6 DUP4 PUSH1 0x40 MLOAD DUP4 PUSH4 0xFFFFFFFF AND PUSH1 0xE0 SHL DUP2 MSTORE PUSH1 0x4 ADD PUSH2 0x1E4 SWAP3 SWAP2 SWAP1 PUSH2 0x1100 JUMP JUMPDEST PUSH1 0x20 PUSH1 0x40 MLOAD DUP1 DUP4 SUB DUP2 PUSH0 DUP8 GAS CALL ISZERO DUP1 ISZERO PUSH2 0x200 JUMPI RETURNDATASIZE PUSH0 PUSH0 RETURNDATACOPY RETURNDATASIZE PUSH0 REVERT JUMPDEST POP POP POP POP PUSH1 0x40 MLOAD RETURNDATASIZE PUSH1 0x1F NOT PUSH1 0x1F DUP3 ADD AND DUP3 ADD DUP1 PUSH1 0x40 MSTORE POP DUP2 ADD SWAP1 PUSH2 0x224 SWAP2 SWAP1 PUSH2 0x115C JUMP JUMPDEST POP POP POP POP POP JUMP JUMPDEST PUSH2 0x233 PUSH2 0x9AF JUMP JUMPDEST PUSH2 0x23C PUSH0 PUSH2 0xA36 JUMP JUMPDEST JUMP JUMPDEST PUSH0 PUSH0 PUSH0 SWAP1 SLOAD SWAP1 PUSH2 0x100 EXP SWAP1 DIV PUSH20 0xFFFFFFFFFFFFFFFFFFFFFFFFFFFFFFFFFFFFFFFF AND SWAP1 POP SWAP1 JUMP JUMPDEST PUSH0 PUSH0 DUP4 SWAP1 POP DUP1 PUSH20 0xFFFFFFFFFFFFFFFFFFFFFFFFFFFFFFFFFFFFFFFF AND PUSH4 0x70A08231 CALLER PUSH1 0x40 MLOAD DUP3 PUSH4 0xFFFFFFFF AND PUSH1 0xE0 SHL DUP2 MSTORE PUSH1 0x4 ADD PUSH2 0x2A3 SWAP2 SWAP1 PUSH2 0xF69 JUMP JUMPDEST PUSH1 0x20 PUSH1 0x40 MLOAD DUP1 DUP4 SUB DUP2 DUP7 GAS STATICCALL ISZERO DUP1 ISZERO PUSH2 0x2BE JUMPI RETURNDATASIZE PUSH0 PUSH0 RETURNDATACOPY RETURNDATASIZE PUSH0 REVERT JUMPDEST POP POP POP POP PUSH1 0x40 MLOAD RETURNDATASIZE PUSH1 0x1F NOT PUSH1 0x1F DUP3 ADD AND DUP3 ADD DUP1 PUSH1 0x40 MSTORE POP DUP2 ADD SWAP1 PUSH2 0x2E2 SWAP2 SWAP1 PUSH2 0x10C6 JUMP JUMPDEST DUP6 GT ISZERO PUSH2 0x3A1 JUMPI DUP1 DUP2 PUSH20 0xFFFFFFFFFFFFFFFFFFFFFFFFFFFFFFFFFFFFFFFF AND PUSH4 0x70A08231 CALLER PUSH1 0x40 MLOAD DUP3 PUSH4 0xFFFFFFFF AND PUSH1 0xE0 SHL DUP2 MSTORE PUSH1 0x4 ADD PUSH2 0x323 SWAP2 SWAP1 PUSH2 0xF69 JUMP JUMPDEST PUSH1 0x20 PUSH1 0x40 MLOAD DUP1 DUP4 SUB DUP2 DUP7 GAS STATICCALL ISZERO DUP1 ISZERO PUSH2 0x33E JUMPI RETURNDATASIZE PUSH0 PUSH0 RETURNDATACOPY RETURNDATASIZE PUSH0 REVERT JUMPDEST POP POP POP POP PUSH1 0x40 MLOAD RETURNDATASIZE PUSH1 0x1F NOT PUSH1 0x1F DUP3 ADD AND DUP3 ADD DUP1 PUSH1 0x40 MSTORE POP DUP2 ADD SWAP1 PUSH2 0x362 SWAP2 SWAP1 PUSH2 0x10C6 JUMP JUMPDEST DUP7 PUSH1 0x40 MLOAD PUSH32 0xB6AFA83300000000000000000000000000000000000000000000000000000000 DUP2 MSTORE PUSH1 0x4 ADD PUSH2 0x398 SWAP4 SWAP3 SWAP2 SWAP1 PUSH2 0x11E2 JUMP JUMPDEST PUSH1 0x40 MLOAD DUP1 SWAP2 SUB SWAP1 REVERT JUMPDEST PUSH0 PUSH1 0x1 PUSH8 0xFFFFFFFFFFFFFFFF DUP2 GT ISZERO PUSH2 0x3BD JUMPI PUSH2 0x3BC PUSH2 0x1217 JUMP JUMPDEST JUMPDEST PUSH1 0x40 MLOAD SWAP1 DUP1 DUP3 MSTORE DUP1 PUSH1 0x20 MUL PUSH1 0x20 ADD DUP3 ADD PUSH1 0x40 MSTORE DUP1 ISZERO PUSH2 0x3F6 JUMPI DUP2 PUSH1 0x20 ADD JUMPDEST PUSH2 0x3E3 PUSH2 0xE90 JUMP JUMPDEST DUP2 MSTORE PUSH1 0x20 ADD SWAP1 PUSH1 0x1 SWAP1 SUB SWAP1 DUP2 PUSH2 0x3DB JUMPI SWAP1 POP JUMPDEST POP SWAP1 POP PUSH0 PUSH1 0x40 MLOAD DUP1 PUSH1 0x40 ADD PUSH1 0x40 MSTORE DUP1 DUP5 PUSH20 0xFFFFFFFFFFFFFFFFFFFFFFFFFFFFFFFFFFFFFFFF AND DUP2 MSTORE PUSH1 0x20 ADD DUP9 DUP2 MSTORE POP SWAP1 POP DUP1 DUP3 PUSH0 DUP2 MLOAD DUP2 LT PUSH2 0x43B JUMPI PUSH2 0x43A PUSH2 0x1244 JUMP JUMPDEST JUMPDEST PUSH1 0x20 MUL PUSH1 0x20 ADD ADD DUP2 SWAP1 MSTORE POP PUSH0 PUSH1 0x40 MLOAD DUP1 PUSH1 0xA0 ADD PUSH1 0x40 MSTORE DUP1 DUP11 PUSH1 0x40 MLOAD PUSH1 0x20 ADD PUSH2 0x463 SWAP2 SWAP1 PUSH2 0xF69 JUMP JUMPDEST PUSH1 0x40 MLOAD PUSH1 0x20 DUP2 DUP4 SUB SUB DUP2 MSTORE SWAP1 PUSH1 0x40 MSTORE DUP2 MSTORE PUSH1 0x20 ADD PUSH1 0x40 MLOAD DUP1 PUSH1 0x20 ADD PUSH1 0x40 MSTORE DUP1 PUSH0 DUP2 MSTORE POP DUP2 MSTORE PUSH1 0x20 ADD DUP5 DUP2 MSTORE PUSH1 0x20 ADD PUSH20 0x779877A7B0D9E8603169DDBD7836E478B4624789 PUSH20 0xFFFFFFFFFFFFFFFFFFFFFFFFFFFFFFFFFFFFFFFF AND DUP2 MSTORE PUSH1 0x20 ADD PUSH2 0x4D8 PUSH1 0x40 MLOAD DUP1 PUSH1 0x20 ADD PUSH1 0x40 MSTORE DUP1 PUSH0 DUP2 MSTORE POP PUSH2 0xAF7 JUMP JUMPDEST DUP2 MSTORE POP SWAP1 POP PUSH0 PUSH20 0xBF3DE8C5D3E8A2B34D2BEEB17ABFCEBAF363A59 PUSH20 0xFFFFFFFFFFFFFFFFFFFFFFFFFFFFFFFFFFFFFFFF AND PUSH4 0x20487DED DUP9 DUP5 PUSH1 0x40 MLOAD DUP4 PUSH4 0xFFFFFFFF AND PUSH1 0xE0 SHL DUP2 MSTORE PUSH1 0x4 ADD PUSH2 0x52D SWAP3 SWAP2 SWAP1 PUSH2 0x146B JUMP JUMPDEST PUSH1 0x20 PUSH1 0x40 MLOAD DUP1 DUP4 SUB DUP2 DUP7 GAS STATICCALL ISZERO DUP1 ISZERO PUSH2 0x548 JUMPI RETURNDATASIZE PUSH0 PUSH0 RETURNDATACOPY RETURNDATASIZE PUSH0 REVERT JUMPDEST POP POP POP POP PUSH1 0x40 MLOAD RETURNDATASIZE PUSH1 0x1F NOT PUSH1 0x1F DUP3 ADD AND DUP3 ADD DUP1 PUSH1 0x40 MSTORE POP DUP2 ADD SWAP1 PUSH2 0x56C SWAP2 SWAP1 PUSH2 0x10C6 JUMP JUMPDEST SWAP1 POP PUSH20 0x779877A7B0D9E8603169DDBD7836E478B4624789 PUSH20 0xFFFFFFFFFFFFFFFFFFFFFFFFFFFFFFFFFFFFFFFF AND PUSH4 0x70A08231 ADDRESS PUSH1 0x40 MLOAD DUP3 PUSH4 0xFFFFFFFF AND PUSH1 0xE0 SHL DUP2 MSTORE PUSH1 0x4 ADD PUSH2 0x5BB SWAP2 SWAP1 PUSH2 0xF69 JUMP JUMPDEST PUSH1 0x20 PUSH1 0x40 MLOAD DUP1 DUP4 SUB DUP2 DUP7 GAS STATICCALL ISZERO DUP1 ISZERO PUSH2 0x5D6 JUMPI RETURNDATASIZE PUSH0 PUSH0 RETURNDATACOPY RETURNDATASIZE PUSH0 REVERT JUMPDEST POP POP POP POP PUSH1 0x40 MLOAD RETURNDATASIZE PUSH1 0x1F NOT PUSH1 0x1F DUP3 ADD AND DUP3 ADD DUP1 PUSH1 0x40 MSTORE POP DUP2 ADD SWAP1 PUSH2 0x5FA SWAP2 SWAP1 PUSH2 0x10C6 JUMP JUMPDEST DUP2 GT ISZERO PUSH2 0x6CD JUMPI PUSH20 0x779877A7B0D9E8603169DDBD7836E478B4624789 DUP1 PUSH20 0xFFFFFFFFFFFFFFFFFFFFFFFFFFFFFFFFFFFFFFFF AND PUSH4 0x70A08231 ADDRESS PUSH1 0x40 MLOAD DUP3 PUSH4 0xFFFFFFFF AND PUSH1 0xE0 SHL DUP2 MSTORE PUSH1 0x4 ADD PUSH2 0x64F SWAP2 SWAP1 PUSH2 0xF69 JUMP JUMPDEST PUSH1 0x20 PUSH1 0x40 MLOAD DUP1 DUP4 SUB DUP2 DUP7 GAS STATICCALL ISZERO DUP1 ISZERO PUSH2 0x66A JUMPI RETURNDATASIZE PUSH0 PUSH0 RETURNDATACOPY RETURNDATASIZE PUSH0 REVERT JUMPDEST POP POP POP POP PUSH1 0x40 MLOAD RETURNDATASIZE PUSH1 0x1F NOT PUSH1 0x1F DUP3 ADD AND DUP3 ADD DUP1 PUSH1 0x40 MSTORE POP DUP2 ADD SWAP1 PUSH2 0x68E SWAP2 SWAP1 PUSH2 0x10C6 JUMP JUMPDEST DUP3 PUSH1 0x40 MLOAD PUSH32 0xB6AFA83300000000000000000000000000000000000000000000000000000000 DUP2 MSTORE PUSH1 0x4 ADD PUSH2 0x6C4 SWAP4 SWAP3 SWAP2 SWAP1 PUSH2 0x11E2 JUMP JUMPDEST PUSH1 0x40 MLOAD DUP1 SWAP2 SUB SWAP1 REVERT JUMPDEST PUSH20 0x779877A7B0D9E8603169DDBD7836E478B4624789 PUSH20 0xFFFFFFFFFFFFFFFFFFFFFFFFFFFFFFFFFFFFFFFF AND PUSH4 0x95EA7B3 PUSH20 0xBF3DE8C5D3E8A2B34D2BEEB17ABFCEBAF363A59 DUP4 PUSH1 0x40 MLOAD DUP4 PUSH4 0xFFFFFFFF AND PUSH1 0xE0 SHL DUP2 MSTORE PUSH1 0x4 ADD PUSH2 0x730 SWAP3 SWAP2 SWAP1 PUSH2 0x1100 JUMP JUMPDEST PUSH1 0x20 PUSH1 0x40 MLOAD DUP1 DUP4 SUB DUP2 PUSH0 DUP8 GAS CALL ISZERO DUP1 ISZERO PUSH2 0x74C JUMPI RETURNDATASIZE PUSH0 PUSH0 RETURNDATACOPY RETURNDATASIZE PUSH0 REVERT JUMPDEST POP POP POP POP PUSH1 0x40 MLOAD RETURNDATASIZE PUSH1 0x1F NOT PUSH1 0x1F DUP3 ADD AND DUP3 ADD DUP1 PUSH1 0x40 MSTORE POP DUP2 ADD SWAP1 PUSH2 0x770 SWAP2 SWAP1 PUSH2 0x115C JUMP JUMPDEST POP PUSH2 0x79E CALLER ADDRESS DUP12 DUP9 PUSH20 0xFFFFFFFFFFFFFFFFFFFFFFFFFFFFFFFFFFFFFFFF AND PUSH2 0xB76 SWAP1 SWAP4 SWAP3 SWAP2 SWAP1 PUSH4 0xFFFFFFFF AND JUMP JUMPDEST DUP5 PUSH20 0xFFFFFFFFFFFFFFFFFFFFFFFFFFFFFFFFFFFFFFFF AND PUSH4 0x95EA7B3 PUSH20 0xBF3DE8C5D3E8A2B34D2BEEB17ABFCEBAF363A59 DUP12 PUSH1 0x40 MLOAD DUP4 PUSH4 0xFFFFFFFF AND PUSH1 0xE0 SHL DUP2 MSTORE PUSH1 0x4 ADD PUSH2 0x7ED SWAP3 SWAP2 SWAP1 PUSH2 0x1100 JUMP JUMPDEST PUSH1 0x20 PUSH1 0x40 MLOAD DUP1 DUP4 SUB DUP2 PUSH0 DUP8 GAS CALL ISZERO DUP1 ISZERO PUSH2 0x809 JUMPI RETURNDATASIZE PUSH0 PUSH0 RETURNDATACOPY RETURNDATASIZE PUSH0 REVERT JUMPDEST POP POP POP POP PUSH1 0x40 MLOAD RETURNDATASIZE PUSH1 0x1F NOT PUSH1 0x1F DUP3 ADD AND DUP3 ADD DUP1 PUSH1 0x40 MSTORE POP DUP2 ADD SWAP1 PUSH2 0x82D SWAP2 SWAP1 PUSH2 0x115C JUMP JUMPDEST POP PUSH20 0xBF3DE8C5D3E8A2B34D2BEEB17ABFCEBAF363A59 PUSH20 0xFFFFFFFFFFFFFFFFFFFFFFFFFFFFFFFFFFFFFFFF AND PUSH4 0x96F4E9F9 DUP9 DUP5 PUSH1 0x40 MLOAD DUP4 PUSH4 0xFFFFFFFF AND PUSH1 0xE0 SHL DUP2 MSTORE PUSH1 0x4 ADD PUSH2 0x87D SWAP3 SWAP2 SWAP1 PUSH2 0x146B JUMP JUMPDEST PUSH1 0x20 PUSH1 0x40 MLOAD DUP1 DUP4 SUB DUP2 PUSH0 DUP8 GAS CALL ISZERO DUP1 ISZERO PUSH2 0x899 JUMPI RETURNDATASIZE PUSH0 PUSH0 RETURNDATACOPY RETURNDATASIZE PUSH0 REVERT JUMPDEST POP POP POP POP PUSH1 0x40 MLOAD RETURNDATASIZE PUSH1 0x1F NOT PUSH1 0x1F DUP3 ADD AND DUP3 ADD DUP1 PUSH1 0x40 MSTORE POP DUP2 ADD SWAP1 PUSH2 0x8BD SWAP2 SWAP1 PUSH2 0x14C3 JUMP JUMPDEST SWAP6 POP DUP10 PUSH20 0xFFFFFFFFFFFFFFFFFFFFFFFFFFFFFFFFFFFFFFFF AND DUP8 PUSH8 0xFFFFFFFFFFFFFFFF AND PUSH32 0xBFC364A7D8B42CD188CF53C4C5FDF933337202ABB0000693E081D32075EE0B8F DUP9 DUP13 DUP6 DUP14 PUSH1 0x40 MLOAD PUSH2 0x916 SWAP5 SWAP4 SWAP3 SWAP2 SWAP1 PUSH2 0x14EE JUMP JUMPDEST PUSH1 0x40 MLOAD DUP1 SWAP2 SUB SWAP1 LOG3 POP POP POP POP POP SWAP5 SWAP4 POP POP POP POP JUMP JUMPDEST PUSH2 0x933 PUSH2 0x9AF JUMP JUMPDEST PUSH0 PUSH20 0xFFFFFFFFFFFFFFFFFFFFFFFFFFFFFFFFFFFFFFFF AND DUP2 PUSH20 0xFFFFFFFFFFFFFFFFFFFFFFFFFFFFFFFFFFFFFFFF AND SUB PUSH2 0x9A3 JUMPI PUSH0 PUSH1 0x40 MLOAD PUSH32 0x1E4FBDF700000000000000000000000000000000000000000000000000000000 DUP2 MSTORE PUSH1 0x4 ADD PUSH2 0x99A SWAP2 SWAP1 PUSH2 0xF69 JUMP JUMPDEST PUSH1 0x40 MLOAD DUP1 SWAP2 SUB SWAP1 REVERT JUMPDEST PUSH2 0x9AC DUP2 PUSH2 0xA36 JUMP JUMPDEST POP JUMP JUMPDEST PUSH2 0x9B7 PUSH2 0xBFF JUMP JUMPDEST PUSH20 0xFFFFFFFFFFFFFFFFFFFFFFFFFFFFFFFFFFFFFFFF AND PUSH2 0x9D5 PUSH2 0x23E JUMP JUMPDEST PUSH20 0xFFFFFFFFFFFFFFFFFFFFFFFFFFFFFFFFFFFFFFFF AND EQ PUSH2 0xA34 JUMPI PUSH2 0x9F8 PUSH2 0xBFF JUMP JUMPDEST PUSH1 0x40 MLOAD PUSH32 0x118CDAA700000000000000000000000000000000000000000000000000000000 DUP2 MSTORE PUSH1 0x4 ADD PUSH2 0xA2B SWAP2 SWAP1 PUSH2 0xF69 JUMP JUMPDEST PUSH1 0x40 MLOAD DUP1 SWAP2 SUB SWAP1 REVERT JUMPDEST JUMP JUMPDEST PUSH0 PUSH0 PUSH0 SWAP1 SLOAD SWAP1 PUSH2 0x100 EXP SWAP1 DIV PUSH20 0xFFFFFFFFFFFFFFFFFFFFFFFFFFFFFFFFFFFFFFFF AND SWAP1 POP DUP2 PUSH0 PUSH0 PUSH2 0x100 EXP DUP2 SLOAD DUP2 PUSH20 0xFFFFFFFFFFFFFFFFFFFFFFFFFFFFFFFFFFFFFFFF MUL NOT AND SWAP1 DUP4 PUSH20 0xFFFFFFFFFFFFFFFFFFFFFFFFFFFFFFFFFFFFFFFF AND MUL OR SWAP1 SSTORE POP DUP2 PUSH20 0xFFFFFFFFFFFFFFFFFFFFFFFFFFFFFFFFFFFFFFFF AND DUP2 PUSH20 0xFFFFFFFFFFFFFFFFFFFFFFFFFFFFFFFFFFFFFFFF AND PUSH32 0x8BE0079C531659141344CD1FD0A4F28419497F9722A3DAAFE3B4186F6B6457E0 PUSH1 0x40 MLOAD PUSH1 0x40 MLOAD DUP1 SWAP2 SUB SWAP1 LOG3 POP POP JUMP JUMPDEST PUSH1 0x60 PUSH4 0x97A657C9 PUSH1 0xE0 SHL DUP3 PUSH1 0x40 MLOAD PUSH1 0x24 ADD PUSH2 0xB12 SWAP2 SWAP1 PUSH2 0x154B JUMP JUMPDEST PUSH1 0x40 MLOAD PUSH1 0x20 DUP2 DUP4 SUB SUB DUP2 MSTORE SWAP1 PUSH1 0x40 MSTORE SWAP1 PUSH28 0xFFFFFFFFFFFFFFFFFFFFFFFFFFFFFFFFFFFFFFFFFFFFFFFFFFFFFFFF NOT AND PUSH1 0x20 DUP3 ADD DUP1 MLOAD PUSH28 0xFFFFFFFFFFFFFFFFFFFFFFFFFFFFFFFFFFFFFFFFFFFFFFFFFFFFFFFF DUP4 DUP2 DUP4 AND OR DUP4 MSTORE POP POP POP POP SWAP1 POP SWAP2 SWAP1 POP JUMP JUMPDEST PUSH2 0xBF9 DUP5 PUSH4 0x23B872DD PUSH1 0xE0 SHL DUP6 DUP6 DUP6 PUSH1 0x40 MLOAD PUSH1 0x24 ADD PUSH2 0xB97 SWAP4 SWAP3 SWAP2 SWAP1 PUSH2 0x1564 JUMP JUMPDEST PUSH1 0x40 MLOAD PUSH1 0x20 DUP2 DUP4 SUB SUB DUP2 MSTORE SWAP1 PUSH1 0x40 MSTORE SWAP1 PUSH28 0xFFFFFFFFFFFFFFFFFFFFFFFFFFFFFFFFFFFFFFFFFFFFFFFFFFFFFFFF NOT AND PUSH1 0x20 DUP3 ADD DUP1 MLOAD PUSH28 0xFFFFFFFFFFFFFFFFFFFFFFFFFFFFFFFFFFFFFFFFFFFFFFFFFFFFFFFF DUP4 DUP2 DUP4 AND OR DUP4 MSTORE POP POP POP POP PUSH2 0xC06 JUMP JUMPDEST POP POP POP POP JUMP JUMPDEST PUSH0 CALLER SWAP1 POP SWAP1 JUMP JUMPDEST PUSH0 PUSH2 0xC67 DUP3 PUSH1 0x40 MLOAD DUP1 PUSH1 0x40 ADD PUSH1 0x40 MSTORE DUP1 PUSH1 0x20 DUP2 MSTORE PUSH1 0x20 ADD PUSH32 0x5361666545524332303A206C6F772D6C6576656C2063616C6C206661696C6564 DUP2 MSTORE POP DUP6 PUSH20 0xFFFFFFFFFFFFFFFFFFFFFFFFFFFFFFFFFFFFFFFF AND PUSH2 0xCCB SWAP1 SWAP3 SWAP2 SWAP1 PUSH4 0xFFFFFFFF AND JUMP JUMPDEST SWAP1 POP PUSH0 DUP2 MLOAD GT ISZERO PUSH2 0xCC6 JUMPI DUP1 DUP1 PUSH1 0x20 ADD SWAP1 MLOAD DUP2 ADD SWAP1 PUSH2 0xC86 SWAP2 SWAP1 PUSH2 0x115C JUMP JUMPDEST PUSH2 0xCC5 JUMPI PUSH1 0x40 MLOAD PUSH32 0x8C379A000000000000000000000000000000000000000000000000000000000 DUP2 MSTORE PUSH1 0x4 ADD PUSH2 0xCBC SWAP1 PUSH2 0x1619 JUMP JUMPDEST PUSH1 0x40 MLOAD DUP1 SWAP2 SUB SWAP1 REVERT JUMPDEST JUMPDEST POP POP POP JUMP JUMPDEST PUSH1 0x60 PUSH2 0xCD9 DUP5 DUP5 PUSH0 DUP6 PUSH2 0xCE2 JUMP JUMPDEST SWAP1 POP SWAP4 SWAP3 POP POP POP JUMP JUMPDEST PUSH1 0x60 DUP3 SELFBALANCE LT ISZERO PUSH2 0xD27 JUMPI PUSH1 0x40 MLOAD PUSH32 0x8C379A000000000000000000000000000000000000000000000000000000000 DUP2 MSTORE PUSH1 0x4 ADD PUSH2 0xD1E SWAP1 PUSH2 0x16A7 JUMP JUMPDEST PUSH1 0x40 MLOAD DUP1 SWAP2 SUB SWAP1 REVERT JUMPDEST PUSH0 PUSH0 DUP7 PUSH20 0xFFFFFFFFFFFFFFFFFFFFFFFFFFFFFFFFFFFFFFFF AND DUP6 DUP8 PUSH1 0x40 MLOAD PUSH2 0xD4F SWAP2 SWAP1 PUSH2 0x16FF JUMP JUMPDEST PUSH0 PUSH1 0x40 MLOAD DUP1 DUP4 SUB DUP2 DUP6 DUP8 GAS CALL SWAP3 POP POP POP RETURNDATASIZE DUP1 PUSH0 DUP2 EQ PUSH2 0xD89 JUMPI PUSH1 0x40 MLOAD SWAP2 POP PUSH1 0x1F NOT PUSH1 0x3F RETURNDATASIZE ADD AND DUP3 ADD PUSH1 0x40 MSTORE RETURNDATASIZE DUP3 MSTORE RETURNDATASIZE PUSH0 PUSH1 0x20 DUP5 ADD RETURNDATACOPY PUSH2 0xD8E JUMP JUMPDEST PUSH1 0x60 SWAP2 POP JUMPDEST POP SWAP2 POP SWAP2 POP PUSH2 0xD9F DUP8 DUP4 DUP4 DUP8 PUSH2 0xDAB JUMP JUMPDEST SWAP3 POP POP POP SWAP5 SWAP4 POP POP POP POP JUMP JUMPDEST PUSH1 0x60 DUP4 ISZERO PUSH2 0xE0C JUMPI PUSH0 DUP4 MLOAD SUB PUSH2 0xE04 JUMPI PUSH2 0xDC4 DUP6 PUSH2 0xE1F JUMP JUMPDEST PUSH2 0xE03 JUMPI PUSH1 0x40 MLOAD PUSH32 0x8C379A000000000000000000000000000000000000000000000000000000000 DUP2 MSTORE PUSH1 0x4 ADD PUSH2 0xDFA SWAP1 PUSH2 0x175F JUMP JUMPDEST PUSH1 0x40 MLOAD DUP1 SWAP2 SUB SWAP1 REVERT JUMPDEST JUMPDEST DUP3 SWAP1 POP PUSH2 0xE17 JUMP JUMPDEST PUSH2 0xE16 DUP4 DUP4 PUSH2 0xE41 JUMP JUMPDEST JUMPDEST SWAP5 SWAP4 POP POP POP POP JUMP JUMPDEST PUSH0 PUSH0 DUP3 PUSH20 0xFFFFFFFFFFFFFFFFFFFFFFFFFFFFFFFFFFFFFFFF AND EXTCODESIZE GT SWAP1 POP SWAP2 SWAP1 POP JUMP JUMPDEST PUSH0 DUP3 MLOAD GT ISZERO PUSH2 0xE53 JUMPI DUP2 MLOAD DUP1 DUP4 PUSH1 0x20 ADD REVERT JUMPDEST DUP1 PUSH1 0x40 MLOAD PUSH32 0x8C379A000000000000000000000000000000000000000000000000000000000 DUP2 MSTORE PUSH1 0x4 ADD PUSH2 0xE87 SWAP2 SWAP1 PUSH2 0x17BF JUMP JUMPDEST PUSH1 0x40 MLOAD DUP1 SWAP2 SUB SWAP1 REVERT JUMPDEST PUSH1 0x40 MLOAD DUP1 PUSH1 0x40 ADD PUSH1 0x40 MSTORE DUP1 PUSH0 PUSH20 0xFFFFFFFFFFFFFFFFFFFFFFFFFFFFFFFFFFFFFFFF AND DUP2 MSTORE PUSH1 0x20 ADD PUSH0 DUP2 MSTORE POP SWAP1 JUMP JUMPDEST PUSH0 PUSH0 REVERT JUMPDEST PUSH0 PUSH20 0xFFFFFFFFFFFFFFFFFFFFFFFFFFFFFFFFFFFFFFFF DUP3 AND SWAP1 POP SWAP2 SWAP1 POP JUMP JUMPDEST PUSH0 PUSH2 0xEEB DUP3 PUSH2 0xEC2 JUMP JUMPDEST SWAP1 POP SWAP2 SWAP1 POP JUMP JUMPDEST PUSH2 0xEFB DUP2 PUSH2 0xEE1 JUMP JUMPDEST DUP2 EQ PUSH2 0xF05 JUMPI PUSH0 PUSH0 REVERT JUMPDEST POP JUMP JUMPDEST PUSH0 DUP2 CALLDATALOAD SWAP1 POP PUSH2 0xF16 DUP2 PUSH2 0xEF2 JUMP JUMPDEST SWAP3 SWAP2 POP POP JUMP JUMPDEST PUSH0 PUSH0 PUSH1 0x40 DUP4 DUP6 SUB SLT ISZERO PUSH2 0xF32 JUMPI PUSH2 0xF31 PUSH2 0xEBE JUMP JUMPDEST JUMPDEST PUSH0 PUSH2 0xF3F DUP6 DUP3 DUP7 ADD PUSH2 0xF08 JUMP JUMPDEST SWAP3 POP POP PUSH1 0x20 PUSH2 0xF50 DUP6 DUP3 DUP7 ADD PUSH2 0xF08 JUMP JUMPDEST SWAP2 POP POP SWAP3 POP SWAP3 SWAP1 POP JUMP JUMPDEST PUSH2 0xF63 DUP2 PUSH2 0xEE1 JUMP JUMPDEST DUP3 MSTORE POP POP JUMP JUMPDEST PUSH0 PUSH1 0x20 DUP3 ADD SWAP1 POP PUSH2 0xF7C PUSH0 DUP4 ADD DUP5 PUSH2 0xF5A JUMP JUMPDEST SWAP3 SWAP2 POP POP JUMP JUMPDEST PUSH0 DUP2 SWAP1 POP SWAP2 SWAP1 POP JUMP JUMPDEST PUSH2 0xF94 DUP2 PUSH2 0xF82 JUMP JUMPDEST DUP2 EQ PUSH2 0xF9E JUMPI PUSH0 PUSH0 REVERT JUMPDEST POP JUMP JUMPDEST PUSH0 DUP2 CALLDATALOAD SWAP1 POP PUSH2 0xFAF DUP2 PUSH2 0xF8B JUMP JUMPDEST SWAP3 SWAP2 POP POP JUMP JUMPDEST PUSH0 PUSH8 0xFFFFFFFFFFFFFFFF DUP3 AND SWAP1 POP SWAP2 SWAP1 POP JUMP JUMPDEST PUSH2 0xFD1 DUP2 PUSH2 0xFB5 JUMP JUMPDEST DUP2 EQ PUSH2 0xFDB JUMPI PUSH0 PUSH0 REVERT JUMPDEST POP JUMP JUMPDEST PUSH0 DUP2 CALLDATALOAD SWAP1 POP PUSH2 0xFEC DUP2 PUSH2 0xFC8 JUMP JUMPDEST SWAP3 SWAP2 POP POP JUMP JUMPDEST PUSH0 PUSH0 PUSH0 PUSH0 PUSH1 0x80 DUP6 DUP8 SUB SLT ISZERO PUSH2 0x100A JUMPI PUSH2 0x1009 PUSH2 0xEBE JUMP JUMPDEST JUMPDEST PUSH0 PUSH2 0x1017 DUP8 DUP3 DUP9 ADD PUSH2 0xF08 JUMP JUMPDEST SWAP5 POP POP PUSH1 0x20 PUSH2 0x1028 DUP8 DUP3 DUP9 ADD PUSH2 0xFA1 JUMP JUMPDEST SWAP4 POP POP PUSH1 0x40 PUSH2 0x1039 DUP8 DUP3 DUP9 ADD PUSH2 0xF08 JUMP JUMPDEST SWAP3 POP POP PUSH1 0x60 PUSH2 0x104A DUP8 DUP3 DUP9 ADD PUSH2 0xFDE JUMP JUMPDEST SWAP2 POP POP SWAP3 SWAP6 SWAP2 SWAP5 POP SWAP3 POP JUMP JUMPDEST PUSH0 DUP2 SWAP1 POP SWAP2 SWAP1 POP JUMP JUMPDEST PUSH2 0x1068 DUP2 PUSH2 0x1056 JUMP JUMPDEST DUP3 MSTORE POP POP JUMP JUMPDEST PUSH0 PUSH1 0x20 DUP3 ADD SWAP1 POP PUSH2 0x1081 PUSH0 DUP4 ADD DUP5 PUSH2 0x105F JUMP JUMPDEST SWAP3 SWAP2 POP POP JUMP JUMPDEST PUSH0 PUSH1 0x20 DUP3 DUP5 SUB SLT ISZERO PUSH2 0x109C JUMPI PUSH2 0x109B PUSH2 0xEBE JUMP JUMPDEST JUMPDEST PUSH0 PUSH2 0x10A9 DUP5 DUP3 DUP6 ADD PUSH2 0xF08 JUMP JUMPDEST SWAP2 POP POP SWAP3 SWAP2 POP POP JUMP JUMPDEST PUSH0 DUP2 MLOAD SWAP1 POP PUSH2 0x10C0 DUP2 PUSH2 0xF8B JUMP JUMPDEST SWAP3 SWAP2 POP POP JUMP JUMPDEST PUSH0 PUSH1 0x20 DUP3 DUP5 SUB SLT ISZERO PUSH2 0x10DB JUMPI PUSH2 0x10DA PUSH2 0xEBE JUMP JUMPDEST JUMPDEST PUSH0 PUSH2 0x10E8 DUP5 DUP3 DUP6 ADD PUSH2 0x10B2 JUMP JUMPDEST SWAP2 POP POP SWAP3 SWAP2 POP POP JUMP JUMPDEST PUSH2 0x10FA DUP2 PUSH2 0xF82 JUMP JUMPDEST DUP3 MSTORE POP POP JUMP JUMPDEST PUSH0 PUSH1 0x40 DUP3 ADD SWAP1 POP PUSH2 0x1113 PUSH0 DUP4 ADD DUP6 PUSH2 0xF5A JUMP JUMPDEST PUSH2 0x1120 PUSH1 0x20 DUP4 ADD DUP5 PUSH2 0x10F1 JUMP JUMPDEST SWAP4 SWAP3 POP POP POP JUMP JUMPDEST PUSH0 DUP2 ISZERO ISZERO SWAP1 POP SWAP2 SWAP1 POP JUMP JUMPDEST PUSH2 0x113B DUP2 PUSH2 0x1127 JUMP JUMPDEST DUP2 EQ PUSH2 0x1145 JUMPI PUSH0 PUSH0 REVERT JUMPDEST POP JUMP JUMPDEST PUSH0 DUP2 MLOAD SWAP1 POP PUSH2 0x1156 DUP2 PUSH2 0x1132 JUMP JUMPDEST SWAP3 SWAP2 POP POP JUMP JUMPDEST PUSH0 PUSH1 0x20 DUP3 DUP5 SUB SLT ISZERO PUSH2 0x1171 JUMPI PUSH2 0x1170 PUSH2 0xEBE JUMP JUMPDEST JUMPDEST PUSH0 PUSH2 0x117E DUP5 DUP3 DUP6 ADD PUSH2 0x1148 JUMP JUMPDEST SWAP2 POP POP SWAP3 SWAP2 POP POP JUMP JUMPDEST PUSH0 DUP2 SWAP1 POP SWAP2 SWAP1 POP JUMP JUMPDEST PUSH0 PUSH2 0x11AA PUSH2 0x11A5 PUSH2 0x11A0 DUP5 PUSH2 0xEC2 JUMP JUMPDEST PUSH2 0x1187 JUMP JUMPDEST PUSH2 0xEC2 JUMP JUMPDEST SWAP1 POP SWAP2 SWAP1 POP JUMP JUMPDEST PUSH0 PUSH2 0x11BB DUP3 PUSH2 0x1190 JUMP JUMPDEST SWAP1 POP SWAP2 SWAP1 POP JUMP JUMPDEST PUSH0 PUSH2 0x11CC DUP3 PUSH2 0x11B1 JUMP JUMPDEST SWAP1 POP SWAP2 SWAP1 POP JUMP JUMPDEST PUSH2 0x11DC DUP2 PUSH2 0x11C2 JUMP JUMPDEST DUP3 MSTORE POP POP JUMP JUMPDEST PUSH0 PUSH1 0x60 DUP3 ADD SWAP1 POP PUSH2 0x11F5 PUSH0 DUP4 ADD DUP7 PUSH2 0x11D3 JUMP JUMPDEST PUSH2 0x1202 PUSH1 0x20 DUP4 ADD DUP6 PUSH2 0x10F1 JUMP JUMPDEST PUSH2 0x120F PUSH1 0x40 DUP4 ADD DUP5 PUSH2 0x10F1 JUMP JUMPDEST SWAP5 SWAP4 POP POP POP POP JUMP JUMPDEST PUSH32 0x4E487B7100000000000000000000000000000000000000000000000000000000 PUSH0 MSTORE PUSH1 0x41 PUSH1 0x4 MSTORE PUSH1 0x24 PUSH0 REVERT JUMPDEST PUSH32 0x4E487B7100000000000000000000000000000000000000000000000000000000 PUSH0 MSTORE PUSH1 0x32 PUSH1 0x4 MSTORE PUSH1 0x24 PUSH0 REVERT JUMPDEST PUSH2 0x127A DUP2 PUSH2 0xFB5 JUMP JUMPDEST DUP3 MSTORE POP POP JUMP JUMPDEST PUSH0 DUP2 MLOAD SWAP1 POP SWAP2 SWAP1 POP JUMP JUMPDEST PUSH0 DUP3 DUP3 MSTORE PUSH1 0x20 DUP3 ADD SWAP1 POP SWAP3 SWAP2 POP POP JUMP JUMPDEST DUP3 DUP2 DUP4 MCOPY PUSH0 DUP4 DUP4 ADD MSTORE POP POP POP JUMP JUMPDEST PUSH0 PUSH1 0x1F NOT PUSH1 0x1F DUP4 ADD AND SWAP1 POP SWAP2 SWAP1 POP JUMP JUMPDEST PUSH0 PUSH2 0x12C2 DUP3 PUSH2 0x1280 JUMP JUMPDEST PUSH2 0x12CC DUP2 DUP6 PUSH2 0x128A JUMP JUMPDEST SWAP4 POP PUSH2 0x12DC DUP2 DUP6 PUSH1 0x20 DUP7 ADD PUSH2 0x129A JUMP JUMPDEST PUSH2 0x12E5 DUP2 PUSH2 0x12A8 JUMP JUMPDEST DUP5 ADD SWAP2 POP POP SWAP3 SWAP2 POP POP JUMP JUMPDEST PUSH0 DUP2 MLOAD SWAP1 POP SWAP2 SWAP1 POP JUMP JUMPDEST PUSH0 DUP3 DUP3 MSTORE PUSH1 0x20 DUP3 ADD SWAP1 POP SWAP3 SWAP2 POP POP JUMP JUMPDEST PUSH0 DUP2 SWAP1 POP PUSH1 0x20 DUP3 ADD SWAP1 POP SWAP2 SWAP1 POP JUMP JUMPDEST PUSH2 0x1322 DUP2 PUSH2 0xEE1 JUMP JUMPDEST DUP3 MSTORE POP POP JUMP JUMPDEST PUSH2 0x1331 DUP2 PUSH2 0xF82 JUMP JUMPDEST DUP3 MSTORE POP POP JUMP JUMPDEST PUSH1 0x40 DUP3 ADD PUSH0 DUP3 ADD MLOAD PUSH2 0x134B PUSH0 DUP6 ADD DUP3 PUSH2 0x1319 JUMP JUMPDEST POP PUSH1 0x20 DUP3 ADD MLOAD PUSH2 0x135E PUSH1 0x20 DUP6 ADD DUP3 PUSH2 0x1328 JUMP JUMPDEST POP POP POP POP JUMP JUMPDEST PUSH0 PUSH2 0x136F DUP4 DUP4 PUSH2 0x1337 JUMP JUMPDEST PUSH1 0x40 DUP4 ADD SWAP1 POP SWAP3 SWAP2 POP POP JUMP JUMPDEST PUSH0 PUSH1 0x20 DUP3 ADD SWAP1 POP SWAP2 SWAP1 POP JUMP JUMPDEST PUSH0 PUSH2 0x1391 DUP3 PUSH2 0x12F0 JUMP JUMPDEST PUSH2 0x139B DUP2 DUP6 PUSH2 0x12FA JUMP JUMPDEST SWAP4 POP PUSH2 0x13A6 DUP4 PUSH2 0x130A JUMP JUMPDEST DUP1 PUSH0 JUMPDEST DUP4 DUP2 LT ISZERO PUSH2 0x13D6 JUMPI DUP2 MLOAD PUSH2 0x13BD DUP9 DUP3 PUSH2 0x1364 JUMP JUMPDEST SWAP8 POP PUSH2 0x13C8 DUP4 PUSH2 0x137B JUMP JUMPDEST SWAP3 POP POP PUSH1 0x1 DUP2 ADD SWAP1 POP PUSH2 0x13A9 JUMP JUMPDEST POP DUP6 SWAP4 POP POP POP POP SWAP3 SWAP2 POP POP JUMP JUMPDEST PUSH0 PUSH1 0xA0 DUP4 ADD PUSH0 DUP4 ADD MLOAD DUP5 DUP3 SUB PUSH0 DUP7 ADD MSTORE PUSH2 0x13FD DUP3 DUP3 PUSH2 0x12B8 JUMP JUMPDEST SWAP2 POP POP PUSH1 0x20 DUP4 ADD MLOAD DUP5 DUP3 SUB PUSH1 0x20 DUP7 ADD MSTORE PUSH2 0x1417 DUP3 DUP3 PUSH2 0x12B8 JUMP JUMPDEST SWAP2 POP POP PUSH1 0x40 DUP4 ADD MLOAD DUP5 DUP3 SUB PUSH1 0x40 DUP7 ADD MSTORE PUSH2 0x1431 DUP3 DUP3 PUSH2 0x1387 JUMP JUMPDEST SWAP2 POP POP PUSH1 0x60 DUP4 ADD MLOAD PUSH2 0x1446 PUSH1 0x60 DUP7 ADD DUP3 PUSH2 0x1319 JUMP JUMPDEST POP PUSH1 0x80 DUP4 ADD MLOAD DUP5 DUP3 SUB PUSH1 0x80 DUP7 ADD MSTORE PUSH2 0x145E DUP3 DUP3 PUSH2 0x12B8 JUMP JUMPDEST SWAP2 POP POP DUP1 SWAP2 POP POP SWAP3 SWAP2 POP POP JUMP JUMPDEST PUSH0 PUSH1 0x40 DUP3 ADD SWAP1 POP PUSH2 0x147E PUSH0 DUP4 ADD DUP6 PUSH2 0x1271 JUMP JUMPDEST DUP2 DUP2 SUB PUSH1 0x20 DUP4 ADD MSTORE PUSH2 0x1490 DUP2 DUP5 PUSH2 0x13E3 JUMP JUMPDEST SWAP1 POP SWAP4 SWAP3 POP POP POP JUMP JUMPDEST PUSH2 0x14A2 DUP2 PUSH2 0x1056 JUMP JUMPDEST DUP2 EQ PUSH2 0x14AC JUMPI PUSH0 PUSH0 REVERT JUMPDEST POP JUMP JUMPDEST PUSH0 DUP2 MLOAD SWAP1 POP PUSH2 0x14BD DUP2 PUSH2 0x1499 JUMP JUMPDEST SWAP3 SWAP2 POP POP JUMP JUMPDEST PUSH0 PUSH1 0x20 DUP3 DUP5 SUB SLT ISZERO PUSH2 0x14D8 JUMPI PUSH2 0x14D7 PUSH2 0xEBE JUMP JUMPDEST JUMPDEST PUSH0 PUSH2 0x14E5 DUP5 DUP3 DUP6 ADD PUSH2 0x14AF JUMP JUMPDEST SWAP2 POP POP SWAP3 SWAP2 POP POP JUMP JUMPDEST PUSH0 PUSH1 0x80 DUP3 ADD SWAP1 POP PUSH2 0x1501 PUSH0 DUP4 ADD DUP8 PUSH2 0x105F JUMP JUMPDEST PUSH2 0x150E PUSH1 0x20 DUP4 ADD DUP7 PUSH2 0x10F1 JUMP JUMPDEST PUSH2 0x151B PUSH1 0x40 DUP4 ADD DUP6 PUSH2 0x10F1 JUMP JUMPDEST PUSH2 0x1528 PUSH1 0x60 DUP4 ADD DUP5 PUSH2 0xF5A JUMP JUMPDEST SWAP6 SWAP5 POP POP POP POP POP JUMP JUMPDEST PUSH1 0x20 DUP3 ADD PUSH0 DUP3 ADD MLOAD PUSH2 0x1545 PUSH0 DUP6 ADD DUP3 PUSH2 0x1328 JUMP JUMPDEST POP POP POP POP JUMP JUMPDEST PUSH0 PUSH1 0x20 DUP3 ADD SWAP1 POP PUSH2 0x155E PUSH0 DUP4 ADD DUP5 PUSH2 0x1531 JUMP JUMPDEST SWAP3 SWAP2 POP POP JUMP JUMPDEST PUSH0 PUSH1 0x60 DUP3 ADD SWAP1 POP PUSH2 0x1577 PUSH0 DUP4 ADD DUP7 PUSH2 0xF5A JUMP JUMPDEST PUSH2 0x1584 PUSH1 0x20 DUP4 ADD DUP6 PUSH2 0xF5A JUMP JUMPDEST PUSH2 0x1591 PUSH1 0x40 DUP4 ADD DUP5 PUSH2 0x10F1 JUMP JUMPDEST SWAP5 SWAP4 POP POP POP POP JUMP JUMPDEST PUSH0 DUP3 DUP3 MSTORE PUSH1 0x20 DUP3 ADD SWAP1 POP SWAP3 SWAP2 POP POP JUMP JUMPDEST PUSH32 0x5361666545524332303A204552433230206F7065726174696F6E20646964206E PUSH0 DUP3 ADD MSTORE PUSH32 0x6F74207375636365656400000000000000000000000000000000000000000000 PUSH1 0x20 DUP3 ADD MSTORE POP JUMP JUMPDEST PUSH0 PUSH2 0x1603 PUSH1 0x2A DUP4 PUSH2 0x1599 JUMP JUMPDEST SWAP2 POP PUSH2 0x160E DUP3 PUSH2 0x15A9 JUMP JUMPDEST PUSH1 0x40 DUP3 ADD SWAP1 POP SWAP2 SWAP1 POP JUMP JUMPDEST PUSH0 PUSH1 0x20 DUP3 ADD SWAP1 POP DUP2 DUP2 SUB PUSH0 DUP4 ADD MSTORE PUSH2 0x1630 DUP2 PUSH2 0x15F7 JUMP JUMPDEST SWAP1 POP SWAP2 SWAP1 POP JUMP JUMPDEST PUSH32 0x416464726573733A20696E73756666696369656E742062616C616E636520666F PUSH0 DUP3 ADD MSTORE PUSH32 0x722063616C6C0000000000000000000000000000000000000000000000000000 PUSH1 0x20 DUP3 ADD MSTORE POP JUMP JUMPDEST PUSH0 PUSH2 0x1691 PUSH1 0x26 DUP4 PUSH2 0x1599 JUMP JUMPDEST SWAP2 POP PUSH2 0x169C DUP3 PUSH2 0x1637 JUMP JUMPDEST PUSH1 0x40 DUP3 ADD SWAP1 POP SWAP2 SWAP1 POP JUMP JUMPDEST PUSH0 PUSH1 0x20 DUP3 ADD SWAP1 POP DUP2 DUP2 SUB PUSH0 DUP4 ADD MSTORE PUSH2 0x16BE DUP2 PUSH2 0x1685 JUMP JUMPDEST SWAP1 POP SWAP2 SWAP1 POP JUMP JUMPDEST PUSH0 DUP2 SWAP1 POP SWAP3 SWAP2 POP POP JUMP JUMPDEST PUSH0 PUSH2 0x16D9 DUP3 PUSH2 0x1280 JUMP JUMPDEST PUSH2 0x16E3 DUP2 DUP6 PUSH2 0x16C5 JUMP JUMPDEST SWAP4 POP PUSH2 0x16F3 DUP2 DUP6 PUSH1 0x20 DUP7 ADD PUSH2 0x129A JUMP JUMPDEST DUP1 DUP5 ADD SWAP2 POP POP SWAP3 SWAP2 POP POP JUMP JUMPDEST PUSH0 PUSH2 0x170A DUP3 DUP5 PUSH2 0x16CF JUMP JUMPDEST SWAP2 POP DUP2 SWAP1 POP SWAP3 SWAP2 POP POP JUMP JUMPDEST PUSH32 0x416464726573733A2063616C6C20746F206E6F6E2D636F6E7472616374000000 PUSH0 DUP3 ADD MSTORE POP JUMP JUMPDEST PUSH0 PUSH2 0x1749 PUSH1 0x1D DUP4 PUSH2 0x1599 JUMP JUMPDEST SWAP2 POP PUSH2 0x1754 DUP3 PUSH2 0x1715 JUMP JUMPDEST PUSH1 0x20 DUP3 ADD SWAP1 POP SWAP2 SWAP1 POP JUMP JUMPDEST PUSH0 PUSH1 0x20 DUP3 ADD SWAP1 POP DUP2 DUP2 SUB PUSH0 DUP4 ADD MSTORE PUSH2 0x1776 DUP2 PUSH2 0x173D JUMP JUMPDEST SWAP1 POP SWAP2 SWAP1 POP JUMP JUMPDEST PUSH0 DUP2 MLOAD SWAP1 POP SWAP2 SWAP1 POP JUMP JUMPDEST PUSH0 PUSH2 0x1791 DUP3 PUSH2 0x177D JUMP JUMPDEST PUSH2 0x179B DUP2 DUP6 PUSH2 0x1599 JUMP JUMPDEST SWAP4 POP PUSH2 0x17AB DUP2 DUP6 PUSH1 0x20 DUP7 ADD PUSH2 0x129A JUMP JUMPDEST PUSH2 0x17B4 DUP2 PUSH2 0x12A8 JUMP JUMPDEST DUP5 ADD SWAP2 POP POP SWAP3 SWAP2 POP POP JUMP JUMPDEST PUSH0 PUSH1 0x20 DUP3 ADD SWAP1 POP DUP2 DUP2 SUB PUSH0 DUP4 ADD MSTORE PUSH2 0x17D7 DUP2 DUP5 PUSH2 0x1787 JUMP JUMPDEST SWAP1 POP SWAP3 SWAP2 POP POP JUMP INVALID LOG2 PUSH5 0x6970667358 0x22 SLT KECCAK256 0xC5 CALLDATALOAD 0xE 0xD5 0xAF OR EQ BLOCKHASH SUB MLOAD 0x4C 0x2A EXTCODESIZE PREVRANDAO 0xB0 DUP11 SWAPN 0x4F CALLER 0xA7 PUSH30 0x4818CE8B3D8AF72F04B82A64736F6C634300081E00330000000000000000 "
				},
				"gasEstimates": {
					"creation": {
						"codeDepositCost": "1233000",
						"executionCost": "infinite",
						"totalCost": "infinite"
					},
					"external": {
						"owner()": "2536",
						"renounceOwnership()": "infinite",
						"transferOwnership(address)": "infinite",
						"transferTokens(address,uint256,address,uint64)": "infinite",
						"withdrawToken(address,address)": "infinite"
					}
				},
				"methodIdentifiers": {
					"owner()": "8da5cb5b",
					"renounceOwnership()": "715018a6",
					"transferOwnership(address)": "f2fde38b",
					"transferTokens(address,uint256,address,uint64)": "97d317f6",
					"withdrawToken(address,address)": "3aeac4e1"
				}
			},
			"storageLayout": {
				"storage": [
					{
						"astId": 856,
						"contract": "contracts/CCIPChallenge.sol:CCIPChallenge",
						"label": "_owner",
						"offset": 0,
						"slot": "0",
						"type": "t_address"
					}
				],
				"types": {
					"t_address": {
						"encoding": "inplace",
						"label": "address",
						"numberOfBytes": "20"
					}
				}
			},
			"userdoc": {
				"kind": "user",
				"methods": {},
				"notice": "THIS IS AN EXAMPLE CONTRACT THAT USES HARDCODED VALUES FOR CLARITY. THIS IS AN EXAMPLE CONTRACT THAT USES UN-AUDITED CODE. DO NOT USE THIS CODE IN PRODUCTION.",
				"version": 1
			}
		}
	}
}